:020000040000FA
:0600000002011A02226D4C
:03002B00021C971D
:03003300021C7933
:030053000222E3A3
:03006B00021C5024
:100083000220C7E5C754F84401F5C77901220000EF
:100093000080FB120086B90003020104E479217891
:1000A30008B800028004F709D8FCE479297802B87B
:1000B30000028004F709D8FCE4900281788A79135E
:1000C3008002F0A3D8FCD9FA781A90014A7A01BACF
:1000D30000028007E493A3F608DAF97A0A7B159005
:1000E300014B780B79048015E493A3AD82AE838A28
:1000F300828B83F0A3AA82AB838D828E83D8E9D9C6
:10010300E77582A17583C1740312012C7582917501
:100113008300740012012C75D00075813F7518811E
:10012300751902759F00020096C09FF59FE473D076
:100133009F22D083D082C09FE493C0E0740193C018
:10014300E0740293F59F22010202020202020202FC
:1001530002010D000000100102C990010000A290ED
:1001630002E3900100000A1502D39001000083020C
:1001730002E3900100000B1502C5900100005B8FA4
:1001830002E3900100000C1502B9900100003F8FBB
:1001930002E3900100000D1502B390010000DD8E13
:1001A30002E3900100000E1502E590010000958E18
:1001B30002E3900100000F1502D590010000A78E05
:1001C30002E390010000101502CD90010000B98EEA
:1001D30002E390010000111502C3900100004D8F4E
:1001E30002E390010000121502D1900100001315E3
:1001F300FF0000B4000028002800283075A000A0EC
:1002030000A000A00000080008E001F000100010AA
:10021300001000100010001000500050005000109B
:10022300001000D0070000000000000F00010005CF
:1002330000307507001000010081FF00000000FF7F
:10024300FFFF8F06AD069506D106FF01E80305778C
:10025300100A0A9D0702020208025000A0000000D3
:10026300E80302C9900100009F9002E3900100009F
:10027300171602BD90010000810302E39001000004
:10028300181602BB90010000970302E390010000DF
:10029300191602B790010000990302E390010000D0
:1002A3001A1602B1900800009A0302E390010000BD
:1002B3001B1602AF900100001C16FF0100FF200275
:1002C300C990010000A89002E3900100008016028B
:1002D300AB90000000000002BF90030000C80317AA
:1002E300006B0F6B0F6B0F6B0F6B0F6B0F6B0F6B4A
:1002F3000F6B0F6B0F6B0F6B0F6B0FFFFFFF00018C
:100303003075030201060000000000000000000039
:1003130000000000000000000000000000000000DA
:100323000000FFFF0600800CE803140953696D7099
:100333006C65424C455065726970686572616C0505
:100343001250002003020A000201060302F0FF53C9
:10035300696D706C6520424C452050657269706808
:100363006572616C3113000037130A43686172616F
:100373006374657269737469632031000243686151
:100383007261637465726973746963203200084330
:1003930068617261637465726973746963203300A1
:1003A3001043686172616374657269737469632071
:1003B30034000243686172616374657269737469BE
:1003C3006320350002C990010000A59002E390016B
:1003D30000002C1702D990030000F61402C190010B
:1003E30000002D1702E3900100003E1702DB90018D
:1003F3000000F71402C1900100003F1702E39001CF
:100403000000501702DD90020000F81402C19001B1
:100413000000511702E390010000621702DF900011
:100423000000F91402BF90030000FA1402C1900106
:100433000000631702E390010000741702E19004C7
:100443000000FC1402C19001000075177B148D1489
:1004530075141201357D9D03120135909D03120120
:1004630035C19D03120135FB9D03120135549E03D3
:100473001201359B9E03120135E39E0312013512CF
:100483009F03120135419F03120135789F03120127
:1004930035BF9F03120135D89F031201352DA003E9
:1004A30012013546A00312013594A003120135CE83
:1004B300A003120135A9B902120135ACBA02120127
:1004C30035F3BA0212013516BB0212013528BB02FD
:1004D30012013566BB02120135DFBB02120135A7DB
:1004E300BC02120135C9BC021201355EBD02120104
:1004F30035AABD02120135DBBD02120135E8BD028A
:1005030012013550BE02120135A7BE02120135AAEF
:10051300BE02120135E0BE02120135E3BE02120132
:1005230035EDBE0212013541BF0212013582BF0211
:10053300120135B5BF02120135F2BF02120135F0C7
:10054300C00212013594C102120135FDC10212012C
:10055300353BC202120135F9A70312013520A80366
:100563001201354AA803120135A87F00120135C9CB
:100573009103120135F191031201351E9203120109
:1005830035569203120135B49203120135009303D9
:10059300120135679303120135A79303120135E462
:1005A3009303120135129403120135BC9403120113
:1005B30035C69403120135D394031201350695030E
:1005C3001201351295031201352A950312013534B0
:1005D3009503120135D1BE03120135DFBE031201AB
:1005E30035F7BE031201350EBF03120135D6C7011D
:1005F30012013580C8011201359FC9011201351B53
:10060300CA0112013541CB011201357DCB01120123
:100613003518CC011201350ACD01120135D8CD01AF
:1006230012013566CF01120135D5CF01120135AE66
:10063300D0011201359ED101120135DED101120123
:10064300357ED201120135A2D20112013593D401B4
:10065300120135D5D401120135F3D40112013559F4
:10066300D50112013526D601120135E8D601120152
:100673003507D901120135F5D902120135DFDA0246
:100683001201358ADB02120135DBDB021201358BE5
:10069300DC02120135FCDC02120135E1DD0212013C
:1006A3003515DE021201350EDF021201354BDF0272
:1006B30012013527E00212013566E002120135828C
:1006C300E002120135FAB1031201357EB2031201C1
:1006D30035A9B203120135B9B303120135C295032B
:1006E300120135D89503120135F69503120135072A
:1006F30097031201351197031201353C9803120138
:1007030035339903120135A09903120135154900B8
:100713001201357E4B00120135354D001201359221
:100723004D001201358F4E00120135174F00120193
:10073300359C4F00120135C14F00120135B65200EE
:100743001201352C53001201351854001201355291
:100753005400120135925400120135325600120131
:1007630035875600120135D4560012013542570021
:10077300120135695700120135835700120135B351
:100783005800120135CA5800120135C05A0012012F
:1007930035E05A00120135165B00120135865C0004
:1007A300120135065D00120135455D0012013580E9
:1007B3005E00120135E3E00212013513E202120179
:1007C300358DE202120135BDE202120135D0E2029B
:1007D3001201351AE302120135DDE402120135E894
:1007E3009001120135749101120135D89201120161
:1007F30035E492011201351F93011201358E9301E5
:10080300120135999401120135A29501120135693E
:100813009601120135C69701120135E497011201C1
:1008230035019801120135AE98011201352B99015A
:100833001201355399011201351D9C011201352214
:100843009C011201353D9E011201358B9E0112015F
:1008530035FB9E01120135399F0112013515A001A7
:10086300120135D5A00112013521A1011201352450
:10087300A10112013568A101120135B0A1011201D4
:1008830035EFA10112013511A20112013545A20173
:10089300120135A8A201120135ACE602120135BAE4
:1008A300E6021201350DE7021201352CE7021201AF
:1008B3003571E702120135B5E80212013550E9023C
:1008C30012013594E902120135BEE9021201352DF8
:1008D300EA0212013573EA02120135EAEA02120151
:1008E300359BEB02120135F0280012013500290077
:1008F300120135A12900120135FD2900120135BA73
:100903002A00120135D62B00120135082C001201E2
:1009130035372C00120135EC2D00120135763000ED
:10092300120135E93200120135DE3300120135CDF3
:100933003400120135C53600120135C039001201E9
:1009430035EF3A00120135F33C00120135033E0046
:10095300120135923F00120135834000120135D157
:10096300400012013540410012013564410012017B
:1009730035B541001201355646001201355747007F
:10098300120135B84700120135E34700120135A9BA
:100993004800120135968403120135EE84031201D7
:1009A30035368603120135A58603120135548703B4
:1009B300120135738703120135C787031201350509
:1009C30088031201359EBF03120135AFBF03120125
:1009D30035F9C10312013538C203120135EFFF01A6
:1009E300120135F4BD0312013504BE03120135199A
:1009F300BE03120135CBBE03120135ECFE01120119
:100A03003570FF01120135D6FF0112013542B903DA
:100A13001201356BB903120135D1B903120135F057
:100A2300B90312013543BA031201359CBA0312010B
:100A330035D7BA03120135DABA03120135CAA40352
:100A4300120135DFA40312013503A6031201356D2C
:100A5300A603120135E1A603120135FBA603120119
:100A63003512A70312013525A7031201353DA7034C
:100A730012013552A70312013573A703120135C4BE
:100A8300A70312013532C30312013542C303120116
:100A93003545C303120135F87F00120135E8B3036E
:100AA3001201355EB503120135BFB5031201358F4F
:100AB3008D03120135998D03120135DE8D03120169
:100AC30035F28D03120135828E03120135BB8E037D
:100AD300120135F68E031201351F8F031201357390
:100AE3008F03120135888F03120135AA8F03120178
:100AF30035BF8F03120135D38F03120135E88F03FE
:100B03001201352290031201354E900312013597DD
:100B130090031201350991031201354C910312011F
:100B230035769103120135A19103120135947E00AC
:100B3300120135BAA5021201359BA6021201351026
:100B4300A7021201354BA70212013579A80212013F
:100B53003528A9021201350CAC02120135C3AC02CF
:100B6300120135C5AD021201354DAF02120135B088
:100B7300AF0212013540F50212013583F50212016D
:100B83003530F60212013556F90212013586AD03EE
:100B930012013538AE0312013534AF031201357338
:100BA300AF03120135CDAF031201354FC00312015C
:100BB300357BC003120135D6C003120135E0C003F3
:100BC300120135F0C003120135C2B50312013525F8
:100BD300B603120135C2B603120135F7B60312018B
:100BE3003527B70312013562B70312013582B70304
:100BF300120135F5F90212013581FA02120135406D
:100C0300FB0212013558FC0212013572FE02120179
:100C1300350B7300120135207300120135ED73009B
:100C2300120135C174001201352E750012013569A8
:100C33007500120135057600120135207700120187
:100C430035F5770012013574780012013504790007
:100C53001201357D7900120135097A0012013564DC
:100C63007A00120135D67A00120135647B00120135
:100C730035FE7B001201351E7C00120135667C00B7
:100C8300120135AF7C00120135CB7C00120135F126
:100C93007C001201356B7D00120135797D00120154
:100CA30035087E00120135717E0012013500800384
:100CB300120135858003120135C78003120135AB5C
:100CC30081031201351882031201355C820312017C
:100CD30035A08203120135CD8203120135F582035B
:100CE3001201352D83031201356B830312013592F3
:100CF30083031201350C8403120135568403120158
:100D030035E8B5011201358CB701120135BBB901C4
:100D13001201350DBA0112013538BA011201350A33
:100D2300BB011201354EBB0112013592BB01120109
:100D330035A5BB01120135E6BB0112013513BC0118
:100D43001201355FBC01120135A0BC01120135CE81
:100D5300BC0112013521BD01120135B8BD011201DB
:100D630035A7C001120135BDC201120135FBC20115
:100D73001201358EC401120135D3C4011201354568
:100D8300C50112013596C501120135D0C501120105
:100D930035D5C5011201356CC601120135A2C70153
:100DA300120135B3C7011201355EF501120135DDBC
:100DB300F501120135B6FB01120135B8FC01120130
:100DC300352BFE01120135C2FE01120135A55E006D
:100DD300120135EE5E001201351B5F001201354D25
:100DE3005F001201355A5F00120135665F00120180
:100DF30035785F00120135536000120135B1600090
:100E0300120135E660001201352162001201356ED0
:100E13006200120135926200120135026300120171
:100E230035C36300120135866400120135F4640092
:100E3300120135B16500120135C465001201353C5C
:100E43006600120135CF6600120135F66600120105
:100E5300355E6700120135AF670012013504680083
:100E6300120135BB6800120135546900120135FEC9
:100E730069001201356C6A00120135C06A00120163
:100E830035206B00120135506B00120135E66B0003
:100E93001201350B6D00120135536D0012013570CF
:100EA3006D001201358F6D00120135BE6D00120108
:100EB30035D36E00120135596F001201357E6F0074
:100EC300120135936F001201350670001201354788
:100ED30070001201356371001201350472001201B2
:100EE30035527200120135C27200120135DB7200F5
:100EF3001201355EB002120135B2B002120135BEE5
:100F0300B00212013588B102120135B5B1021201E6
:100F130035E3B1021201354FB20212013585B20237
:100F2300120135BEB202120135D6B2021201352DBD
:100F3300B30212013546B3021201358BB30212011B
:100F4300359EB302120135B8B302120135CEB30296
:100F5300120135ECB40212013517B6021201350144
:100F6300B702120135F0B702120135E5280012016C
:100F730035708D021201359F8D0212013565910284
:100F8300120135BC9202120135829302120135F52A
:100F93009402120135BE9502120135109602120118
:100FA300352A96021201355B9602120135669602C6
:100FB300120135AF9602120135B89602120135645B
:100FC30097021201353D98021201358498021201ED
:100FD30035EC98021201352E99021201355C990203
:100FE30012013597990212013580A3011201351EB2
:100FF300A70112013524A70112013569AD011201C0
:1010030035BBB10112013596B501120135AA990319
:10101300120135209A03120135369A03120135C69F
:101023009A03120135039B031201353D9B03120101
:1010330035779B03120135EA9B031201352B9C0381
:10104300120135349C03120135409C031201355FB4
:101053009C03120135899C031201359E9C031201E6
:1010630035C69C03120135289D031201354F9D039C
:1010730012013582BC03120135ABBC03120135D416
:10108300BC031201356DBD03120135AFBD0312015F
:101093003561C2021201356BC202120135ABC202C5
:1010A300120135F4C2021201352EC3021201358436
:1010B300C302120135A3C30212013528C60212016D
:1010C3003531C60212013582C602120135ABC602A2
:1010D300120135C0C60212013530C702120135BEF6
:1010E300C70212013502C8021201352AC8021201D1
:1010F30035A9C802120135ECC80212013529C9020B
:101103001201353BC9021201355AC9021201356376
:10111300C9021201352DCA02120135E4BA031201C4
:101123003535BB03120135BEBB0312013524BC03A5
:10113300120135C7AA03120135F1AA03120135E6DC
:10114300AB0312013515AC031201359BAC0312013D
:1011530035A9FE02120135F8AF031201352EB00393
:1011630012013567B003120135C0B103120135FA1C
:10117300C00312013510C1031201351AC103120154
:101183003570C103120135A0FF0212013559CA029D
:1011930012013516CB0212013551CB0212013579FA
:1011A300CB02120135DBCB0212013527CC0212012F
:1011B3003592CC021201350ECD021201350ACE0250
:1011C30012013591CF0212013514D0021201357884
:1011D300D0021201358FD00212013585D1021201DE
:1011E30035D1D1021201351789031201352C890338
:1011F300120135DC89031201351C8A0312013535CE
:101203008A03120135688A03120135B58A03120174
:1012130035E98A031201352B8B03120135298D031E
:1012230012013514D901120135CBDC011201355DF0
:10123300DE01120135B4DE01120135D3DE011201E4
:101243003551DF01120135E3E001120135C7E10138
:10125300120135D8E501120135ACE6011201357FE3
:10126300F00212013592F002120135ACF0021201C4
:1012730035D9F0021201351FF10212013552F10284
:101283001201358FF102120135F9F1021201350E07
:10129300F20212013519F20212013526F20212018D
:1012A300353DF2021201354BF20212013556F202BC
:1012B30012013562F20212013575F2021201358014
:1012C300F202120135A3F20212013547F3021201B1
:1012D3003557F30212013571F3021201358EF30211
:1012E3001201359EF302120135CCF302120135D7F8
:1012F300F302120135ECF30212013500F40212017C
:101303003561F40212013567F4021201356DF402FE
:1013130012013573F4021201358BF402120135BE4A
:10132300F402120135ADEB02120135D7ED021201C1
:101333003599EE021201351DF00212013536A10373
:101343001201359EA103120135BBA103120135869B
:10135300A203120135D9A203120135BCA303120162
:10136300350580021201359D800212013536810256
:101373001201352682021201355D82021201357097
:101383008202120135DE82021201357984021201D2
:1013930035A0840212013542850212013577850298
:1013A300120135888502120135EC85021201350DD3
:1013B30086021201352586021201357D870212014C
:1013C30035868902120135D18B02120135D48C0284
:1013D300120135238D021201354FE70112013551F8
:1013E300E8011201353AE90112013544E90112011C
:1013F3003566E90112013572E901120135BAEA01D4
:10140300120135E9EA011201350CEC011201354EE6
:10141300EC011201357AED0112013540EE011201A2
:101423003592EE01120135F9EE0112013530EF016B
:101433001201356BEF01120135A9F201120135C218
:10144300F20112013544F30112013552F301120185
:1014530035A7F301120135B5F30112013520F4016B
:1014630012013592F401120135D8F401120135A7A6
:101473009A02120135C99A02120135B39C02120174
:101483003559A0021201359CA10212013576A20240
:1014930012013590B703120135B5B7031201352692
:1014A300B8031201352FD20212013538D2021201CC
:1014B3003541D20212013552D30212013538D50219
:1014C3001201356ED502120135A8D502120135DE9F
:1014D300D50212013518D60212013556D602120171
:1014E3003582D602120135C7D60212013501D70261
:1014F30012013552D702120135ACD702120135E180
:10150300D7021201352ED80212013568D802120112
:1015130035A9D802120135DFD80212013519D902D3
:1015230012013546D90212013569D9021201354239
:10153300C203120135BFC20312013588C20312016F
:1015430035EBC20312013514C303E066701008A320
:10155300E066700A08A3E066700408A3E06622C38D
:10156300E7960809E7960809E7960809E79622C36C
:10157300E09608A3E09608A3E09608A3E09622C0AD
:1015830008C3E096F50808A3E096420808A3E0968E
:10159300420808A3E09645087001D3D00822080842
:1015A30008EAC0E0EBC0E086F0E7A4FA180986F089
:1015B300E7A42AFA180986F0E7A42AFA180986F09C
:1015C300E7A42AFA1986F0E7A4FBE5F02AFA19083A
:1015D30086F0E7A42BFBE5F03AFA190886F0E7A4B6
:1015E3002BFBE5F03AFA18180986F0E7A4C5F02BAF
:1015F300FBE43AFA1908E7C5F0C6A426F6E5F03B82
:10160300FBE43AFA1886F0E7A4F6E5F00826F6E4D8
:101613003B08F6E43A08F6D0E0FBD0E0FA22E4CF48
:10162300C0E0E4CEC0E0E4CDC0E0E4CCC0E075F0BF
:1016330020E626F608E633F608E633F608E633F640
:10164300181818EC33FCED33FDEE33FEEF33FFC314
:10165300EC9709ED9709EE9709EF97191919400FC0
:10166300FFEC97FC09ED97FD09EE97FE191906D5D6
:10167300F0BFECF709EDF709EEF709EFF7191919C0
:10168300D0E0FCD0E0FDD0E0FED0E0FF2260160801
:101693000808C6C313C618C613C618C613C618C689
:1016A30013C6D5E0EA227009080808226016181844
:1016B30018C6C333C608C633C608C633C608C633FE
:1016C300C6D5E0EA22E627F60809E637F60809E672
:1016D30037F60809E637F622E026F608A3E036F6E1
:1016E30008A3E036F608A3E036F622E026F008A3C6
:1016F300E036F008A3E036F008A3E036F022C3E6B4
:1017030097F60809E697F60809E697F60809E697B3
:10171300F622C3E096F008A3E096F008A3E096F063
:1017230008A3E096F022E056F608A3E056F608A3D5
:10173300E056F608A3E056F622E056F008A3E0567A
:10174300F008A3E056F008A3E056F022E0F608A361
:10175300E0F608A3E0F608A3E0F622E6F008A3E625
:10176300F008A3E6F008A3E6F022E0FAA3E0FBA367
:10177300E0FCA3E0FD22E0F8A3E0F9A3E0FAA3E094
:10178300FB22E8F0A3E9F0A3EAF0A3EBF022CAC03E
:10179300E0E6F0A308DAFAD0E0FA22CAC0E0E0A358
:1017A300C582CCC582C583CDC583F0A3C582CCC514
:1017B30082C583CDC583DAE6D0E0CA22C3E498F8B4
:1017C300E499F91218008026C3E49AFAE49BFBE932
:1017D30020E7E9121800E498F8E499F922C3E498A1
:1017E300F8E499F9121800E498F8E499F9C3E49A33
:1017F300FAE49BFB22EB20E7CFE920E7E0B90010F6
:10180300BB0008E88AF084F8AAF022E4FBC8FA22B5
:10181300EB70227B10C833C8C933C9335007C39A4E
:10182300C3DBF280069A50012ADBEAC833F4C8C945
:1018330033F4C9FA2275F008E4C833C8C933C9338D
:10184300C99AC99B5004C92AC93BD5F0ECFBC833DC
:10185300F4C8E4C9FA22600D08C6A2E713C618C685
:1018630013C6D5E0F322600C08C6C313C618C6130B
:10187300C6D5E0F422700422600D18C6C333C6082F
:10188300C633C6D5E0F41822251810AF08F5184062
:101893000C15198008F51840021519D2AF2200C0A3
:1018A300D0251810AF08F518500C05198008F51845
:1018B30050020519D2AFD0D0222518F58210AF08F7
:1018C300F518400C15198008F51840021519D2AF08
:1018D300851983222518F582E43519F58322251805
:1018E300F8E43519F9222518FAE43519FB222518ED
:1018F300FCE43519FD22E4732518C582C0E0E5191F
:1019030034FFC583C0E0E518C3958224F810AF08FF
:101913008583198582188008858319858218D2AF3B
:10192300CEF0A3E520F0A37808E608F0A3DEFAEFF3
:10193300F0A3E58124FAF8E608F0A3E608F0A3E6AD
:1019430008F0A30808E608F0A3E608F0A31581153C
:1019530081D0E0FED0E0F8158115811581E8C0E063
:10196300EEC0E0222518C582C0E0E51934FFC58327
:10197300C0E0E518C3958224F910AF088583198563
:1019830082188008858319858218D2AFCEF0A3E52B
:1019930020F0A37808E608F0A3DEFAEFF0A3E581D0
:1019A30024FBF8E608F0A3E608F0A30808E608F02D
:1019B300A3E608F0A315811581D0E0FED0E0F81569
:1019C300811581E8C0E0EEC0E02285198385188285
:1019D300E0A3FEE0A3F5207808E0A3F608DFFAE031
:1019E300A3FFE0A3C0E0E0A3C0E0E0A3C0E0E0A366
:1019F300C0E0E0A3C0E010AF08858218858319809A
:101A030008858218858319D2AFD083D08202013230
:101A1300851983851882E0A3FEE0A3F5207808E00A
:101A2300A3F608DFFAE0A3FFE0A3C0E0E0A3C0E071
:101A3300E0A3C0E0E0A3C0E010AF0885821885836F
:101A4300198008858218858319D2AFD083D082226A
:101A5300C0D02518C582C0E0E51934FFC583C0E0B6
:101A6300E518C3958224F310AF088583198582187E
:101A73008008858319858218D2AFC8F0A3E9F0A343
:101A8300EAF0A3EBF0A37908E709F0A3D8FAECF0A6
:101A9300A3EDF0A3EEF0A3EFF0A3D0E0F0A3D0E02A
:101AA300F0A3D0E0F0A3E520F0A3E5F0F0A32285B6
:101AB3001983851882E0C0E0A3E0F9A3E0FAA3E06C
:101AC300FBA37808E0F608A3DFFAE0FCA3E0FDA39C
:101AD300E0FEA3E0FFA3E0C0E0A3E0C0E0A3E0F5E5
:101AE300D0A3E0F520A3E0A3F5F010AF0885831998
:101AF3008582188008858319858218D2AFD082D059
:101B030083D0E0F8D0E0327404800674028002745B
:101B130001C0E0F4041218BCD0E01217912274043F
:101B2300800474028000CCC0E0EDC0E0E518C39CE3
:101B3300CCAD1950011D10AF068C188D1980068C81
:101B4300188D19D2AF12179ED0E0FDD0E0FC22D041
:101B530083D082E9C0E0E493A3C386F0C5F095F097
:101B6300F908E493A386F0C5F095F0700BE493A312
:101B7300C3994005E9048002A3E475F002A4258219
:101B8300F582E5F03583F583D0E0F9E493A3C0E073
:101B9300E493C0E022D083D082ECC0E0EDC0E0E467
:101BA30093A3FCE493A3FDED4C600D121BE4EC2422
:101BB300FFFCED34FFFD80EFE493A3FCE493A3FD6E
:101BC300ED4C600D121C23EC24FFFCED34FFFD8073
:101BD300EFD0E0FDD0E0FCE493A3C0E0E493C0E0E9
:101BE30022C0E0C3E49396087401939618400FE46F
:101BF3009366700808740193661870007019A3A3A4
:101C0300C3E49396087401939618A3A3400DD0E000
:101C1300D0E0D0E0021BD4A3A3A3A3A3A3D0E022CC
:101C2300C0E0C0F088F0E49366700808740193661E
:101C3300187000A8F0A3A3700BD0F0D0E0D0E0D0D0
:0B1C4300E0021BD4A3A3D0F0D0E022ED
:101C5000C0E074F2121A53A2AFE433FED2AFE589AA
:101C6000A2E15003120A2B758900C2C5751A00EE55
:101C7000A2E092AF7F01021AB2C0E074F2121A53CE
:101C8000A2AFE433FED2AFE58BA2E05003120A2BE1
:101C9000758B00C2E880D5C0E0C0D0E8C0E0E9C0E4
:101CA000E0A9A8D2AFC2C7751A00E9A2E7E433F8E9
:101CB000E9A2E792AFD0E0F9D0E0F8D0D0D0E0329E
:101CC00074F6121967EAFEEBFF8C088D09EE2434D6
:101CD000F8E43FF9E8FCE9FD121DF3E0FAEE2437E1
:101CE000F582E43FF583E0F88508F0A4C885F00AA2
:101CF0008509F0A4250AF9EA28F8E439F97A257B60
:101D000000121800EA8C828D83F0FA131313541F0B
:101D1000F8EE28F8E43FF9E8245DF582E439F5832C
:101D2000E0C0E074075AF8D0E0B800028004C313A2
:101D3000D8FCA2E05003EA8020EE2436F582E43F8E
:101D4000F583E0F5F0EA84A8F0EE28F8E43FF9E83E
:101D50002438F582E439F583E0F97F03021A13741D
:101D6000F5121967EAFEEBFFEE2434F582E43FF545
:101D700083E0C0E0121DF3D0E0F08E828F83A3A336
:101D8000A3A3A3E0FAA3E0FB8E828F83A3A3A3A364
:101D9000A3A3A3E0FCA3E0FDECC39AF50AED9BF539
:101DA0000BEE247FF508E43FF509850882F583E012
:101DB0006401702AEE2480F582E43FF583121B252E
:101DC000121DFD74021218A1E960137CAC7D05EEB2
:101DD000FAEFFB120E87850882850983E4F0AC0ACE
:101DE000AD0BEEFAEFFB121CC0E9F91228D77F0405
:101DF000021A13EE2435F582E43FF58322C082C037
:101E000083851882851983E0F8A3E0F9C3EA9CEB87
:101E10009D5010C3EC98ED99401BC3EA98EB995084
:101E200014800EC3EA98EB994007C3EC98ED9940F3
:101E300004790180027900D083D08222EAC39CFA1F
:101E4000EB9DFB2274ED121967900472E064086048
:101E500005E06407702C9061C8E060269004A0E063
:101E6000F874FF68601CE875F00AA4C8AAF02AF9A3
:101E700074A228FE740439FF8E828F83A3A3A3E08B
:101E800070057900021FDDEE2468F50EE43FF50FC2
:101E9000906060E0850E82850F83F075101C7511CF
:101EA00006750800750900E5D914F50AE5D954034B
:101EB000F50B601FEE2482F50CE43FF50D7403650D
:101EC0000B6059E50A6017EE2467F582E43FF5835D
:101ED000E0700B793DEEFAEFFB120EB780A490068E
:101EE00017E064016023850C82850D83E060047A2D
:101EF0000480027A00E50AC39AFA95E0FB120D13FA
:101F00008A088B09EA45097006121307021E8285AA
:101F10000C82850D83E070048A108B117A00801486
:101F2000E5D9C0E0EAF8E51028F582E43511F5833B
:101F3000D0E0F00AEAC3950A40E6850C82850D835D
:101F4000E0602874FC250AF50A7810121B0EAC0A12
:101F5000A90BEEFAEFFB120F6574021218A1E970DB
:101F60000AAA08AB09121121021ED37403650B6083
:101F700054850A0C750D00780C121B0EAC10AD11B7
:101F8000AA08AB09120F2974021218A1850E8285C6
:101F90000F83E0F87480687005750C7F8002880CF0
:101FA000E50CF50D780D121B12780B121B12A90A05
:101FB000AC08AD099004A0E0FA7B00120B2D74026E
:101FC0001218A18013900472E06408600BAC10AD8D
:101FD00011EEFAEFFB120FFB12131379017F0C02C3
:101FE0001A1374F312196774FC12188BEAFEEBFFD4
:101FF0008909A2AFE433F508C2AFEE2463F50AE421
:102000003FF50B8010AA0AAB0B120EE112112190C2
:1020100005B3E004F0850A82850B83E0F8A3E0F9BC
:10202000E849602DE82402FAE439FBEA2402F50CC1
:10203000E43BF50D780C121B0E8A828B83E0FCA327
:10204000E0F9EEFAEFFB120ED574021218A1E96066
:10205000B49005B3E0604D9005B4E0F89005B3E0AE
:10206000C398500C74026509703A9005B5E060346D
:102070008E828F83A3A3A3A3E08518828519831280
:1020800020B474021218D7E81220B49005B2E028E8
:10209000F074021218F1AA18AB197901120B819091
:1020A00005B3E4F0E508A2E092AF74041218A17F32
:1020B00006021A13F0A3E4F09005B3E0F822000042
:1020C0008521878522C622C0E074EB121A53A2AF85
:1020D000E433F508C2AF759B00906182E0A2E05046
:1020E00030E591A2E0502A7591FE740165217021BE
:1020F000122256121055122244121B2112267B74F2
:10210000041218A1E964017005790112129B121ED4
:1021100044906182E0A2E5505DE591A2E5505775DB
:1021200091DF900472E064076005E06408702F128C
:10213000225674016521703E121055122244121B62
:102140002112267B74041218A1E96401700579013B
:1021500012129B7901EEFAEFFB121FE28018E06485
:102160000D7013900494E004F064287002E4F07A97
:1021700000E0F9121319906182E0A2E64003022206
:1021800019E591A2E640030222197591BF900472ED
:10219000E06405700812103D1210498003121043CC
:1021A0007521001212A7E9900473F0790012129BB6
:1021B000120DF17A017B00900471E0F91210F19098
:1021C0007803E06442705290061BE014F0704AC23B
:1021D000AF1221D400782AD0E0F618D0E0F6E59FBF
:1021E000540770047BFF80027B7FC4C0E07829E63F
:1021F000F50A08E65BF50B740B780A121869D0E053
:10220000250AF8906270E0A2E740F8E8C3339062D4
:1022100072F0906270E0D2E0F0906181E0A2E35051
:1022200009E5E9A2E3500375E9F7A3E0A2E7500945
:10223000E591A2E7500375917FE508A2E092AF7F98
:1022400008021AB28E828F83E0F8A3E0C82416F544
:1022500082E438F583229004A0E0F875F00AA4C85F
:10226000AAF02AF974A228FE740439FF22C0E0C043
:10227000D0C082C083906183E0A2E05009E5BFA294
:10228000E0500375BFFEE0A2E15009E5BFA2E150B6
:102290000375BFFDE0A2E25009E5BFA2E25003755D
:1022A000BFFBE0A2E35009E5BFA2E3500375BFF70F
:1022B000E0A2E45009E5BFA2E4500375BFEFE0A23D
:1022C000E55009E5BFA2E5500375BFDFE0A2E65087
:1022D00009E5BFA2E6500375BFBFD083D082D0D03E
:1022E000D0E032C0E074F2121A53E5A7A2E4500F16
:1022F000E5A1A2E4500953A7EF75A1EF122337E53A
:10230000A7A2E5500CE5A1A2E5500653A7DF75A1F1
:10231000DFE5A7A2E15009E5A1A2E1500375A1FD07
:10232000E5A7A2E2500CE5A1A2E2500653A7FB7577
:10233000A1FB7F01021AB274F8121967752101908E
:102340000472E0640670077A007B00121025A2AFC9
:10235000E433FED2AF900478E0640170187A207BF9
:1023600000900471E0F912120B7A207B0090047146
:10237000E0F91210F7906182E0D2E6F0900618E0E2
:10238000602185C6228016900477E064017008E51C
:10239000C654F84405F5C653BEFC1220C07401654E
:1023A0002160E4EEA2E092AF7F01021A1300000068
:1023B0008E238F248582288583278518828519831B
:1023C000E0CEA3E0CF852882852783EBC9EAC8ED5C
:1023D000CBECCA75F010C3E833C8E933C9EA33CA95
:1023E000EB33CBC3EA9EF526EB9FF525B35004AB48
:1023F00025AA26EC33CCED33CDD5F0DAAE23AF24CD
:102400002274E912196774FA12188BEAFEEBFF8C3A
:10241000088D09121067EAF8EBF9ECFAEDFB8E82F1
:102420008F83121785900472E024F7C39405500639
:10243000751001022538120F9B8A0A8B0BEA450B97
:10244000700302253512105B8A0C8B0D12105BEAAB
:10245000650C7003EB650D60ECEEFCEFFDAA18ABAC
:1024600019121061850A82850B83A3A3780C1217B9
:102470004F909047780C1217298518828519837818
:102480001412174F9090477814121729780C79146A
:10249000121562501F780C791412170190908F78E2
:1024A0000C121582405D850C10850D11850E12856C
:1024B0000F13803790908F85141085151185161293
:1024C0008517137810790C121701781012158250A5
:1024D00032751000751100751200751301781079AE
:1024E000141217017810790C1216C874097810129A
:1024F00016A9909023780C12174F7810790C1216A9
:1025000021800C7510147511007512007513009060
:102510000472E06408600AE064066005E064057027
:102520002090909378101215825016909097781002
:102530001216DB800C7510007511007512007513F2
:1025400000850882850983781012175E74061218B8
:10255000A17F10021A1374F7121967121265900600
:1025600016E064017010906245E4F0A3F053F4F3B8
:1025700043FE0C5390F3121013E5C654B84441F5D2
:10258000C6E59E5447644170F8906185740FF090E1
:102590000614E0F47002A3E0602C750801750900D0
:1025A000900614E07808121878E508F4FAA3E060C1
:1025B0000814600A14600C800DEA52808008EA5208
:1025C000908003EA52A079007F02021A1374F71276
:1025D0001967E9FEEAFF74016E700C7A807B009047
:1025E0000471E0F91210F19028E8E493F46008E433
:1025F00093F9120DD3800953C6B8E59E544770FA7B
:10260000121019900616E064017003120E0990066C
:1026100014E0F47002A3E0602B75080175090090C6
:102620000614E07808121878E508FAA3E0600814A8
:10263000600A14600C800DEA42808008EA429080B3
:1026400003EA42A0120F9B8A088B09A808A909E88F
:10265000496016E5E170FCE82414F582E439F5835D
:10266000E0F874FF68600288E174016F700A7A0113
:10267000900471E0F912117B0225C874F1121967F8
:102680008A088B098C0A8D0B9090477808121729BD
:10269000740F1218D7780C12174F909047780C12BD
:1026A00017297808790C12156290908F50107808CD
:1026B000790C12170178081215824014800E780CDC
:1026C0007908121701780C121582500479018002E2
:1026D00079007F08021A1374ED1219678A088B09B2
:1026E0008C0A8D0B909047780812172974131218D2
:1026F000D7780C12174F909047780C121729780C46
:10270000790812156240117808790C121701AA088D
:10271000AB09AC0AAD0B8022751000751100751263
:10272000007513017810790C1217017810790812CE
:1027300016C8AA10AB11AC12AD137F0C021A13907D
:102740009047780812174F8A828B83780812173CBB
:102750007F04021A1374F51219678C828D8378082E
:1027600012174F8A828B8378081217151227A9C374
:10277000E098F0A3E09912279B401E9090637808A0
:1027800012174F8A828B8378081216EE8E828F83FF
:10279000E02420F0A3E0344EF080A4F08E828F83FA
:1027A000C3E09420A3E0944E22EA2404F8E43BF929
:1027B000E8FEE9FF8C828D83A3A3A3A3E0F8A3E046
:1027C000F98E828F832274F5121967E9FE9005CE87
:1027D000E0FAA3E0FBEE29F8E433F9740028F5826F
:1027E000748F39F583E02AF508A3E03BF5097808F2
:1027F000121B0E90905F12176D1223B07402121804
:10280000A18A088B098C0A8D0B7410780812169017
:10281000AA08AB097F04021A1374F11219678A0C13
:102820008B0D8C0E8D0F74111218D7121B2574117D
:102830001218D7E02401F508A3E03400F509E4F507
:102840000AF50B780C79081215A190904F780812B0
:10285000174F780C79081215A1AA0CAB0DAC0EAD70
:102860000F1223B074021218A18B09EA4509600403
:102870007A0180027A00EC2AFCE43DFD7413121800
:10288000D7E0F8A3E0F9E8FEE9FFECF8EDF97A719A
:102890007B0212180088088909E4F50AF50B8E827C
:1028A0008F83780812175EECF8EDF97A717B0212CB
:1028B00018008A088B09740578081218788E828FA0
:1028C00083A3A3A3A3E508F0A3E509F07F08021AF8
:1028D00013C2AF02000022C082C083E9906000F002
:1028E000D083D08222020132FFFFFFFFFFFFFFFFF4
:1028F000C082C083E990167FF0D083D0820201327B
:1029000074F61218FBE99003AAF0900444E0F5086D
:1029100075090074027808121878AA08AB09121118
:10292000639003AB1239BA9003AB1236BF606F905D
:102930000444E075F003A4FAABF01211639003C8ED
:102940001239BA9003C81236BF700B9003AB12361F
:102950009012116980489003C81246147AFF7BFFD9
:102960001209957A0080198A08750900740278089E
:102970001218781240BC74FF122AB3E4F0A3F00AD4
:10298000900444E0F8EAC39840DD79051208FF900E
:1029900003AAE0F91207EB7A897B09120CB3024112
:1029A0005F74F41218FB8A088B09EB54806047901F
:1029B00003AAE0F91210D98A0A8B0BAE0AAF0BEE0C
:1029C0004F602A8E828F83E064B0701A120911E979
:1029D00060148E828F83A3A3A3A3E0F9EE2405FAEB
:1029E000E43FFB1208E1EEFAEFFB1210C7AA08E57C
:1029F000096480FB80047A007B00022C0374F212CD
:102A000018FB74FB12188BEAFEEBFFEE4F60457467
:102A1000031218D7EEF0A3EFF0851882851983EC26
:102A2000F0A3EDF074021218D7E9F0AA18AB19124E
:102A300007E5E9F508707574131218D7E0F50AA3D5
:102A4000E0F50BE50A450B60638E828F8312304CF4
:102A5000EE4F700575080280537A067B00121163F1
:102A60008A0C8B0DA80CA90DE84970057508138018
:102A70003B88828983E4122AB3EEF0A3EF122BCFB6
:102A8000E50AF0A3E50BF09003AE122BC89003AE5D
:102A90006017E0FCA3E08003EAFCEBFD8C828D83F1
:102AA000122BC870F38C828D83123CD7A908740551
:102AB000024894F0A31245F6A32274F21218FB897F
:102AC00008890C750D007403780C121878850C0AAF
:102AD000850D0B9003ADF09003AB123AE2122BC6BA
:102AE000602E1211697900801D890C750D00740229
:102AF000780C1218789003AB123F7B8882F583A381
:102B0000A3E4F0A3F009900444E0F8E9C39840D9A5
:102B1000900444E0FA850AF0A4CAA8F0850BF0A45A
:102B200028FB1211638A0C8B0DAE0CAF0DEE4F70AB
:102B300003022BBC900444E0FC850AF0A4CCA8F06E
:102B4000850BF0A428FD79001210AF7C0080318D38
:102B50000C750D007403780C1218788A828B83121E
:102B60002BC188828983E4F0122BCEA3A3F0A3F0BB
:102B70000DEDC3950840D8EE250AFEEF350BFF0C8E
:102B8000900444E0F8ECC39850288C0C750D007448
:102B900002780C1218789003AB122BC1E824025073
:102BA0000109FAE9FB8A828B83EEF0A3EFF07D0046
:102BB00080BFE5089003ADF07900800279130248E8
:102BC00097123F7FF922A3A3123694EA4B22A31255
:102BD00045F6A3A3A32274F41218FB7900EAA2E03D
:102BE000501F7508F675098F7808121B0E79107C36
:102BF000047D007A817B161208F974021218A1E98B
:102C0000F980007F040219CDC082C0839003AE1208
:102C100036BF601C88828983A3A3E06A7003A3E0A7
:102C20006B8882898370E8A3A3A3A31236908004E3
:102C30007A007B000228F974F21218FB74FD121856
:102C40008BEAFEEBFF851882851983E4F0A3F0740C
:102C5000021218D77401F01236BC7014120BED1268
:102C600011639003B11239BA1236BC7003022DE021
:102C70001233D4EE2404F50AE43FF50B850A82F5FD
:102C800083E024FE604224FC7003022D0D24FE70BC
:102C900003022D1B24FE7003022D2824FE70030264
:102CA0002D3524FE7003022D4224FE7003022D4FA9
:102CB00024FE7003022D5C24FC7003022D7D24FE93
:102CC0007003022D95022DD9120BED9003B312392A
:102CD000BA7CB37D0385088285098312369012047D
:102CE00061E96003022DD99003B3121B258E828FF8
:102CF00083A3A3A3A3A31246148508828509831284
:102D000036901208C974021218A1022DD9AC18AD60
:102D100019EEFAEFFB120917022DA0AC18AD19EE4F
:102D2000FAEFFB12091D8078AC18AD19EEFAEFFB33
:102D3000120923806BAC18AD19EEFAEFFB120929CA
:102D4000805EAC18AD19EEFAEFFB12092F8051AC82
:102D500018AD19EEFAEFFB1209358044740212180F
:102D6000E1880C890D780C121B0E74021218F1EE1A
:102D7000FAEFFB12093B74021218A18023AC18ADC4
:102D800019EEFAEFFB120941E9F8701674021218F5
:102D9000D7E4F08044AC18AD19EEFAEFFB12094706
:102DA000E9F8E860348E828F83A3E06414602A859A
:102DB0000A82850B83E09003B3F08518828519831E
:102DC0001236901239B7E8A3F07CB37D03850882F0
:102DD00085098312369012045BEEFAEFFB12089F0E
:102DE00074021218D7E0F9740302489474E81218B8
:102DF000FB74FA12188B74041218D7ECF0A3EDF0E0
:102E00008A128B13EA2405F50EE43513F50FEA2434
:102E100002F510E43513F511851082F58312369012
:102E20001205518A0A8B0B7508007C037D0079001E
:102E30007AB37B031210AFE50E2402F516E4350FCA
:102E4000F51774021218E1880C890D780C121B0E0C
:102E5000850E82850F83A3A3A3A3E0F50C750D0057
:102E6000780C121B0EE50E2405F50CE4350FF50D5C
:102E7000780C121B0E85168285178312398B120867
:102E80000374061218A18A0C8B0DE50C450D700316
:102E90000230158020851882851983E08882898315
:102EA000F00508851882851983A3E0C0E01230562A
:102EB000D0E0F00508E50A24FBFAE50B34FFFBC37C
:102EC000E5089AE49B40030230157E007F008512DE
:102ED00082851383A3A3A3A3E0F5097809121B122B
:102EE000E4F514F5157814121B0E7514B07515035E
:102EF0007814121B0E9003B1121B2574091218D7F7
:102F0000121B25E50A24F9F9AC0CAD0D851082855C
:102F1000118312369012097174091218A1E9600325
:102F2000022FB6850E82850F83A3A3A3A3A3A3A319
:102F3000E0F89003B0E068707DE0F5148E15781429
:102F4000121B0E124611850E82850F83A3A3A3A325
:102F5000A3A3A3A31236901210A974021218A1E918
:102F600060549003B41236BF7043E4F51478141221
:102F70001B0E7CFF7DFF7907851082851183123639
:102F8000901208DB74021218A18A148B15A814A9D8
:102F90001512306B7017850E82850F831247AE7441
:102FA000041218D712406F1239AB023049850C82D7
:102FB000850D8312304CA818A91988148915781426
:102FC000121B0E74041218D7121B25851682851742
:102FD000831232CF12080F74041218A18A0C8B0DC1
:102FE000EE4F7003022E8A123056EE123061123903
:102FF00072EF123061F8A3E03400F9E50C450D6082
:1030000003022E958882898374FFF00508123056DA
:1030100074FFF00508E508601A1313543F1232D705
:1030200012046DE960099003B412369012112179EF
:10303000008016850E82850F831247AE7404121825
:10304000D712406F123CD7790A023945A3A3A3A334
:10305000E0FEA3E0FF22A8089003B4E02812397232
:1030600022F00508089003B4E028229003B4E8F0A9
:10307000A3E9F0E8492274E81218FB74FA12188BDD
:1030800074021218D71239BA74041218D7ECF0A3CC
:10309000EDF074021218D7E0240512395BE0F50C4C
:1030A000A3E0F50D74021218D7E02402F510A3E096
:1030B0003400F511851082F5831236901205517592
:1030C0000800750900EA24FCFEEB34FFFF800805C8
:1030D0000CE50C7002050DA808C3EE98EF940050A3
:1030E0000302328BA818A919880E890F780E121BBB
:1030F0000E851482851583A3A3A3A3124618121B61
:103100000EE5142405F50EE43515F50F780E121BA7
:103110000E8514828515831232CD120803740612AF
:1031200018A18A0E8B0FEA450F700302328BEA2436
:1031300004F516E4350FF517851682F583E0F50CD6
:10314000A3E0F50D8518828519831246148A828BB7
:1031500083A3A3A3E0F98510828511831236901210
:1031600007F1E9F509600302328B74021218D712D5
:103170003982F5097809121B12E4F512F513781259
:10318000121B0E7512B07513037812121B0E9003EA
:10319000B1121B2574071218D7121B25EEF9AC0EBD
:1031A000AD0F851082851183123690120971740952
:1031B0001218A1E9F509600302328BE508704AE4B0
:1031C000F50EF50F780E121B0E7CFF7DFF79098539
:1031D00010828511831236901208DB74021218A136
:1031E0008A0E8B0FA80EA90F9003B512306E700DCA
:1031F00074041218D71232C279110232BF9003B090
:10320000E024029003B4F080149003B4E0FA900339
:10321000B0E0790024025001096A497072A8089050
:1032200003B0E0FAE82AFAE43400FBEE9AEF9B40A0
:103230005A851682851783E0C0E09003B512305B93
:10324000D0E0F00508851682851783A3E0C0E0086A
:103250009003B512305BD0E0F005089003B0124641
:1032600018121B0E124611A80812394F121097742B
:10327000021218A19003B0E02508F50874FF650C50
:10328000700474FF650D60030230CFE508601F9085
:1032900003B4E0F5F0E508841232D7120473E96054
:1032A000099003B512369012112179008011E509B9
:1032B000700375090A74041218D71232C2A90902E0
:1032C0003945123AE6E50CF0A3E50DF022A3A3126E
:1032D00048A3AA0CAB0D229003B3F07CB37D038509
:1032E00010828511831236942274EC1218FB74FC40
:1032F00012188B123DE774021218F112368A120866
:10330000098A0C8B0DEA450D70030233C41233D4C5
:10331000A818A919881089117810121B0E7CFF7D3E
:10332000FF790B8508828509831236901208DB74B9
:10333000021218A11239B3EA4511700C850A828570
:103340000B831239A80233D18E828F83A3A3A3A348
:10335000E0F5127812121B12E4F512F5137812122E
:103360001B0E7512B37513037812121B0E78101210
:103370001B0E74091218D7121B2574091218D7E0F6
:10338000F9AC0CAD0D8508828509831236901209BF
:103390007174091218A1E9FE70157CB37D038508CC
:1033A00082850983123690120479E97009802074AD
:1033B000166E70027E009003B4123690121121EE48
:1033C0007004800B7E01850A82850B83123CD4EE4B
:1033D000F9023CE9EE2402F508E43FF5092274EC19
:1033E0001218FB74FC12188BEAFEEBFF8C0E8D0F8B
:1033F000EE2405F508E43FF50974021218F185087A
:10340000828509831236901208098A0C8B0DEA45D1
:103410000D70030234BDEE2402F50AE43FF50BA85B
:1034200018A919881089117810121B0E7CFF7DFFD6
:10343000790D12368A1208DB74021218A11239B300
:10344000EA4511700B8508828509831239A8807AB4
:103450008E828F83A3A3A3A3E0F5127812121B120E
:10346000850882850983A3A3121B257512B37513E2
:10347000037812121B0E7810121B0E74091218D743
:10348000121B2574091218D7E0F912368612097139
:1034900074091218A1E9FE700F7CB37D0312368AFD
:1034A00012047FE97009802074166E70027E00900D
:1034B00003B4123690121121EE7004800B7E018548
:1034C0000882850983123CD4EEF9023CE974E812C3
:1034D00018FB74FE12188B8A168B178C148D15EA44
:1034E0002405F50CE43517F50DEA2402F50EE43554
:1034F00017F50F850E82F5831236901205518A0852
:103500008B09750B007C037D0079007AB37B031275
:1035100010AF750A00E50814F5100424FFF508E55E
:103520000934FFF50980549003B3E0FA9003B0E04A
:10353000F8EA28F8E43400F9E50898E50999500D0F
:103540009003B3E0F8E510C3989003B0F0E0F512F3
:103550007513007812121B0E1246119003B4E02A64
:10356000FAA3E03400FB12109774021218A1900322
:10357000B0E0F89003B3E028F0050A850C82850DD1
:1035800083A3A3123F8B400302366B9003B3E0C3C7
:103590009508E49509400302366BAE0AEE2EFEE470
:1035A00033FF1236AAAC18AD1912462CE439FB12BF
:1035B00008098A128B13AC12AD13EC4D701B750BFE
:1035C0000112369A123CD89003B4122BC860031231
:1035D0001121A90B7402023947851682851783A32E
:1035E000A3A3A3E0F50B780B121B12E4F512F5135D
:1035F0007812121B0E7512B07513037812121B0E7F
:103600009003B1121B2574071218D7121B25A9109D
:10361000850E82850F831236901209717409121873
:10362000A1E9F50B709B9003B41236BF600302351D
:1036300027E4F512F5137812121B0E7CFF7DFF793B
:103640000F850E82850F831236901208DB740212EA
:1036500018A18A128B13A812A91312306B600302EF
:10366000352712369A1239AC0235D47CB37D0385E6
:103670000E82850F83123690120485E960030235AD
:10368000C779000235D4AC0CAD0D850A82850B8359
:1036900012369422E0FAA3E0FB221236AAE0FAA343
:1036A000E0F9EA85148285158322850C82850D83D5
:1036B000E02EF8A3E03FF988828983229003B112BB
:1036C00047B2E8492274E81218FB74FA12188B7496
:1036D000041218D71239BA8C168D1774041218D721
:1036E000E02405F50EA3E03400F50F74041218D79A
:1036F000E0240212395B1236901205518A0A8B0BB4
:103700007F007E00A818A919880889097808121B6B
:103710000E850E82850F83A3A3A3A3E0F5088E096F
:103720007808121B0EE50E2405F508E4350FF5099F
:103730007808121B0E850E82850F83A3A312398B86
:1037400012080374061218A18A0C8B0D80291239F5
:103750007CF00F12397CF00F9003B0123CC1121BA9
:103760000E124611EFF812394F1210977402121808
:10377000A19003B0E02FFFE50C450D700302380067
:10378000851882851983123DF9A3A3A3E0F9851456
:10379000828515831236901207F1E9FEE50C2404A8
:1037A000F510E4350DF511EE705074041218D712AF
:1037B0003982F5087808121B12E4F508F509780833
:1037C000121B0E7508B07509037808121B0E9003C2
:1037D000B1121B2574071218D7121B25E50A24FA0B
:1037E000F9AC0CAD0D851482851583123690120943
:1037F0007174091218A1E9FE6039123998123CD788
:10380000EF70030239329003B4E0F5F0EF849003D7
:10381000B3F07CB37D038514828515831236901234
:10382000048BE960099003B51236901211217900DA
:103830000239458F08EF7046E4F512F5137812123D
:103840001B0E7CFF7DFF791185148285158312364E
:10385000901208DB74021218A18A128B13A812A905
:10386000139003B512306E70091239981239AB02F9
:1038700039459003B0E024049003B4F08035900300
:10388000B0E0F89003B4E0FAE82404FCE43400FD6E
:10389000EC6A4D6003023806E50A24FAFAE50B34B7
:1038A000FFFBE50828F8E43400F9EA98EB995003A7
:1038B000023806851082851183E0C0E09003B5E0F0
:1038C0002FF8A3E034008882F583D0E0F00F851054
:1038D00082851183A3E0C0E0123969D0E0F00F7453
:1038E000021218E1880889097808121B0E74021266
:1038F00018D7121B25850E82850F831232CD120830
:103900000F74041218A18A0C8B0DEA450D70030286
:10391000374E74021218D7E0C0E0123969D0E0F0D7
:103920000F74021218D7A3E0C0E0123969D0E00288
:103930003756EE70027E0A850E82850F8312399EFD
:10394000123CD7EEF974061218A17F100219CD901F
:1039500003B5E028FAA3E03400FB22F514A3E03419
:1039600000F515851482F5832212396D229003B576
:10397000E02FFAA3E034008A82F5832212396D74B5
:10398000FF22123AE6A3A3A3A3E0221248A3850EC6
:1039900082850F8312369422851082851183124707
:1039A000B285168285178322123CDDE8F0A3E9F088
:1039B0007911228A108B119003B4EAF0A3EBF02264
:1039C00074EA1218FB74FE12188B8A088B098C1289
:1039D0008D13EA2405FEE43509FFAC18AD198E827B
:1039E0008F831236901208098A0C8B0DEE2406F58F
:1039F0000EE43FF50FEA450D7003023AB8E50824DE
:103A000002F50AE43509F50B8A828B83A3A3A3E0B0
:103A1000A2E550288518828519831236901209650F
:103A20008A108B11EA4511602079121236868510B2
:103A3000828511831218F9E9F50C707F850E828555
:103A40000F83E0600979528011750C0E806D850836
:103A500082850983A3A3A3A3E0F9E4F508F5097817
:103A600008121B0E8E828F83A3A3E0F5087808123C
:103A70001B0E8E828F83A3A3A3121B258E828F839E
:103A800012461412368A12097774061218A1E9F543
:103A90000C7011850E82850F83E0702D12368A120C
:103AA000049180257416650C7011750C0074181241
:103AB00018D7123AE2E48010750C011247AA851259
:103AC00082851383E8F0A3E9F0850E82850F83E0F9
:103AD000600479008002A90C74021218A17F0E0202
:103AE00019CD123AE622E0F8A3E0F5838882227429
:103AF000EC1218FB74F712188B8A0A8B0B8C108D42
:103B000011EA2405FEE4350BFF750C00AC18AD1965
:103B10008E828F831236901208098A088B09EA4533
:103B2000097003023CACE50A2402F50A5002050BB9
:103B30008A828B83A3A3A3E0A2E5502F85188285F8
:103B400019831236901209658A0C8B0DEA450D60B7
:103B50004F7912AC08AD0912368A850C82850D8327
:103B60001218F9E9F50C6003023CAF850A82850B57
:103B700083E0F508A3E0F509AA08FB120959EA4B0E
:103B800070197AFF7BFF120959EA4B7003023CA2BD
:103B90008A828B83E508F0A3E509F07508008008A8
:103BA000750C0E023CAF05089003ADE0F8E508C3C4
:103BB000984003023CA285080E750F007403780E2E
:103BC0001218788A828B83A3A3E0250EF8A3E03530
:103BD0000F12407870D08E828F831236908882893F
:103BE000831239BA8E828F83A3A3123CCA1239BAC8
:103BF000EE2404F508E43FF509850882F583E088A2
:103C0000828983A3A3A3A3F0A3E4F0EE2405F50E19
:103C1000E43FF50F850E82F583123CCAA3A3A3A34C
:103C20001239BA7512077513007812121B0EEEFCCA
:103C3000EFFD74041218E912109774021218A1E42F
:103C4000F5127812121B0E850882850983E0FC7D2F
:103C500000791712368A1208DB74021218A1740751
:103C60001218D71239BAEA4B603D8508828509835C
:103C7000123CC1121B0E850E82850F831246141250
:103C8000109774021218A174021218F112368A12D7
:103C90000497E9602674071218D712369012112182
:103CA0008019750C098008750C118003750C0112C0
:103CB00047AA851082851183123CD7A90C7409800C
:103CC0002AE0F5087509007808221236948882895E
:103CD00083A3A322123CDDE8F0A3E9F022E0F8A3DD
:103CE000E0F9850E82850F832274041218A17F0CDF
:103CF0000219CD74EC1218FB123DE7751000EE248A
:103D000002F50CE43FF50D850C82F5831236901216
:103D100009598A088B09EA45097003023DCB850AD7
:103D200082850B83E064016003023DC0AC08AD09ED
:103D3000AA0AAB0B12094DE9606E850882850983DA
:103D400012304EEE2406F50AE43FF50B8E828F8387
:103D5000A3A3121B258E828F83A3A3A3A3121B25CB
:103D6000850A82850B83121B2579188E828F831218
:103D70003DF912369012097774061218A1E9F87409
:103D80001668700B850A82850B83E4F0A38014E823
:103D900060128E828F83123690850E82850F83EAA1
:103DA000F0A3EBF088108018780E121B0EAC08AD53
:103DB00009EEFAEFFB12095374021218A1E9F5108B
:103DC000AA08AB0912095FE510700E850C82850DFB
:103DD0008312369012049D80097416651070037565
:103DE0001000A910023CEEEAFEEBFF8C0E8D0FEEE8
:103DF0002405F50AE43FF50B221248A3850C8285C1
:103E00000D832274EA1218FB7508007509007E0004
:103E10007F00750A00EC2402F510E43DF5118035B1
:103E2000EC65087003ED65096003023EB88882897D
:103E300083A3A3E06A7003A3E06B707C888289830C
:103E4000A3A3A3A31247AEEE28FEEF39FFEA28FA98
:103E5000EB39FB050A123F88503A850A0C750D00B4
:103E60007403780C121878851082851183123F7BB9
:103E7000124078601FE508450970A58C088D0988F7
:103E800082898312304C88828983A3A3E02EFAA30F
:103E9000E03F80BEE50AC394025003023F767508F6
:103EA00000750900EE4F6010EEFAEFFB12111B8A4D
:103EB0000E8B0FEA450F70057900023F78750B00F5
:103EC000023F4B850B0C750D007403780C121878AB
:103ED000851082851183E0250CF50CA3E0350DF5E6
:103EE0000DE50C2406F514E4350DF515851482F561
:103EF0008312407D6042E50C2404F512E4350DF593
:103F000013851282F583121B25E50E2508FAE50FAD
:103F10003509FB12109774021218A18512828513BD
:103F200083E02508F508A3E03509F50985148285A5
:103F30001583123690121121E50B600D7C087D006F
:103F40007900AA0CAB0D1210AF050BE50BC3950A57
:103F50005003023EC38510828511831247AE8882CA
:103F60008983A3A3A3A3A3A3E50EF0A3E50F122BBC
:103F7000CFEEF0A3EFF07901023ADD123F7F22E0AD
:103F8000250CF8A3E0350D229003ADE0F8E50AC357
:103F9000982274F01218FB8A0E8B0F8C0A8D0B7509
:103FA0000D00750C0080507916EE2406F508E43FEC
:103FB000F5098E828F83A3A3121B258E828F83A384
:103FC000A3A3A3121B25850882850983121B2585BF
:103FD0000E82850F83A3A3123690120977740612FE
:103FE00018A1E9F50D7416650D706C8508828509B8
:103FF00083E4F0A3F0050C9003ADE0F8E50CC39862
:104000005066AA0C8A08750900740378081218789B
:10401000850A82850B83A3A31240C7E8FEE9FF8EC1
:10402000828F8312407D6040EA2401F508E4340069
:10403000F5099003ADE065087002E5096014888217
:104040008983A3A3A3A3A3A3A3A31236BF600302E0
:104050003FA77918023FA9E9609B1247AA74101282
:1040600018D712406F123CD7A90D7F080219CDE076
:10407000FAA3E0F5838A8222F9888289831248A311
:10408000EC4D2274F61218FB7C0080010C90044465
:10409000E0F8ECC398501E8C08750900740278088B
:1040A0001218781240BCE06A7003A3E06B70DDE880
:1040B000FAE9FB80047A007B0002415F9003AB12B7
:1040C00040C78882898322E02508F8A3E03509F9F2
:1040D0002274F21218FB8A088B09750A0080278E59
:1040E000828F83A3A3A3A3122BC660031211217C8A
:1040F000087D007900EEFAEFFB1210AF8E828F83FD
:10410000E4F0A3F0050A123F885027850A0C750DCC
:10411000007403780C121878850882850983A3A39C
:10412000E0250CFEA3E0350DFF8E828F831236BF93
:1041300070AD85088285098374FFF0A3F00248976B
:1041400074F61218FB12090B8A828B83E582458371
:1041500070067A007B008007A3A3A3A31236907F8A
:10416000020219CD74F41218FB89088C828D83E049
:104170006402703C12474DFEA3E0F9EEF874026849
:1041800070037429697029750A02750B00780A1288
:104190001B0E74101218D7121B2574101218D71288
:1041A0001B25A9081209A774061218A1E9F98002B3
:1041B0007901022C0374E81218FB74FB12188BE9C6
:1041C000851882851983F08A168B17ECFEEDFF7532
:1041D00010008E828F83A3A3A3E0A2E4502D741D50
:1041E0001218D71236901209658A828B83E58245B0
:1041F0008370030245EC790AEEFCEFFDAA16AB17BB
:104200001218F9E9F51060030245EF741F1218D770
:10421000E0F508A3E0F50974211218D7E0F50AA328
:10422000E0F50B74231218D7E0F50EA3E0F50F8E1E
:10423000828F83E06402600302458DA31247AE853E
:104240000882850983A3858212858313EE2406F5EF
:104250000CE43FF50D8882898312462CF514E4396D
:10426000F5157814121B980100002801288F4207C9
:1042700000022854430328C242002983440129AE86
:104280004402294F4403298344042927458D45E5E9
:104290000E450F6003024588850C82850D83124709
:1042A000AEE8FAE9FB8A828B83E0850A82850B837C
:1042B000124637121B0E8A828B83A3E0FCA3E00216
:1042C0004511E50E450F6003024588850A82850B7E
:1042D000837401F0124621850882850983F07C00F1
:1042E0007D008E828F83A3A3A3A3E02401FAA3E021
:1042F0003400FB120809EA4B60408A828B83E02479
:1043000002F8850A82850B83E028F0EA2404F8E4A9
:104310003BF988828983E0851282851383124645A2
:10432000124637121B0E8A828B83A3124614E508AD
:104330002403FAE43509FB024516850A82850B83BE
:10434000E02404F07C047D007900AA12AB13121063
:10435000AF0245EFE50E450F600302458812462186
:10436000FEA3E0FF850A82850B837404F0EE8508C6
:1043700082850983F0EF851282851383F07403121E
:1043800018F1EEFAEFFB1208098A0C8B0DEA450DC5
:1043900070030244328A828B83A3A312304C7401CF
:1043A0001218E1880E890F780E121B0E7405121870
:1043B000D7121B257CFF7DFF12080F74041218A171
:1043C0008B0FEA450F7033850C82850D83124618DA
:1043D000121B0E850C82850D83A3121B257C027D8A
:1043E000007AC77B9012053F74041218A1E9700A85
:1043F00074011218D774FFF0A3F08E828F83E064EB
:10440000027039750C02750D00780C121B0E8E822D
:104410008F83A3124614E5082404FAE43509FB123D
:10442000109774021218A1850A82850B83E024027A
:10443000800974011218D7EEF0A3EFF0740112187E
:10444000D712460674011218D71245FD024582E5BF
:104450000E450F6003024588850C82850D83124846
:104460009CAA16AB171209AD850A82850B837402CC
:10447000F0850882850983EAF0851282851383EB33
:10448000024585E50E450F6003024588124621F876
:10449000A3E0F9850A82850B837402F0E88508821F
:1044A000850983F0E9851282851383024585850C91
:1044B00082850D83123690121091EAFAF8C3950E98
:1044C000E4950F405CE8650E450F70047A0080218A
:1044D000851882851983E0FCE50E2CFCE4350FFD80
:1044E000C3EC98ED94005003E08005E50ECAC39A32
:1044F000FAEA850A82850B83F08A0A750B00780A2E
:10450000121B0E850C82850D83E0250EFCA3E03581
:104510000FFDAA08AB0912109774021218A10245E8
:10452000EF7510070245EFE50E450F705B850C82B5
:10453000850D831247AE850A82850B837407F08848
:104540008289831245FE1245F6E085128285138327
:10455000F0E82402FAE439FB8A828B831246068A49
:10456000828B831245FDA3A3122BCE12460BF0E8DB
:104570002405F85001098882898312460BA312464C
:1045800045A3A3A3A3F0806775100B8062741D126E
:1045900018D712369012090B8A828B83E5824583E5
:1045A000604A1247AE880C890DE8450D603E7425BF
:1045B0001218D7E0F5107810121B12780E121B0E8D
:1045C000780A121B0E7808121B0E74071218D7E017
:1045D000F9EEFCEFFDAA16AB17850C82850D831250
:1045E00018F974071218A1E9F510800375100EA9C7
:1045F000107405023947F088828983A322A3E085DD
:1046000008828509832212464CF02212464CA3A34D
:10461000229003B11248A322E0F50E750F00780E28
:1046200022850C82850D83123AE6E022E0FAA3E0AF
:10463000F8E4C8F9EA2822F08A828B83E0F50A754B
:104640000B00780A221245F612464C22E0850882B9
:10465000850983A3A32274EE1218FB74FE12188B33
:104660008A088B09ECFEEDFF890AAC18AD19EEFA49
:10467000EFFB1208098A0C8B0DEA450D7003024707
:104680003E85188285198312369012090B8A828B17
:1046900083E58245837003024739A3A31247AE889E
:1046A0000E890FE8450F700302473974141218D7AA
:1046B000E0F510A3E0F511E50AF50B780B121B12DB
:1046C00074191218D7121B257810121B0E741B12A6
:1046D00018D7E0F9AC0CAD0DAA08AB09850E8285A0
:1046E0000F831218F974051218A1E9F50B705274B2
:1046F000FE650A604C850C82850D83E06402704182
:1047000012474DFAA3E0F9EAF874026870037429BD
:1047100069702E85108285118312462CF50CE439C0
:10472000F50D780C121B0EEEFCEFFDAA08AB09127A
:10473000098F74021218A18008750B0E8003750B87
:1047400001A90B74021218A17F0A0219CDA3124706
:10475000B288828983E02274F61218FB74FE121864
:104760008B740C1218D71247AEE88518828519830E
:10477000F074011218D7E9F0E4F508F50978081289
:104780001B0E7508027808121B0E74041218E188BB
:104790000889097808121B0E79FE1209777406122F
:1047A00018A174021218A102415F8E828F831247F2
:1047B000B222E0F8A3E0F92274F71218FBEAFEEB4C
:1047C000FF89089003C81246141209ADEA5402602A
:1047D0000BA908EEFAEFFB1207FD800279017F01B9
:1047E0000219CD74F21218FB74FE12188BEAFEEB5C
:1047F000FF890A7401650A60147402650A60030285
:1048000048927901120CD1E96003024892EEFAEF66
:10481000FB120959EA4B600312095FA818A919880D
:104820000889097808121B0E7508027509007808B6
:10483000121B0E7508BF7509907808121B0E7CFFBD
:104840007DFF7A017B0012080374061218A18038DC
:10485000850882850983A3A3A3A3A3A312489CEE82
:10486000FAEFFB120995E4F50CF50D780C121B0E0E
:1048700074021218D7121B257CFF7DFFAA08AB0912
:1048800012080F74041218A18A088B09E50845095B
:1048900070BE74021218A17F060219CD123AE612F8
:1048A00048A322E0FCA3E0FD2274F41218FB8A085E
:1048B0008B09ECFEEDFF90167FE0F4604B7A097BEC
:1048C000001210C1EA4B60408A828B8374B1F0A35E
:1048D000E412490BF08A828B83A3A3E508F0A3E5D9
:1048E0000912490BA3EEF0A3EFF0740C1218D712C3
:1048F00047AE8A828B83A3A3A3A3A3A3A3123CD70F
:1049000090167FE0F91210CD022C03F08A828B837F
:10491000A3A3A3A32274F01218FB74FA12188B89B4
:1049200009ECFEEDFF7508008A0A8B0B780A121B52
:10493000520004103B4B584976499049A849C64952
:10494000DE49014A194A2D4A574AD24AE34AFA4AED
:10495000154B3B4B3B4B6D4A740165096003024BA1
:10496000368E828F83E0F8C394034003024B36E80F
:1049700090160D024B12740265096003024B368ECD
:10498000828F8312529790160EE8F0A3E9024B1221
:10499000740165096003024B36124B684003024BF9
:1049A00036E89002C6024B12740165096003024B9F
:1049B000368E828F83E0F8C394054003024B36E8BD
:1049C0009002C7024B12740165096003024B361254
:1049D0004B684003024B36E89002C8024B12741039
:1049E00065096003024B36750A10750B00780A12D0
:1049F0001B0E7AC97B0212109774021218A1024B87
:104A00005C740165096003024B36124B6840030277
:104A10004B36E89002D9024B12740165096003021B
:104A20004B368E828F83E0901611024B1274046510
:104A3000096003024B368E828F83780C12174F90D9
:104A4000905F780C1215825003024B369002DB788F
:104A50000C12175E024B5CE96003024B361206EF44
:104A6000E97005120773805590036E8061740765C5
:104A7000096003024B36750A06750B00780A121B93
:104A80000E8E828F83A3AC82AD8374021218E9125A
:104A9000109D74021218A17C007D00AA18AB198E1B
:104AA000828F83E0F912071FE9FEC3940A400302D4
:104AB0004B591206EFE9700CEEF912077979501292
:104AC00011E1806D746F2EF582E43403F583740177
:104AD000804074016509705E124B685059E890027D
:104AE000DA802F74016509704D8E828F83E0F8C3E0
:104AF000940A5042E89016108018740165097036C7
:104B00008E828F83E0F874F928C3940A5028E890C5
:104B10001612F0804774016509701B90036DE0F870
:104B20008E828F83E090036DF0E87030E064017056
:104B30002B12076780267508188021C3EA9427EB9B
:104B40009400501574026509700F8E828F83125E77
:104B50006F12056FE9F5088003750802A90874064D
:104B60001218A17F080219CD8E828F83E0F8C394BA
:104B70000222A90880031218A17F040219CD74F043
:104B80001218FB74B112188B8C0A8D0B908FF07475
:104B9000201218F1740612179E74201218F11207D1
:104BA0001FE9FF745F1218D7E0F509EFC3940A40BC
:104BB00003024D0075F006EFA4F50874411218F1D8
:104BC0007A0E74202508F91211DBE97009744D1270
:104BD00018D7E0FE80027E0090160DE0640270059A
:104BE000750E018003750E00740865097004742247
:104BF000800274212508F50D7C1B7D007900742648
:104C00001218E91210AF74261218F17A1BA90D12AE
:104C100011DBE9702D74401218D7E024F9C3940A0F
:104C20005020E50EF50D780D121B1274271218F1A5
:104C3000EEA2E0E433F9AA0AAB0B120611740112DA
:104C400018A17C147D007900740C1218E91210AFC1
:104C5000740C1218F17A1074242508F91211DBE98A
:104C600070347C1079FF740C1218E9121115E97078
:104C700025741C1218D7AC82AD837A0474252508DC
:104C8000F91211DB740C1218F1EEA2E0E433F9AA68
:104C90000AAB0B1205F9AC18AD197A0C74702FF928
:104CA0001211DBE97049AA18AB1912074F7F00EF08
:104CB00075F003A4F8A9F0851882851983E5822888
:104CC000F8E58312544B12562C601D88828983A309
:104CD000A3E0F50E750F00780E121B0EAA0AAB0B9F
:104CE00012097D74021218A10FEFC3940440C0EEA4
:104CF000A2E1500C9002C5E0F9AA0AAB0B1209839D
:104D000074046509702890160DE064027020780024
:104D10009002D9E0600278019002C6E06005740458
:104D2000488001E8FEEEF9AA0AAB0B1206C579002D
:104D3000744F024B6074F71218FB1206EFE9704FC4
:104D400090036EE06401701512077390036EE4F037
:104D50007C0AFDF97A6F7B031210AF802A75080078
:104D6000A808746F28FEE43403FF8E828F83E0640A
:104D700001700BA9081207798E828F83E4F0050871
:104D8000E508C3940A40D979501211E1120767026D
:104D9000576474F01218FB74F012188BEAFEEBFFE4
:104DA0008C088D09750A0AE9600C14600914603BCF
:104DB00014607D024E88120761E9F50AC3940A4027
:104DC00003024E88E50845097003024E88750C06FB
:104DD000750D00780C121B0EEEFCEFFDAA08AB0956
:104DE00012109774021218A1024E88750C00750EED
:104DF00006750F00780E121B0EEEFCEFFDE50C752C
:104E0000F00EA4F8A9F074E728FA740239FB121026
:104E1000A974021218A1E9700B050CE50CC3940AE1
:104E2000506680CA850C0AE50AC3940A505A804924
:104E3000750C00AC18AD197A1075F006E50CA424B9
:104E400023F91211DBE9701C7C1079FFAA18AB1949
:104E5000121115E9700EEEFCEFFDAA18AB19120540
:104E6000D5E9600B050CE50CC3940A501B80C48582
:104E70000C0AE50AC3940A500FE50845096009AA1F
:104E800008AB09A90A12075BA90A7410024B6074E7
:104E9000F41218FB890975081574FF6A700374FF12
:104EA0006B70277E00AC097A027B00EEF912073D99
:104EB000E960037508000EEEC3940A40E8E5096056
:104EC000537A8B7B07120CF5804A120CC58A0A8B29
:104ED0000BAE0AAF0BEE4F60387C007D00EE240570
:104EE000FAE43FFB8E828F83A3A3A3A3E0F912070A
:104EF0001FE9F9C3940A500CAC097A027B0012072F
:104F00003D750800E509600CEEFAEFFB12078B8097
:104F100003750814024B7274F21218FBECFEEDFFDD
:104F2000750815740E1218D7E0F50AA3E0F50B7496
:104F3000FF6A700374FF6B7021750900AC0AAD0B3A
:104F4000EEFAEFFBA909120743E9600375080005B3
:104F500009E509C3940A503F80E2120CC58A828B8E
:104F600083E5824583602D7C007D00E5822405FA7F
:104F7000E43583FBA3A3A3A3E0F912071FE9F9C358
:104F8000940A5013AC0AAD0BEEFAEFFB120743750F
:104F900008008003750814A908025C67C082C083FA
:104FA0009002DFEAF0A3EBF09002C5E0FC7D007A0E
:104FB000267B0012056F9002C5E0F91208E7025B3C
:104FC0000F74EE1218FB74EC12188B8A088B09EA26
:104FD000240CF510E43509F5118A828B83A38582B0
:104FE0000C85830DEA2405F50EE43509F50FEA2456
:104FF00009F50AE43509F50BEA2403FEE43509FF57
:105000008A828B83A3A3E024FA700302528524FDD5
:1050100070030251A514700302509F14601024FD08
:1050200070030251881470030251DD02528B125E2C
:10503000756044E0F5838882125297880C890DE8E8
:10504000450D6033851082851183E0F50E780E12D0
:105050001B12EA240BF582E43509F583E0F9125EB0
:10506000690A0A0AEFFB850C82850D831218F97410
:10507000011218A102528B850A82850B83121B250F
:105080009002DB12176D12060B74021218A1E97060
:105090000302528B7901850A82850B830252557572
:1050A0000A00850C82850D83E06003025155850E50
:1050B00082850F83E0A2E0400302515590037912EC
:1050C0005E7860030251557C0E7D007900AA18AB12
:1050D000191210AF851082851183125ADAEA4B60DB
:1050E00010750A06750B00780A121B0EEA24108050
:1050F0001B125AD6120CC5EA4B700302528B750A6A
:1051000006750B00780A121B0EEA2405FCE43BFD31
:1051100074021218E912109774021218A1850E82F7
:10512000850F83E0A2E25004D2F08002C2F0A2F028
:10513000E433F8740C1218D7125C7A120755E97030
:10514000117A027B009002C5E0F91210F179000299
:10515000528D750A15125E75700302528B1252AC95
:10516000700302528B850C82850D83E0FC7901125D
:10517000529D1218F9E50A700302528BFC79031252
:105180005AD6125A96025280125E75700302528BE2
:105190001252AC700302528B850C82850D83E0FCA9
:1051A000790202527D7C007D00EA2404FAE435098C
:1051B000FB8E828F83E0F912071FE9F8C3940A403F
:1051C0000302528BE508240AFCE43509FD7A0475D4
:1051D000F006E8A42425F91211D502528B125AD6F2
:1051E0009002DAE06007901610E0F9806B90160DDF
:1051F000E0700479058061120CC58A0C8B0DA80C37
:10520000A90DE849700302528BE82404F50CE43937
:10521000F50D850882850983A3A3A3A3A3A3A3E017
:10522000A2E05039850C82850D83E0F508602E855B
:105230000A82850B83A3E054027022740E1218F1C7
:10524000E82405FAE439FBA90812071FE9700E7972
:10525000038E828F83125ADA120605802EAC0EADB1
:105260000F850C82850D83E0F9125AD6120797122A
:105270005E7560171252AC60127C00790012529D6C
:105280001218F98006125AD61207197901741412ED
:1052900018A17F0A0219CDE0F8A3E0F9228E828FCF
:1052A00083E0FAA3E0FB888285098322125AA4F9DD
:1052B0008909E845092274F51218FB74F212188B5B
:1052C000EAFE8C0A75F006E9A42420F508AC18ADB6
:1052D000197A0EF91211DBE970467C0679FFAA18DB
:1052E000AB19121115E97038740C1218D7125ADA6A
:1052F000EAF8E50A6005EEC8488004EEF4C858F8FC
:10530000EA687001EB6015740C1218D7E8F0A3E49A
:10531000F0AC18AD197A0EA9081211D579018002E6
:105320007900740E1218A17F030219CD74F21218BD
:10533000FB74E612188B890A8A088B09ECFEEDFFD4
:10534000740C1218F17A0E75F006E9A42420F912F3
:1053500011DBE960030254117C0679FF740C12180A
:10536000E9121115E960030254117470250AF50B56
:10537000AC18AD197A0CF91211DBE9600302540D77
:10538000AA18AB1912074FE5084509701D7C0C7966
:1053900000AA18AB19121115E970727C0C7D007906
:1053A00000AA18AB191210AF8051AC18AD19AA0899
:1053B000AB091207498A0C8B0DA80CA90DE849709E
:1053C00022EE4F604CAC18AD197A007B00120749F1
:1053D000EAF8EBF9EA4B603988828983E508F0A3A3
:1053E000E509F0125487FAEE6A7001EF601FEEF0E3
:1053F0004F700888828983E4F0A3F0AA18AB1912D1
:10540000074FAC18AD197A0CA90B1211D579018090
:10541000027900741A025C6474F71218FB7E00EEC5
:1054200075F003A4F8A9F0EC28F8ED12544BE06AEB
:105430007003A3E06B7006E8FAE9FB800B0EEEC385
:10544000940440DB7A007B0002576439F988828932
:10545000832274F71218FB7C00EC75F003A4F8A902
:10546000F0EA28F8EB12544BE0F4FEA3E0F4FF88D6
:10547000828983EEF0A3EFF0125487F4F00CECC3B2
:10548000940440D5025764E82402F582E439F58398
:10549000E02274F41218FB74F412188BEAFEEBFF8E
:1054A0008C088D09900379125E78704FEE4F70036F
:1054B00002560BEC4509700302560B120761E99086
:1054C0001613F0C3940A4033750B007C0679FFE590
:1054D0000B75F00EA4FAABF074E12AFA74023BFBF0
:1054E000121115E9600302556C050BE50BC3940A14
:1054F00040D9750A0AE50A901613F0901613E0C316
:10550000940A400302560B75F006E0A4FB90037961
:10551000125E78705CEEFCEFFD7A0E74202BF912AF
:1055200011D57C0C7D0079FFAA18AB191210AFAC15
:1055300018AD197A0C901613E02470F91211D57574
:105540000A0E750B00780A121B0EEEFCEFFD90168A
:1055500013E01256C412109774021218A190037926
:10556000E508F0A3E509F0790002560D850B0A80E5
:1055700084E0C8240612562660197A1B74212BF980
:105580001211D51256122406F582E438F583E4F0A0
:10559000A380D3125612240A12562660107A1B7466
:1055A000222BF91211D5125612240A80DB12561240
:1055B000240C12562660107A1074232BF91211D580
:1055C000125612240C80C112561B12562660307AD5
:1055D0001074242BF91211D512561BF582E438F5FC
:1055E00083E02410FCA3E03400FD7A0475F00690FB
:1055F0001613E0A42425F91211D512561B808990A8
:10560000036DE060031207A31207917901740C0285
:105610004B76900379E0F8A3E0C822900379E0F894
:10562000A3E0C8240822F582E438F583125E6FEC0B
:105630004D2274F41218FB74F212188BEAFEEBFF81
:10564000E9C3940A5004EE4F700479028034AC1818
:10565000AD197A0E75F006E9A42420F91211DBE9E0
:10566000F508701C750A06750B00780A121B0E747B
:10567000021218F1EEFAEFFB12109774021218A141
:10568000A908740E024B7674F41218FBEAFEEBFFC5
:10569000750800750A06750B00780A121B0EEEFCE1
:1056A000EFFDE5081256C41210A974021218A1E900
:1056B0006004A908800B0508E508C3940A40D47962
:1056C0000A024B7975F00EA4F8A9F074E128FA7477
:1056D0000239FB2274F71218FB750800E50875F013
:1056E0000EA4F8A9F074E128FE740239FFEEFCEF75
:1056F000FD7A0E75F006E508A42420F91211DBE905
:1057000060297C067D0079FFEEFAEFFB1210AF7C7A
:10571000067D0079FFEE2CFAE43FFB1210AFEE2479
:105720000CF582E43FF583E4F0A3F00508E508C337
:10573000940A40A890036DE060031207A31207913A
:10574000802274F71218FB7E007F007C06EF125651
:10575000C474FFF9121115E970010E0FEFC3940A1A
:1057600040E9EEF97F010219CD74F71218FB7E00B3
:10577000EEF9120779E9F90EEEC3940A5003E960D5
:10578000EF80E174F31218FB74CB12188B89089028
:105790001613E06508701B7A017B009002C5E0F9E2
:1057A0001210F77A027B009002C5E0F91210F7128E
:1057B00007AF901614E0650870127A047B0090021F
:1057C000C5E0F91210F7901614740AF075F006E5AA
:1057D00008A4FF74202FFE74271218F17A0EEEF938
:1057E0001211DBE960030258A57C0679FF742712C9
:1057F00018E9121115E960030258A57C0E7D0079A5
:10580000FF74271218E91210AF7C1B7D0079FF741A
:105810000C1218E91210AF7C0C7D0079FFAA18ABAE
:10582000191210AF74271218F17A0EEEF91211D571
:10583000E9FE740C1218F17A1B74212FF91211D59C
:10584000E9F509740C1218F17A1B74222FF9121160
:10585000D5E9F50A740C1218F17A1074232FF91295
:1058600011D5E9F50B740C1218F17A1074242FF984
:105870001211D5E9F50C740C1218F17A0474252F65
:10588000F91211D5E9FFAC18AD197A0C747025081E
:10589000F91211D5E9F8E509450A450B450C4F48C1
:1058A000CE4EFE80027E00EEF974351218A17F05FF
:1058B0000219CD74F71218FBE99002C5F0120767C0
:1058C0007A157B161207C702576474F21218FB741C
:1058D000F212188BEAFEEBFF5480700302598F908E
:1058E00002C5E0F91210D98A088B09EA450970034C
:1058F0000259877A01E5082405F50AE43509F50B14
:10590000E5082404F8E43509F9880C890D85088236
:105910008B83E02450603614600624E16058805D7B
:1059200088828983E070598508828B83A3A3A3A30F
:10593000A3A3A3121B25125E698508828B83A3A3F0
:10594000125ADA12072B74021218A1803388828946
:1059500083E0641E700F79008508828B83A3A312F5
:105960005ADA120725850C82850D83E0F9AA0AAB65
:105970000B1208E1800AAA08120737E9FAEA600761
:10598000AA08AB091210C7EEFAEF6480025A8AEE39
:1059900054026026EE6402FE7C007D007A007B00EB
:1059A000120755E960047A0180027A027B009002B6
:1059B000C5E0F91210F1EE025A88EEA2E0505564EB
:1059C00001F508EFF509125AB41207A9E96033127C
:1059D0005E756029125AAC125297E8FEE9FFEE4F4D
:1059E000601B7C007901125AB48E828F831218F9E1
:1059F0007C007903125AB4125A961218F91207AFA2
:105A0000800C7A017B009002C5E0F91210F1AA081F
:105A1000AB09807D54046075901614E0C3940A505D
:105A200064E0F50875F006A42420F509AC18AD195A
:105A30007A0EF91211DBE970467C0679FFAA18ABE1
:105A400019121115E97038750A06750B00780A12DB
:105A50001B0EE50875F00EA4F8A9F074E728FC7495
:105A60000239FD74081218D7AA82AB8312109774FA
:105A7000021218A1AC18AD197A0EA9091211D5900D
:105A80001614740AF0EE6404FAEFFB80047A007BCB
:105A900000740E025C649002DFE0F8A3125AA4F5D1
:105AA00083888222125AACE0F8A3E022E0F58388D2
:105AB00082A3A322900379125E59E0FAA3E0FB22AD
:105AC000C082C0839002C5E0F98A828B83A3125AF8
:105AD000DA12098380398E828F83E0FAA3E0FB22F9
:105AE000C082C08374FF12188B12076DE9C3940241
:105AF000851882851983400474028002740AF0AC10
:105B000018AD197A0179051207B574011218A1D0E0
:105B100083D08202013274F21218FB74E812188BDF
:105B2000EAFEEBFF890A8C088D097C187D0079005C
:105B3000AA18AB191210AF851882851983EEF0A34D
