:020000040000FA
:0600000002011A022206B3
:03002B00021AEBCB
:03003300021A703E
:0300530002227C0A
:03006B000219C8AF
:10008300022047E5C754F84401F5C779012200006F
:100093000080FB120086B90003020104E479217891
:1000A30008B800028004F709D8FCE479297802B87B
:1000B30000028004F709D8FCE4900281788A79135E
:1000C3008002F0A3D8FCD9FA781A90014A7A01BACF
:1000D30000028007E493A3F608DAF97A0A7B159005
:1000E300014B780B79048015E493A3AD82AE838A28
:1000F300828B83F0A3AA82AB838D828E83D8E9D9C6
:10010300E77582937583A9740412012C7582917526
:100113008300740012012C75D00075813F7518811E
:10012300751902759F00020096C09FF59FE473D076
:100133009F22D083D082C09FE493C0E0740193C018
:10014300E0740293F59F22010202020202020202FC
:1001530002010D0000001001022082010000D18184
:10016300021C820100000A15024282010000830280
:10017300021C820100000B150234820100005D8124
:10018300021C820100000C1502268201000041813D
:10019300021C820100000D15021A82010000DF809B
:1001A300021C820100000E150218820100009780D4
:1001B300021C820100000F15022A82010000CD807B
:1001C300021C820100001015023082010000BB8076
:1001D300021C820100001115022E820100004F81D2
:1001E300021C820100001215023E82010000131559
:1001F300FF0000B4000028002800283075A000A0EC
:1002030000A000A00000080008E001F000100010AA
:10021300001000100010001000500050005000109B
:10022300001000D0070000000000000F00010005CF
:1002330000307507001000010081FF00000000FF7F
:10024300FFFF6B067D0671068F06FF01E803057746
:10025300100A0A1F0702020208025000A000000051
:10026300E8030220820100001282021C82010000C6
:1002730017160240820100008103021C8201000064
:100283001816023C820100009703021C8201000041
:100293001916023A820100009903021C8201000030
:1002A3001A160238820800009A03021C8201000019
:1002B3001B160236820100001C16FF0100FF2002FC
:1002C30020820100000F82021C82010000801602BE
:1002D30032820000000000025282030000C80317AC
:1002E30000C10DC10DC10DC10DC10DC10DC10DC1A8
:1002F3000DC10DC10DC10DC10DC10DFFFFFF0001EA
:100303003075030201060000000000000000000039
:1003130000000000000000000000000000000000DA
:100323000000FFFF0600800CE803140953696D7099
:100333006C65424C455065726970686572616C0505
:100343001250002003020A000201060302F0FF53C9
:10035300696D706C6520424C452050657269706808
:100363006572616CCD100000D3100A43686172613D
:100373006374657269737469632031000243686151
:100383007261637465726973746963203200084330
:1003930068617261637465726973746963203300A1
:1003A3001043686172616374657269737469632071
:1003B30034000243686172616374657269737469BE
:1003C300632035000220820100001582021C820195
:1003D30000002C17024682030000F6140228820153
:1003E30000002D17021C820100003E170248820103
:1003F3000000F7140228820100003F17021C82014B
:1004030000005017024A82020000F81402288201F9
:1004130000005117021C820100006217024C820087
:100423000000F914025282030000FA140228820128
:1004330000006317021C820100007417024E82043D
:100443000000FC140228820100007517F311051245
:10045300ED1112013576CE0312013589CE03120157
:1004630035E3CE0312013543CF03120135D2CF0357
:100473001201354BD003120135C6D0031201355397
:10048300D103120135CAD10312013544D20312013B
:1004930035BFD2031201350BD3031201358BD303BE
:1004A300120135D3D30312013520D4031201355D74
:1004B300A70312013576A803120135D8A803120148
:1004C3003511A90312013513A903120135B7A90385
:1004D300120135F9A903120135D6AA03120135F821
:1004E300AA031201359AAB03120135E4AB031201DF
:1004F300351DAC031201352AAC03120135BBAC0325
:100503001201350FAD0312013512AD03120135553A
:10051300AD0312013558AD031201355BAD03120172
:1005230035EAAD03120135EDAD0312013520AE03FB
:1005330012013523AE0312013521AF031201353FFA
:10054300B0031201357DB003120135289004120166
:10055300354F9004120135799004120135B6FF022C
:100563001201356784041201359C8404120135C7D6
:100573008404120135FF84041201356B85041201D2
:1005830035B78504120135178604120135578604E1
:100593001201359F8604120135CD86041201359D63
:1005A3008704120135A78704120135BC87041201A1
:1005B30035F28704120135FE8704120135168804CB
:1005C30012013520880412013573A6041201358106
:1005D300A60412013599A604120135008002120106
:1005E30035F680021201353B8202120135BF8202C9
:1005F300120135048402120135408402120135E6EA
:100603008402120135ED8502120135B6860212010C
:1006130035E588021201354C8902120135658A02DB
:10062300120135778B02120135288C02120135AD88
:100633008E02120135668F02120135E58F02120117
:1006430035C590021201359E9102120135B794020D
:10065300120135A3B003120135CEB1031201358C5B
:10066300B203120135EEB203120135B6B303120120
:1006730035FCB4031201354EB6031201350FB8032E
:100683001201354C9904120135D09904120135FB3E
:100693009904120135A0DF03120135B6DF031201FD
:1006A30035D4DF031201355EE10312013568E1033E
:1006B30012013506E3031201354DE403120135E25D
:1006C300E4031201355A9E01120135C6A00112013D
:1006D3003596A20112013502A30112013561A4016D
:1006E30012013525A6011201354EA601120135DF8F
:1006F300A90112013540AB011201357EAB01120194
:10070300358DAE011201356CAF01120135C6B00152
:10071300120135DDB00112013532B501120135A2E6
:10072300B60112013521C80312013559C90312015B
:1007330035D5C90312013505CA0312013518CA0399
:1007430012013562CA0312013546CC031201355634
:100753008201120135EB82011201358A84011201F3
:10076300359684011201354F850112013537860113
:100773001201356088011201358089011201355556
:100783008A011201357E8C01120135DA8D011201C5
:1007930035D78E011201357692011201357B920114
:1007A3001201351395011201352F960112013549B6
:1007B3009701120135479801120135989A011201E8
:1007C30035559B01120135A89B01120135AB9B01E5
:1007D3001201351E9C01120135849C011201356DF5
:1007E300D4031201357BD403120135D6D40312018D
:1007F30035F5D4031201353CD5031201359ED603DA
:1008030012013543D7031201358AD703120135B3D9
:10081300D70312013564D803120135F3D80312014B
:10082300356CD9031201351CDA031201356829002E
:10083300120135782900120135222B001201358768
:100843002B00120135632C00120135222D001201F9
:1008530035F62E00120135BF3600120135723E0007
:100863001201352E44001201357A4A00120135AEC9
:100873005100120135E25900120135605B0012018B
:1008830035525E001201359A5F001201354E610048
:10089300120135696200120135F762001201355009
:1008A3006300120135A26800120135CF69001201FD
:1008B30035996A00120135C66A00120135C56B000D
:1008C3001201352EDA03120135C0DA03120135BAEB
:1008D300DD0312013551DF031201352EA704120186
:1008E300353FA7041201356EAA04120135ECFF014E
:1008F30012013580A50412013590A504120135A516
:10090300A5041201356DA60412013576A304120164
:1009130035FCA30412013562A40412013559FE0209
:1009230012013582FE02120135E8FE021201353C46
:10093300FF0212013594FF0212013597FF021201E3
:10094300358E9304120135A39304120135D3940415
:10095300120135359504120135C49504120135DEB3
:100963009504120135FA95041201357796041201A4
:10097300351BAB041201352BAB041201352EAB042E
:10098300120135F87F001201354C9B041201352DFD
:100993009D041201350080041201350A80041201FE
:1009A300354F8004120135638004120135EA800457
:1009B3001201351B8104120135588104120135855A
:1009C3008104120135E68104120135068204120105
:1009D30035268204120135468204120135658204EC
:1009E300120135858204120135BF8204120135F1EB
:1009F30082041201353D8304120135A183041201DF
:100A030035E483041201351284041201353B840456
:100A130012013544A204120135048E03120135A9D3
:100A23008F03120135B290031201355C9203120158
:100A330035909503120135A19603120135DE970314
:100A43001201356599031201353F9A03120135A846
:100A5300F303120135EBF3031201357DF5031201A4
:100A630035B0F7031201357FFD0112013534FE0164
:100A730012013527FF0112013562FF01120135C151
:100A8300FF011201358BA804120135B7A804120126
:100A93003510A9041201351AA9041201352AA90433
:100AA300120135109F04120135739F041201351D85
:100AB300A00412013552A00412013582A0041201D0
:100AC30035BDA004120135DDA004120135E4E903AC
:100AD30012013581EA0312013546EB031201358019
:100AE300EC03120135A0EE03120135E4D602120124
:100AF300351DD70212013530D80212013502DA0250
:100B030012013582DA0212013531DC02120135613C
:100B1300DD021201354CDE02120135F5DE0212014F
:100B2300359EDF021201352DE002120135B9E002D4
:100B3300120135ECE0021201356AE10212013507B8
:100B4300E202120135A0E202120135C0E2021201F3
:100B53003518E30212013534E30212013537E4029A
:100B63001201353AE40212013515E602120135A3EA
:100B7300C1031201354AC2031201358FC2031201A8
:100B83003509C403120135F0C4031201353EC50310
:100B930012013591C503120135FDC5031201355705
:100BA300C6031201358EC60312013503C7031201B2
:100BB3003563C703120135C69402120135A19602AB
:100BC300120135E49802120135369902120135619A
:100BD30099021201353B9A02120135869A021201DB
:100BE30035D19A02120135E49A02120135259B028E
:100BF3001201355A9B02120135A69B02120135D50B
:100C03009B02120135F89B02120135459C02120129
:100C130035CA9C021201351E9F021201355DA102E5
:100C23001201359EA10212013541A3021201358240
:100C3300A302120135F5A3021201354AA4021201DF
:100C43003554A4021201357FA402120135F1A50225
:100C530012013505A6021201350A9B03120135055F
:100C63009C0312013561A2031201354DA403120145
:100C730035E6A50312013533A7031201355BB7012E
:100C830012013516B80112013543B8011201358E30
:100C9300B80112013524BA011201358CBA011201CF
:100CA300350DBC0112013587BC01120135A2BC010F
:100CB3001201351CBD0112013560BE0112013590D0
:100CC300BF011201357DC001120135AEC101120110
:100CD30035C6C10112013523C201120135F1C2012A
:100CE30012013522C30112013590C30112013506E9
:100CF300C40112013559C40112013517C50112018E
:100D030035E2C501120135B3C60112013536C701FB
:100D130012013599C70112013500C8011201352AA4
:100D2300C801120135DCC80112013526CA011201BE
:100D3300356FCA011201358CCA01120135ABCA01E4
:100D4300120135D2CB01120135CACC01120135EFA4
:100D5300CC0112013504CD011201357BCD01120105
:100D630035D2CD0112013534CF0112013575CF01D2
:100D730012013500800312013549800312013555F4
:100D830080031201352E81031201355F81031201A5
:100D93003590810312013510820312013548820315
:100DA3001201359E82031201359284031201359399
:100DB30086031201356A8803120135208A03120162
:100DC30035ED7F00120135376C00120135666C007A
:100DD300120135A67100120135237300120135FC8F
:100DE3007300120135C37800120135C07900120176
:100DF30035127A001201352C7A001201355D7A0022
:100E0300120135687A00120135717A001201355CDE
:100E13007B001201354D7C00120135B17C001201BB
:100E2300351D7D00120135E5E70112013521EC0185
:100E330012013527EC0112013530F401120135FF9F
:100E4300F801120135AC88041201354289041201FC
:100E530035588904120135A28904120135F7890432
:100E6300120135348A04120135D88A04120135512E
:100E73008B041201355A8B04120135668B0412015F
:100E830035808B04120135C18B04120135D68B04D6
:100E9300120135348C041201355B8C04120135EBDD
:100EA300A00412013514A1041201353DA10412015D
:100EB30035D5A10412013531B9031201353BB9030C
:100EC3001201357CB903120135CBB9031201352266
:100ED300BA031201357CBA03120135A3BA03120116
:100EE3003543BD031201354DBD031201359EBD03CC
:100EF300120135CCBD03120135C9BE03120135F110
:100F0300BF0312013534C0031201357DC003120142
:100F1300358FC003120135AEC003120135B7C003CC
:100F230012013579C1031201357D7E00120135D3DB
:100F33007E00120135607F00120135AE9604120166
:100F430035D89604120135D29704120135B79804A7
:100F53001201357BA404120135CFFC0312013505C0
:100F6300FD0312013561FE03120135BDFF031201BA
:100F730035DEA704120135F4A704120135FEA704D8
:100F83001201355AA80412013534A9041201353867
:100F9300E60212013500EA02120135A4EA02120147
:100FA30035FBED021201356AF10212013581F102BE
:100FB3001201351EF30212013566F302120135D711
:100FC300EE03120135ECEE03120135D1EF031201EA
:100FD3003504F00312013551F003120135B4F00367
:100FE30012013520F10312013549F30312013528AB
:100FF300A60212013540AB02120135D5AC02120133
:101003003525AD02120135A3AD02120135A1B1029E
:10101300120135C1B20212013552F8031201359D96
:10102300F803120135B7F803120135EAF803120188
:101033003544F9031201359EF903120135AFF90363
:10104300120135BAF903120135C7F903120135DE6E
:10105300F903120135ECF903120135F7F903120113
:101063003503FA0312013517FA0312013522FA0385
:101073001201353FFA03120135A2FB03120135B207
:10108300FB03120135C4FB03120135ECFB03120110
:1010930035F7FB031201350CFC0312013517FC0372
:1010A30012013578FC031201357EFC0312013584ED
:1010B300FC031201358AFC031201359CFC03120167
:1010C30035ECE4031201351EE703120135F6E7039D
:1010D30012013582E903120135898C04120135F3BB
:1010E3008C04120135108D04120135DD8D041201BB
:1010F30035308E04120135118F04120135FAB60210
:101103001201351FB8021201352CB902120135271D
:10111300BA021201355CBA021201357BBA0212011E
:1011230035AEBC021201356FBD02120135AEBD02F0
:10113300120135BBBD0212013518BE021201358200
:10114300BF0212013596C102120135FAC40212011F
:1011530035A3CF011201353CD101120135C7D201AC
:10116300120135D1D2011201350FD401120135A775
:10117300D40112013597D70112013552D80112015A
:1011830035FCDA011201351CDC011201356ADD017F
:10119300120135F6DE0112013553DF01120135BCB0
:1011A300DF01120135F3DF011201352AE0011201DB
:1011B30035A9E301120135F3E30112013554E401CA
:1011C30012013562E401120135B7E401120135C59C
:1011D300E401120135DFE5011201357AE60112015E
:1011E300353AE70112013561C70212013583C7029F
:1011F3001201354ACA0212013545CF0212013509DF
:10120300D10212013543D202120135309D0412017D
:1012130035559D04120135C69D041201354CF40267
:10122300120135F7F502120135A5F7021201356CEB
:10123300F902120135ADF902120135E7F902120183
:101243003528FA0212013562FA021201358DFA02CB
:10125300120135B9FA02120135FAFA0212013534D4
:10126300FB021201358DFB02120135E3FB02120171
:101273003523FC0212013576FC02120135B0FC0263
:10128300120135F8FC0212013539FD0212013573E2
:10129300FD02120135A0FD02120135C3FD02120148
:1012A30035EBA904120135A8AA0412013571AA0469
:1012B300120135D4AA04120135FDAA04E0667010A8
:1012C30008A3E066700A08A3E066700408A3E0665A
:1012D30022C3E7960809E7960809E7960809E796FF
:1012E30022C3E09608A3E09608A3E09608A3E0963D
:1012F30022080808EAC0E0EBC0E086F0E7A4FA1889
:101303000986F0E7A42AFA180986F0E7A42AFA184E
:101313000986F0E7A42AFA1986F0E7A4FBE5F02A88
:10132300FA190886F0E7A42BFBE5F03AFA190886C8
:10133300F0E7A42BFBE5F03AFA18180986F0E7A4C6
:10134300C5F02BFBE43AFA1908E7C5F0C6A426F664
:10135300E5F03BFBE43AFA1886F0E7A4F6E5F0087B
:1013630026F6E43B08F6E43A08F6D0E0FBD0E0FAD0
:1013730022E4CFC0E0E4CEC0E0E4CDC0E0E4CCC0E2
:10138300E075F020E626F608E633F608E633F608BD
:10139300E633F6181818EC33FCED33FDEE33FEEFAD
:1013A30033FFC3EC9709ED9709EE9709EF971919E6
:1013B30019400FFFEC97FC09ED97FD09EE97FE1915
:1013C3001906D5F0BFECF709EDF709EEF709EFF7CA
:1013D300191919D0E0FCD0E0FDD0E0FED0E0FF22E7
:1013E3006016080808C6C313C618C613C618C61362
:1013F300C618C613C6D5E0EA227009080808226099
:1014030016181818C6C333C608C633C608C633C66B
:1014130008C633C6D5E0EA22E627F60809E637F61A
:101423000809E637F60809E637F622E026F608A3A8
:10143300E036F608A3E036F608A3E036F622E02607
:10144300F008A3E036F008A3E036F008A3E036F096
:1014530022C3E697F60809E697F60809E697F60821
:1014630009E697F622C3E096F008A3E096F008A3F6
:10147300E096F008A3E096F022E657F60809E6574F
:10148300F60809E657F60809E657F622E056F60885
:10149300A3E056F608A3E056F608A3E056F622E0CA
:1014A30056F008A3E056F008A3E056F008A3E05670
:1014B300F02206E6700D0806E670080806E67003DB
:1014C3000806E622E0F608A3E0F608A3E0F608A380
:1014D300E0F622E6F008A3E6F008A3E6F008A3E6A8
:1014E300F022E0FAA3E0FBA3E0FCA3E0FD22E0F896
:1014F300A3E0F9A3E0FAA3E0FB22E8F0A3E9F0A359
:10150300EAF0A3EBF022CAC0E0E6F0A308DAFAD0CF
:10151300E0FA22CAC0E0E0A3C582CCC582C583CD70
:10152300C583F0A3C582CCC582C583CDC583DAE666
:10153300D0E0CA22C3E498F8E499F912157880261A
:10154300C3E49AFAE49BFBE920E7E9121578E498EF
:10155300F8E499F922C3E498F8E499F9121578E4C8
:1015630098F8E499F9C3E49AFAE49BFB22EB20E7A9
:10157300CFE920E7E0B90010BB0008E88AF084F85F
:10158300AAF022E4FBC8FA22EB70227B10C833C80E
:10159300C933C9335007C39AC3DBF280069A50019B
:1015A3002ADBEAC833F4C8C933F4C9FA2275F00850
:1015B300E4C833C8C933C933C99AC99B5004C92A7B
:1015C300C93BD5F0ECFBC833F4C8E4C9FA22600D7B
:1015D30008C6A2E713C618C613C6D5E0F322600CEB
:1015E30008C6C313C618C613C6D5E0F42270042276
:1015F300600D18C6C333C608C633C6D5E0F4182237
:10160300251810AF08F518400C15198008F5184077
:10161300021519D2AF2200C0D0251810AF08F51853
:10162300500C05198008F51850020519D2AFD0D017
:10163300222518F58210AF08F518400C15198008FB
:10164300F51840021519D2AF851983222518F582A2
:10165300E43519F583222518F8E43519F9222518FC
:10166300FAE43519FB222518FCE43519FD22E4734D
:101673002518C582C0E0E51934FFC583C0E0E5182D
:10168300C3958224F810AF088583198582188008D2
:10169300858319858218D2AFCEF0A3E520F0A37815
:1016A30008E608F0A3DEFAEFF0A3E58124FAF8E6F2
:1016B30008F0A3E608F0A3E608F0A30808E608F09C
:1016C300A3E608F0A315811581D0E0FED0E0F8155C
:1016D3008115811581E8C0E0EEC0E0222518C5829E
:1016E300C0E0E51934FFC583C0E0E518C395822443
:1016F300F910AF08858319858218800885831985B9
:101703008218D2AFCEF0A3E520F0A37808E608F064
:10171300A3DEFAEFF0A3E58124FBF8E608F0A3E6E5
:1017230008F0A30808E608F0A3E608F0A31581155E
:1017330081D0E0FED0E0F815811581E8C0E0EEC06D
:10174300E022851983851882E0A3FEE0A3F52078C3
:1017530008E0A3F608DFFAE0A3FFE0A3C0E0E0A3FC
:10176300C0E0E0A3C0E0E0A3C0E0E0A3C0E010AFAE
:10177300088582188583198008858218858319D284
:10178300AFD083D082020132851983851882E0A30A
:10179300FEE0A3F5207808E0A3F608DFFAE0A3FF54
:1017A300E0A3C0E0E0A3C0E0E0A3C0E0E0A3C0E0AA
:1017B30010AF088582188583198008858218858370
:1017C30019D2AFD083D08222C0D02518C582C0E001
:1017D300E51934FFC583C0E0E518C3958224F310EF
:1017E300AF08858319858218800885831985821837
:1017F300D2AFC8F0A3E9F0A3EAF0A3EBF0A3790812
:10180300E709F0A3D8FAECF0A3EDF0A3EEF0A3EF11
:10181300F0A3D0E0F0A3D0E0F0A3D0E0F0A3E52064
:10182300F0A3E5F0F0A322851983851882E0C0E0D8
:10183300A3E0F9A3E0FAA3E0FBA37808E0F608A38A
:10184300DFFAE0FCA3E0FDA3E0FEA3E0FFA3E0C01A
:10185300E0A3E0C0E0A3E0F5D0A3E0F520A3E0A37C
:10186300F5F010AF088583198582188008858319E0
:10187300858218D2AFD082D083D0E0F8D0E0327422
:10188300048006740280027401C0E0F4041216346A
:10189300D0E0121509227404800474028000CCC0C5
:1018A300E0EDC0E0E518C39CCCAD1950011D10AFAD
:1018B300068C188D1980068C188D19D2AF12151647
:1018C300D0E0FDD0E0FC22D083D082E9C0E0E493F5
:1018D300A3C386F0C5F095F0F908E493A386F0C599
:1018E300F095F0700BE493A3C3994005E9048002DB
:1018F300A3E475F002A42582F582E5F03583F58330
:10190300D0E0F9E493A3C0E0E493C0E022D083D015
:1019130082ECC0E0EDC0E0E493A3FCE493A3FDED0F
:101923004C600D12195CEC24FFFCED34FFFD80EFDD
:10193300E493A3FCE493A3FDED4C600D12199BEC1F
:1019430024FFFCED34FFFD80EFD0E0FDD0E0FCE4AC
:1019530093A3C0E0E493C0E022C0E0C3E4939608FD
:101963007401939618400FE493667008087401930A
:10197300661870007019A3A3C3E4939608740193C7
:101983009618A3A3400DD0E0D0E0D0E002194CA3F9
:10199300A3A3A3A3A3D0E022C0E0C0F088F0E49304
:1019A3006670080874019366187000A8F0A3A3700A
:1019B3000BD0F0D0E0D0E0D0E002194CA3A3D0F0DC
:0319C300D0E0224F
:1019C800C0E0C0D0E8C0E0E9C0E0EAC0E0EBC0E0B9
:1019D800ECC0E0EDC0E0EEC0E0C008C009C00AC03D
:1019E8000BC082C083C0F0A2AFE433FED2AFE5895A
:1019F800A2E1503F7800E589A2E150057589FD789C
:101A080001E58BA2E05005758BFE8005E8A2E05049
:101A180022750819750900750A00750B00780812F7
:101A280018827A107B009003F3E0F9120FCB74044C
:101A3800121619758900C2C5751A00EEA2E092AF98
:101A4800D0F0D083D082D00BD00AD009D008D0E013
:101A5800FED0E0FDD0E0FCD0E0FBD0E0FAD0E0F929
:101A6800D0E0F8D0D0D0E032C0E0C0D0E8C0E0E9A3
:101A7800C0E0EAC0E0EBC0E0ECC0E0EDC0E0EEC0E2
:101A8800E0C008C009C00AC00BC082C083C0F0A271
:101A9800AFE433FED2AFE58BA2E0503F7800E58992
:101AA800A2E150057589FD7801E58BA2E050057526
:101AB8008BFE8005E8A2E0502275081975090075AB
:101AC8000A00750B0078081218827A107B009003C0
:101AD800F3E0F9120FCB7404121619758B00C2E8E3
:101AE800021A40C0E0C0D0E8C0E0E9C0E0A9A8D22E
:101AF800AFC2C7751A00E9A2E7E433F8E9A2E79292
:101B0800AFD0E0F9D0E0F8D0D0D0E03274F61216B9
:101B1800DFEAFEEBFF8C088D09EE2434F8E43FF988
:101B2800E8FCE9FDEE2435F582E43FF583E0FAEEC2
:101B38002437F582E43FF583E0F88508F0A4C885EA
:101B4800F00A8509F0A4250AF9EA28F8E439F97AAF
:101B5800257B00121578EA8C828D83F0FA13131313
:101B6800541FF8EE28F8E43FF9E8245DF582E439DB
:101B7800F583E0C0E074075AF8D0E0B800028004AA
:101B8800C313D8FCA2E0EE50082434F582E43F8069
:101B98001C2436F582E43FF583E0F5F0EA84A8F0EA
:101BA800EE28F8E43FF9E82438F582E439F583E0D3
:101BB800F97F0302178B74F71216DFEAFEEBFFEECC
:101BC8002434F582E43FF583E0C0E0EE2435F58265
:101BD800E43FF583D0E0F08E828F83A3A3A3A3A371
:101BE800A3A3C082C0838E828F83A3A3A3A3A3E0F1
:101BF800F8A3E0F9D083D082E0C398F508A3E09970
:101C0800F509EE247FF582E43FF583E0640170670F
:101C1800EE2480F582E43FF583E0F8A3E0F98E82B4
:101C28008F83A3A3A3A3A3A3A3E0FCA3E0FD8E82B9
:101C38008F83A3A3A3A3A3E0FAA3E0FBC3EA9CEBCF
:101C48009D5010C3EC98ED99402DC3EA98EB99503C
:101C580026800EC3EA98EB994007C3EC98ED9940AB
:101C6800167CAC7D05EEFAEFFB120D1FEE247FF516
:101C780082E43FF583E4F0AC08AD09EEFAEFFB121D
:101C88001B14E9F91229507F0202178BC082C08306
:101C9800851882851983E0F8A3E0F9C3EA9CEB9DD7
:101CA8005010C3EC98ED99401BC3EA98EB99501477
:101CB800800EC3EA98EB994007C3EC98ED9940046D
:101CC800790180027900D083D08222EAC39CFAEBA2
:101CD8009DFB2274EF1216DF900472E06408600521
:101CE800E06407702A9061C8E060249004A0E0F4E2
:101CF800601DE0F875F00AA4C8AAF02AF974A228B1
:101D0800FE740439FF8E828F83A3A3A3E0700302BD
:101D18001E03906060E0C0E0EE2468F582E43FF5C1
:101D280083D0E0F0750C1C750D0675080075090068
:101D3800E5D914F50AE5D95403F50E601674036560
:101D48000E6056E50A600FEE2467F582E43FF583DE
:101D5800E07003021DE8900617E064016026EE2497
:101D680082F582E43FF583E060047A0480027A0019
:101D7800E50AC39AFA95E0FB120BC98A088B09EAAF
:101D8800450970051210A98072EE2482F582E43F9D
:101D9800F583E070048A0C8B0DE50A6012850C82CD
:101DA800850D83F50BE5D9F0A3150BE50B70F6EE61
:101DB8002482F582E43FF583E0604474FC250AF54B
:101DC8000A780C121886AC0AA90EEEFAEFFB120D6F
:101DD800BB7402121619E97026AA08AB09120F2F54
:101DE800793D8E828F83A3A3A3A3E0FA7B00120A16
:101DF80031EEFAEFFB120D43120DCD7900807374AA
:101E080003650E6055850A10751100781012188642
:101E1800AC0CAD0DAA08AB09120D9D74021216196F
:101E2800EE2468F582E43FF583E064807004747FF3
:101E38008001E0F50C780C12188AE50EF50C780C88
:101E480012188AA90AAC08AD099004A0E0FA7B0030
:101E5800120A1374021216198013900472E06408AF
:101E6800600BAC0CAD0DEEFAEFFB120E391210B58B
:101E780079017F0A02178B74F21216DF74FC1216AE
:101E880003EAFEEBFF8909A2AFE433F508C2AF020B
:101E98001F49E0601B780C121886AC0BA90EEEFAED
:101EA800EFFB120DB574021216197404250BF50B0D
:101EB8007401250BF5D9850ED9E50B6018F50A854F
:101EC8000C82850D83E0F5D9A385820C85830D15D9
:101ED8000AE50A70EA75E195EE2463F8E43FF97AB9
:101EE800007B00A2AFE433F50BC2AF88828983E0A0
:101EF800FCA3E0FDEC4D603A88828983E0FAA3E018
:101F0800FB8A828B83E0FCA3E0FD88828983ECF066
:101F1800A3EDF08A828B83E4F0A3F088828983E0C2
:101F2800FCA3E0FDEC4D700A88828983A3A3E4F04A
:101F3800A3F0E50BA2E092AF120F2F9005B3E004D7
:101F4800F0EE2463F582E43FF583E0F8A3E0F9E8D6
:101F5800496073EE2463F582E43FF583E02402F8D8
:101F6800A3E03400F988828983E5822402F50CE431
:101F78003583F50DE0F50BA3E0F50EEE2462F5824E
:101F8800E43FF583E06401703D9061D0E0F8EE2411
:101F980082F582E43FF583E060047C0480027C00E3
:101FA8007480C398FA95E0FBE50B2CF8E43400F94B
:101FB800E82402F8500109C3EA98EB99A2D265D047
:101FC800334003021E9A9005B3E060599005B4E0CF
:101FD800F89005B3E0C398500C74026509704690F8
:101FE80005B5E060408E828F83A3A3A3A3E0851884
:101FF80082851983F0A3E4F09005B3E0F874021227
:10200800164FE8F0A3E4F09005B3E0F89005B2E0CD
:1020180028F07402121669AA18AB197901120A5B22
:102028009005B3E4F0E508A2E092AF740412161923
:102038007F0702178B0000008521878522C622C0F2
:10204800E074EB1217CBA2AFE433F508C2AF759B6F
:1020580000906182E0A2E05051E591A2E0504B75FA
:1020680091FE7401652170429004A0E0F875F00AB1
:10207800A4C8AAF02AF974A228FE740439FF120E23
:10208800878E828F83E0F8A3E0C82416F582E438AF
:10209800F58312189912270E7404121619E96401AF
:1020A80070057901121049121CDB906182E0A2E5EB
:1020B800507EE591A2E550787591DF900472E06456
:1020C800076005E0640870509004A0E0F875F00A15
:1020D800A4C8AAF02AF974A228FE740439FF74016E
:1020E8006521704C120E878E828F83E0F8A3E0C8BA
:1020F8002416F582E438F58312189912270E740411
:10210800121619E96401700579011210497901EE76
:10211800FAEFFB121E7F8018E0640D701390049490
:10212800E004F064287002E4F07A00E0F91210BBD1
:10213800906182E0A2E640030221DBE591A2E6403D
:10214800030221DB7591BF900472E06405700812E8
:102158000E6F120E7B8003120E757521001210553A
:10216800E9900473F07900121049120C8F7A017B00
:1021780000900471E0F9120EFF907803E064427059
:102188005290061BE014F0704AC2AF1221960078F4
:102198002AD0E0F618D0E0F6E59F540770047BFFDC
:1021A80080027B7FC4C0E07829E6F50A08E65BF583
:1021B8000B740B780A1215E1D0E0250AF8906270CA
:1021C800E0A2E740F8E8C333906272F0906270E0F2
:1021D800D2E0F0906181E0A2E35009E5E9A2E35082
:1021E8000375E9F7A3E0A2E75009E591A2E75003D8
:1021F80075917FE508A2E092AF7F0802182AC0E037
:10220800C0D0C082C083906183E0A2E05009E5BFDE
:10221800A2E0500375BFFEE0A2E15009E5BFA2E1CC
:10222800500375BFFDE0A2E25009E5BFA2E25003EA
:1022380075BFFBE0A2E35009E5BFA2E3500375BFF9
:10224800F7E0A2E45009E5BFA2E4500375BFEFE050
:10225800A2E55009E5BFA2E5500375BFDFE0A2E69D
:102268005009E5BFA2E6500375BFBFD083D082D026
:10227800D0D0E032C0E0C0D0E8C0E0E9C0E0EAC0B9
:10228800E0EBC0E0ECC0E0EDC0E0EEC0E0C008C0AC
:1022980009C082C083C0F0E5A7A2E640030223314B
:1022A800E5A1A2E6400302233153A7BF75A1BF757C
:1022B8002101900472E064067015120DF18A828B78
:1022C80083A3A3A3A3A3A3E0FAA3E0FB120E5DA23A
:1022D800AFE433FED2AF900478E0640170187A203E
:1022E8007B00900471E0F9120FD77A207B009004EC
:1022F80071E0F9120F05906182E0D2E6F0900618BD
:10230800E0602185C6228016900477E06401700899
:10231800E5C654F84405F5C653BEFC1220407401C6
:10232800652160E4EEA2E092AFE5A7A2E5500CE5D6
:10233800A1A2E5500653A7DF75A1DFE5A7A2E150EA
:1023480009E5A1A2E1500375A1FDE5A7A2E2500CA1
:10235800E5A1A2E2500653A7FB75A1FBD0F0D083FC
:10236800D082D009D008D0E0FED0E0FDD0E0FCD08B
:10237800E0FBD0E0FAD0E0F9D0E0F80222770000E4
:102388008E238F2485822885832785188285198343
:10239800E0CEA3E0CF852882852783EBC9EAC8ED84
:1023A800CBECCA75F010C3E833C8E933C9EA33CABD
:1023B800EB33CBC3EA9EF526EB9FF525B35004AB70
:1023C80025AA26EC33CCED33CDD5F0DAAE23AF24F5
:1023D8002274E91216DF74F812160385188285191B
:1023E80083ECF0A3EDF08A088B09120E93EAF8EB60
:1023F800F9ECFAEDFB8508828509831214FD900437
:1024080072E024F7C394055006750801022580126E
:102418000DF18A0A8B0BAE0AAF0BEE4F7003022543
:102428007DAC08AD097402121661120E8D8E828F72
:1024380083A3A3750CFF750DFF750EFF750F00784C
:102448000C12148F740212164F7510FF7511FF7558
:1024580012FF751300781012148F780C791012126D
:10246800D4502A780C79101214547508017509C8CB
:10247800750A00750B007808790C1212D45069851A
:102488000C08850D09850E0A850F0B80427514010D
:102498007515C8751600751700851008851109850A
:1024A800120A85130B7808790C12145478147908D9
:1024B8001212D44033750800750900750A00750BAF
:1024C80001780879101214547808790C12141B74C6
:1024D8000978081213FC750C19F50DF50EF50F782F
:1024E80008790C121374800C750814750900750AA4
:1024F80000750B008E828F83A3A3A3A3A3A3E0F888
:10250800A3E0F97AD07B03121578880C890DE4F5DD
:102518000EF50F7808790C12141B740612164FE08A
:10252800F8A3E0F97AD07B03121578E8FA8A0CE46C
:10253800F50D7808790C1212D450077808790C1226
:102548001454900472E06408600AE064066005E0D0
:102558006405702D750C0D780C79081212D4402181
:10256800750CF4750DFF750EFF750FFF7808790C63
:1025780012141B800C750800750900750A00750B8C
:1025880000851882851983E0F8A3E0F583888278AE
:10259800081214D674081216197F1002178B74F7D4
:1025A8001216DF12101F900616E064017010906278
:1025B80045E4F0A3F053F4F343FE0C5390F3120EEA
:1025C8004BE5C654B84441F5C6E59E54476441708E
:1025D800F8906185740FF0900614E0F47002A3E09F
:1025E800604E900615E0600814601B14602E804051
:1025F800750801750900900614E078081215F0E5D1
:1026080008F45280802A750801750900900614E0C4
:1026180078081215F0E508F45290801475080175D1
:102628000900900614E078081215F0E508F452A0A5
:1026380079007F0202178B74F71216DFE9FEEAFFB2
:1026480012101F74016E700C7A807B00900471E088
:10265800F9120EFF902960E493F46008E493F912EC
:102668000C83800953C6B8E59E544770FA120E5180
:10267800900616E064017003120CA1900614E0F4B1
:102688007002A3E0604B900615E0600814601A140D
:10269800602C803D750801750900900614E07808E3
:1026A8001215F0E508428080287508017509009028
:1026B8000614E078081215F0E508429080137508B2
:1026C80001750900900614E078081215F0E5084233
:1026D800A0120DF18A088B09A808A909E849601415
:1026E800E5E170FCE82414F582E439F583E0F46050
:1026F80003E0F5E174016F700A7A01900471E0F962
:10270800120F7D02263A74ED1216DF8A088B098CA7
:102718000A8D0B741312164F780C1214C7780879A7
:102728000C1212D47510017511C8751200751300BA
:1027380050127808790C121454781079081212D4AF
:1027480050168010780C79081214547810790C12ED
:1027580012D440047901800279007F0C02178B742F
:10276800ED1216DF8A088B098C0A8D0B741312166A
:102778004F780C1214C7780C79081212D4401178CB
:1027880008790C121454AA08AB09AC0AAD0B8022C4
:102798007510007511007512007513017810790C09
:1027A8001214547810790812141BAA10AB11AC1229
:1027B800AD1380A68A828B837508FF7509FF750A99
:1027C800FF750B0078081214A27F0402178B74F5AA
:1027D8001216DF8C828D8378081214C78A828B8345
:1027E8007808121468EA2404F8E43BF98C828D8393
:1027F800A3A3A3A3E0FCA3E0FD88828983C3E09C94
:10280800F0A3E09DF088828983C3E09420A3E0943C
:102818004E40268A828B837508FF7509FF750AFF6B
:10282800750BFF78081214418A828B83A3A3A3A394
:10283800E02420F0A3E0344EF00227BC74F5121611
:10284800DFE9FE9005CEE0FAA3E0FBEE29F8E433D9
:10285800F9741228F582748139F583E02AF508A302
:10286800E03BF50978081218867A407B427C0F7D98
:102878000012238874021216198A088B098C0A8D93
:102888000B741078081213E3AA08AB097F04021727
:102898008B74F11216DF8A0C8B0D8C0E8D0F741150
:1028A80012164F12189D741112164FE02401F508E4
:1028B800A3E03400F509E4F50AF50B780C79081261
:1028C80012F4750871750902780C79081212F4AAC5
:1028D8000CAB0DAC0EAD0F12238874021216198BB7
:1028E80009EA450960047A0180027A00EC2AFCE4CE
:1028F8003DFD741312164FE0F8A3E0F9E8FEE9FF76
:10290800ECF8EDF97A717B02121578880889098E3E
:10291800828F8378081214D6ECF8EDF97A717B026D
:102928001215788A088B09740578081215F08E82BA
:102938008F83A3A3A3A3E508F0A3E509F07F08020A
:10294800178BC2AF02000022C082C083E9906000EA
:06295800F0D083D08222C2
:10296000FFFFFFFFFFFFFFFFC082C083E990167FDC
:10297000F0D083D08202013274F4121673E990030E
:10298000AAF0900444E0F50A750B007402780A126C
:1029900015F0AA0AAB0B120F659003ABEAF0A3EB9C
:1029A000F09003ABE0F8A3E0F9E8497003022B20B4
:1029B000900444E075F003A4FAABF0120F659003A5
:1029C000C8EAF0A3EBF09003C8E0F8A3E0F9E84907
:1029D000700E9003ABE0FAA3E0FB120F6B022B200A
:1029E0009003C8E0FCA3E0FD7AFF7BFF1208C390D0
:1029F0000444E0602B9003ABE0F8A3E0F9900444BA
:102A0000E0FA8882898374FFF0A3F088828983A327
:102A1000A3E4F0A3F0E82404F85001091AEA70E2F4
:102A20009003ADE4F09003ABE0F8A3E0F583888277
:102A3000A3A3E0F8A3E0F9E849603F9003ABE0F816
:102A4000A3E0F5838882A3A3E0FAA3E0FB120F6B57
:102A5000900444E060249003ABE02402F8A3E03447
:102A600000F9900444E0FA88828983E4F0A3F0E856
:102A70002404F85001091AEA70ED900444E075F05E
:102A800028A4FAABF0120F658A0A8B0BAE0AAF0BC3
:102A9000EE4F607D900444E075F028A4FCADF07921
:102AA00000120ED57C00900444E0605FEEF8EFF970
:102AB0009003ABE0FAA3E0FB8A828B83A3A3EEF042
:102AC000A3EFF0E82428F50AE439F50B888289831E
:102AD000E4F0A3F088828983A3A3A3A3A3A3F0A314
:102AE000F0E82408F8500109E50A687003E50B696D
:102AF00070DAEE2428FE50010F0CEA2404FA50018B
:102B00000B900444E0FDECC39D40AD9003AD740513
:102B1000F09003AAE0F912075B7AB77B08120B75F5
:102B2000806074F41216738A088B09EB5480604736
:102B30009003AAE0F9120EF98A0A8B0BAE0AAF0BCA
:102B4000EE4F602A8E828F83E064B0701A12084BB9
:102B5000E960148E828F83A3A3A3A3E0F9EE24057A
:102B6000FAE43FFB120827EEFAEFFB120EEDAA087B
:102B7000E5096480FB80047A007B008005740512FF
:102B800016197F0402174574F212167374FB12169D
:102B900003EAFEEBFFEE4F604E740312164FEEF0A9
:102BA000A3EFF0851882851983ECF0A3EDF0740291
:102BB00012164FE9F0AA18AB19120755E9F508608B
:102BC00003022C52741312164FE0F50AA3E0F50B22
:102BD000E50A450B607C8E828F83A3A3A3A3E0FE4E
:102BE000A3E0FFEE4F700575080280667A067B0051
:102BF000120F658A0C8B0DA80CA90DE8497005759C
:102C00000813804E88828983E4F0A3F08882898348
:102C1000A3A3EEF0A3EFF088828983A3A3A3A3E587
:102C20000AF0A3E50BF09003AEE0FAA3E0FBEA4B59
:102C300070089003AE8016E0FAA3E0FB8A828B83D3
:102C4000E0FCA3E0FDEC4D8A828B8370EAE8F0A300
:102C5000E9F0A9087405022C5B74021216197F06AC
:102C600002174574F412167374FB1216037900EA06
:102C7000A2E04003022D1F740312164F7481F0A3CB
:102C80007416F08518828519837404F0A3E4F07437
:102C90000212164F7410F0AA18AB19120755E9FE6C
:102CA000707B901685E0F508A3E0F509E508450975
:102CB00060697A067B00120F658A0A8B0BA80AA945
:102CC0000BE84970047E13805488828983E4F0A362
:102CD000F088828983A3A3E508F0A3E509F0888240
:102CE0008983A3A3A3A374E2F0A37481F09003AE3D
:102CF000E0FAA3E0FBEA4B70089003AE8016E0FA1E
:102D0000A3E0FB8A828B83E0FCA3E0FDEC4D8A828A
:102D10008B8370EAE8F0A3E9F080027E02EEF9020C
:102D20002B7D74F612167374FD121603EAFEEBFF88
:102D3000851882851983E4F0A3F0740212164F748B
:102D400001F09003B1E0F8A3E0F9E849701D120A20
:102D5000C7120F659003B1EAF0A3EBF09003B1E066
:102D6000F8A3E0F9E8497003022EE58E828F83A371
:102D7000A3A3A3E024FE604224FC7003022E0724D8
:102D8000FE7003022E1524FE7003022E2224FE7014
:102D900003022E2F24FE7003022E3C24FE70030239
:102DA0002E4924FE7003022E5624FC7003022E7757
:102DB00024FE7003022E8F022EDE120AC79003B388
:102DC000EAF0A3EBF07CB37D038E828F83A3A3E0B4
:102DD000FAA3E0FB120461E96003022EDE9003B364
:102DE00012189D8E828F83A3A3A3A3A3E0FCA3E06C
:102DF000FD8E828F83A3A3E0FAA3E0FB12080F7479
:102E000002121619022EDEAC18AD19EEFAEFFB1203
:102E10000851022E9AAC18AD19EEFAEFFB120857C2
:102E20008078AC18AD19EEFAEFFB12085D806BAC40
:102E300018AD19EEFAEFFB120863805EAC18AD19FD
:102E4000EEFAEFFB1208698051AC18AD19EEFAEFFB
:102E5000FB12086F80447402121659880889097899
:102E6000081218867402121669EEFAEFFB12087542
:102E700074021216198023AC18AD19EEFAEFFB128A
:102E8000087BE9F87016740212164FE4F0804FAC1C
:102E900018AD19EEFAEFFB120881E9F8E8603F8EF1
:102EA000828F83A3E0641460358E828F83A3A3A3F3
:102EB000A3E09003B3F0851882851983E0FAA3E0BC
:102EC000FB9003B4EAF0A3EBF0E8A3F07CB37D033E
:102ED0008E828F83A3A3E0FAA3E0FB12045BEEFAD9
:102EE000EFFB1207E5740212164FE0F97403121695
:102EF000197F0202174574E812167374F112160353
:102F0000740112164FEAF0A3EBF0740D12164FEC99
:102F1000F0A3EDF0740112164FE02405F516A3E0BE
:102F20003400F517740112164FE0F8A3E0F583881A
:102F300082A3A3E0FAA3E0FB1205458A128B137566
:102F400010007C037D0079007AB37B03120ED574E8
:102F50000912165988088909780812188685168278
:102F6000851783A3A3A3A3E0F508750900780812C9
:102F70001886E5162405F508E43517F509780812D2
:102F80001886851682851783A3A3E0FCA3E0FD8540
:102F90001682851783E0FAA3E0FB1207737406120A
:102FA00016198A0A8B0BE50A450B700302366280FC
:102FB00039740712164FE0C0E0089003B4E028FA15
:102FC000A3E034008A82F583D0E0F0051074071284
:102FD000164FA3E0C0E0089003B4E028FAA3E03461
:102FE000008A82F583D0E0F00510E51224FBFAE5B3
:102FF0001334FFFBC3E5109AE49B40030236627E64
:10300000007F00740112164FE0F8A3E0F583888278
:10301000A3A3A3A3E0F50DE51224F9F50C9003B1E9
:10302000E0F508A3E0F509740912164FE0F514A3C2
:10303000E0F515740112164FA3E0F5838882A3A36F
:10304000E0F8A3E0F9740512164FE8F0A3E9F07573
:103050001100850A82850B83A3A3A3E0A2E4506F2D
:103060009003AEE0F8A3E0F9E84970030235D08898
:10307000828983A3A3E065147004A3E065158882A8
:10308000898370DFA3A3A3A3E0F8A3E0F988828972
:1030900083E582458370030235D0A3A3A3A3E0F5A3
:1030A0000EA3E0F50FE50E450F70030235D0790A47
:1030B000AC0AAD0B740512164FE0FAA3E0FB850EC7
:1030C00082850F83121671E9F511600302350585BB
:1030D0000A82850B83E06402600302347BA3E0F87C
:1030E000A3E0F988828983E0FAA3E0F9EA2EF50EDD
:1030F000E439F50F780E1219100100002801283666
:103100003407000228643203288433002900320186
:1031100029B53102292B3203290032042921317BC0
:1031200034850A82850B83A3A3A3A3A3A3E0F8A3FA
:10313000E0F99003B07407F088828983E085088203
:10314000850983F088828983A3E0850882850983C5
:10315000A3F0E82402FAE439FB8A828B83E0850835
:1031600082850983A3A3F08A828B83A3E0850882EA
:10317000850983A3A3A3F088828983A3A3A3A3E0E3
:10318000850882850983A3A3A3A3F0E82405F8504A
:10319000010988828983E0850882850983A3A3A326
:1031A000A3A3F088828983A3E0850882850983A38D
:1031B000A3A302337D850A82850B83A3A3A3A3A3C4
:1031C000A3E0FAA3E0FB120EB7EA85188285198303
:1031D000F0600AF8E50CC3985003E50CF0E09003AA
:1031E000B0F0851882851983E0F50C8E0D780C12ED
:1031F0001886850A82850B83A3A3A3A3A302346642
:10320000850A82850B83A3A3A3A3A3A3E0F8A3E06D
:10321000F5838882E0F8A3E0F99003B07402F0E847
:10322000850882850983F0E902337F850A82850B50
:1032300083A3A3A3A3A3A3E0F8A3E0F5838882E07C
:10324000FCA3E0FD740512164FE0FAA3E0FB1208A0
:10325000D59003B07402F0850882850983EAF0A353
:10326000EB023380850A82850B83A3A3A3A3A3A3C8
:10327000E0F8A3E0F5838882E0F50CA3E0F50D907B
:1032800003B07404F0850882850983E50CF0A3E59A
:103290000DF0740B121669AA0CAB0D1207798A0E89
:1032A0008B0FEA450F70030233558A828B83A3A3E9
:1032B000A3A3A3A3E0F514A3E0F515740312165914
:1032C000880C890D780C121886740D12164F12187E
:1032D0009D7CFF7DFF12077F74041216198B0DEA87
:1032E000450D7037850E82850F83E0F50C8E0D78C5
:1032F0000C121886850E82850F83A312189D7C02FE
:103300007D007A1E7B821205397404121619E97049
:103310000A740312164F74FFF0A3F085148285150A
:1033200083E06402703B750C028E0D780C121886D7
:10333000851482851583A3E0FCA3E0FDE508240441
:10334000FAE43509FB120EBD74021216199003B08F
:10335000E02402800B740312164FE50CF0A3E50D78
:10336000F0740312164FE0850882850983A3A3F049
:10337000740312164FA3E0850882850983A3A3A3D3
:10338000F00235059003B07401F0850A82850B8345
:10339000A3A3A3A3A3A3E0F8A3E0F5838882E08519
:1033A0000882850983F07C007D00850A82850B8375
:1033B000A3A3A3A3E02401FAA3E03400FB1207793E
:1033C000EA4B60548A828B83E02402F89003B0E0D9
:1033D00028F0EA2404F8E43BF988828983E0850830
:1033E00082850983A3F088828983A3E0850882858A
:1033F0000983A3A3F08A828B83E0F50C8E0D780CF1
:103400001218868A828B83A3E0FCA3E0FDE50824E2
:1034100003FAE43509FB80589003B0E02404F07C03
:10342000047D007900850882850983A3AA82AB8385
:10343000120ED5023505850A82850B83A3A3A3A3AB
:10344000A3A3E0F8A3E0F9E8FAE9FB8A828B83E022
:103450009003B0F08A828B83E0F50C8E0D780C120D
:1034600018868A828B83A3E0FCA3E0FDAA08AB093F
:10347000120EBD74021216190235059003AEE0F863
:10348000A3E0F9E84970030235D088828983A3A3B9
:10349000E065147004A3E065158882898370DFA35A
:1034A000A3A3A3E0F8A3E0F988828983E58245839A
:1034B00070030235D0E0F50EA3E0F50FE50E450FE1
:1034C00070030235D0780D12188AE4F514F51578DA
:1034D000141218867514B0751503781412188678AE
:1034E00008121886A90CAC0AAD0B740C12164FE02A
:1034F000FAA3E0FB850E82850F8312167174071202
:103500001619E9F511E51160030235D0851682859B
:103510001783A3A3A3A3A3A3A3E0F89003B0E06839
:1035200060030235D0E0F5088E09780812188690FD
:1035300003B1E0FCA3E0FD851682851783A3A3A356
:10354000A3A3A3A3A3E0FAA3E0FB120ECF7402127D
:103550001619E9607B9003B4E0F8A3E0F9E849703C
:1035600060E4F50878081218867CFF7DFF790774FF
:103570000312164FE0F8A3E0F5838882A3A3E0FAD4
:10358000A3E0FB12082174021216198A088B09A8FD
:1035900008A9099003B4E8F0A3E9F0E8497022858E
:1035A0001682851783E0F8A3E0F9740D12164FE038
:1035B000FAA3E0F5838A82E8F0A3E9F079110236F4
:1035C000BA850A82850B83A3A3A3A3E0FEA3E0FF31
:1035D0007407121659880889097808121886740B1E
:1035E00012164F12189D851682851783A3A3E0FC3F
:1035F000A3E0FDAA0AAB0B12077F74041216198A06
:103600000A8B0BEE4F7003022FA6A8109003B4E0B4
:1036100028FAA3E034008A82F583EEF005100890C2
:1036200003B4E028FAA3E034008A82F583EFF005C2
:1036300010E50A450B6003022FB1089003B4E0289F
:10364000FAA3E034008A82F58374FFF00510089035
:1036500003B4E028FAA3E034008A82F58374FFF013
:103660000510E51060351313543F9003B3F07CB39D
:103670007D03740112164FE0F8A3E0F5838882A35E
:10368000A3E0FAA3E0FB12046DE9600B9003B4E041
:10369000FAA3E0FB120F2F7900801F851682851791
:1036A00083E0F8A3E0F9740D12164FE0FAA3E0F5F9
:1036B000838A82E8F0A3E9F0790A740F0244267441
:1036C000E812167374F2121603851882851983EABC
:1036D000F0A3EBF0740C12164FECF0A3EDF085188C
:1036E00082851983E02405F8A3E03400F9740412FC
:1036F000164FE8F0A3E9F0740412164FE0F8A3E0C7
:10370000F5838882E0F516A3E0F517851882851900
:1037100083E0F8A3E0F5838882A3A3E0FAA3E0FBAB
:103720001205458A108B11750F0075080080080579
:1037300016E51670020517E51024FCFAE51134FFB2
:10374000FBA80FC3EA98EB94005003023E117408E3
:10375000121659880A890B780A12188674061216EE
:103760004FE0F8A3E0F5838882A3A3A3A3E0F50AC2
:10377000750B00780A121886740812164FE024059B
:10378000F50AA3E03400F50B780A121886740A12C1
:10379000164FE0F8A3E0F5838882A3A3E0FCA3E042
:1037A000FDAA16AB1712077374061216198A0A8B34
:1037B0000BAE0AAF0BEE4F7003023E118E828F8369
:1037C000A3A3A3A3E0F516A3E0F517740812164F00
:1037D000E0FCA3E0FD8E828F83A3A3A3E0F985180C
:1037E00082851983E0F8A3E0F5838882A3A3E0FA39
:1037F000A3E0FB120761E9F5086003023E1185189A
:1038000082851983E0F8A3E0F5838882A3A3A3A3AC
:10381000E0F50BE51024FCF50A9003B1E0F508A3F0
:10382000E0F509740812164FE0F512A3E0F51385D0
:103830001882851983A3E0F5838882A3A3E0F8A307
:10384000E0F9740612164FE8F0A3E9F0750E008E49
:10385000828F83A3A3A3E0A2E4506F9003AEE0F8AD
:10386000A3E0F9E8497003023CE288828983A3A3BC
:10387000E065127004A3E065138882898370DFA37A
:10388000A3A3A3E0F8A3E0F988828983E5824583B6
:103890007003023CE2A3A3A3A3E0F50CA3E0F50DA3
:1038A000E50C450D7003023CE2790AEEFCEFFD7475
:1038B0000612164FE0FAA3E0FB850C82850D8312F9
:1038C0001671E9F50E6003023CE58E828F83E06499
:1038D000026003023C5FA3E0F8A3E0F988828983D9
:1038E000E0FAA3E0F8E4C8F9EA28F50CE439F50DAC
:1038F000780C1219100100002801281B3C07000257
:10390000284C3A03286C3B0029EC390129AF3902D5
:1039100029153A0329EC3904291D395F3C8E828F21
:1039200083A3A3A3A3A3A3E0F8A3E0F99003B07437
:1039300007F088828983E0850882850983F0888280
:103940008983A3E0850882850983A3F0E82402FA2D
:10395000E439FB8A828B83E0850882850983A3A3EF
:10396000F08A828B83A3E0850882850983A3A3A3C1
:10397000F088828983A3A3A3A3E0850882850983B5
:10398000A3A3A3A3F0E82405F85001098882898342
:10399000E0850882850983A3A3A3A3A3F088828975
:1039A00083A3E0850882850983A3A3A3023B658ED8
:1039B000828F83A3A3A3A3A3A3E0FAA3E0FB120E29
:1039C000B7EAF514600AE50AC395145003850A1492
:1039D000E5149003B0F0F50A750B00780A1218860A
:1039E0008E828F83A3A3A3A3A3023C4A8E828F83DC
:1039F000A3A3A3A3A3A3E0F8A3E0F5838882E0F840
:103A0000A3E0F99003B07402F0E885088285098389
:103A1000F0E9023B678E828F83A3A3A3A3A3A3E055
:103A2000F8A3E0F5838882E0FCA3E0FD740612169B
:103A30004FE0FAA3E0FB1208D59003B07402F085C2
:103A40000882850983EAF0A3EB023B688E828F83AC
:103A5000A3A3A3A3A3A3E0F8A3E0F5838882E0F5E2
:103A60000CA3E0F50D9003B07404F085088285097D
:103A700083E50CF0A3E50DF0740A121669AA0CABED
:103A80000D1207798A0A8B0BEA450B7003023B3D46
:103A90008A828B83A3A3A3A3A3A3E0F512A3E0F5DB
:103AA000137402121659880C890D780C121886743A
:103AB0000C12164F12189D7CFF7DFF12077F7404B5
:103AC0001216198B0DEA450D7038850A82850B8315
:103AD000E0F50C750D00780C121886850A82850BAE
:103AE00083A312189D7C027D007A1E7B8212053909
:103AF0007404121619E9700A740212164F74FFF05A
:103B0000A3F0851282851383E06402703C750A027B
:103B1000750B00780A121886851282851383A3E03C
:103B2000FCA3E0FDE5082404FAE43509FB120EBD10
:103B300074021216199003B0E02402800B74021272
:103B4000164FE50CF0A3E50DF0740212164FE08558
:103B50000882850983A3A3F0740212164FA3E0859F
:103B60000882850983A3A3A3F0023CE59003B07407
:103B700001F08E828F83A3A3A3A3A3A3E0F8A3E005
:103B8000F5838882E0850882850983F07C007D00CA
:103B90008E828F83A3A3A3A3E02401FAA3E03400C1
:103BA000FB120779EA4B60558A828B83E02402F886
:103BB0009003B0E028F0EA2404F8E43BF988828915
:103BC00083E0850882850983A3F088828983A3E046
:103BD000850882850983A3A3F08A828B83E0F50A96
:103BE000750B00780A1218868A828B83A3E0FCA3E7
:103BF000E0FDE5082403FAE43509FB80579003B0A3
:103C0000E02404F07C047D00790085088285098326
:103C1000A3AA82AB83120ED5023CE58E828F83A3CA
:103C2000A3A3A3A3A3E0F8A3E0F9E8FAE9FB8A823F
:103C30008B83E09003B0F08A828B83E0F50A750BEA
:103C400000780A1218868A828B83A3E0FCA3E0FD29
:103C5000AA08AB09120EBD7402121619023CE590B7
:103C600003AEE0F8A3E0F9E849607788828983A38E
:103C7000A3E065127004A3E065138882898370E273
:103C8000A3A3A3A3E0F8A3E0F988828983E5824592
:103C900083604FE0F50CA3E0F50DE50C450D6042A7
:103CA000780B12188AE4F512F5137812121886753B
:103CB00012B075130378121218867808121886A9A4
:103CC0000AEEFCEFFD740D12164FE0FAA3E0FB853F
:103CD0000C82850D831216717407121619E9F50E00
:103CE0008003750E0E850E08E5086003023E11E59F
:103CF0000F7065E4F50AF50B780A1218867CFF7DD3
:103D0000FF7909740212164FE0F8A3E0F583888268
:103D1000A3A3E0FAA3E0FB12082174021216198A89
:103D20000A8B0BA80AA90B9003B5E8F0A3E9F0E809
:103D3000497019740C12164FE0F8A3E0F5838882DD
:103D4000E516F0A3E517F07911023E6D9003B0E09F
:103D500024029003B4F080179003B4E0FA9003B00B
:103D6000E0790024025001096A496003023E15E52A
:103D70001024FCFCE51134FFFD9003B0E0FAE50FE0
:103D80002AF8E43400F9EC98ED995003023E11EE64
:103D90002404F8E43FF988828983E0C0E0AA0F9008
:103DA00003B5E02AFCA3E034008C82F583D0E0F078
:103DB000050F88828983A3E0C0E0A80F9003B5E0D7
:103DC00028FAA3E034008A82F583D0E0F0050F9052
:103DD00003B0E0F50A750B00780A1218869003B15B
:103DE000E0FCA3E0FDA80F9003B5E028FAA3E034BF
:103DF00000FB120EBD74021216199003B0E0250FDD
:103E0000F50F74FF6516700474FF651760030237C1
:103E10002FE50F603B9003B4E0F5F0E50F849003CD
:103E2000B3F07CB37D03851882851983E0F8A3E0A5
:103E3000F5838882A3A3E0FAA3E0FB120473E96090
:103E40000B9003B5E0FAA3E0FB120F2F7900801D61
:103E5000E508700375080A740C12164FE0F8A3E029
:103E6000F5838882E516F0A3E517F0A908740E0221
:103E7000442674E812167374F612160374081216A8
:103E80004FECF0A3EDF08A148B15EA2405F516E447
:103E90003515F5177406121669851682851783E0A5
:103EA000FAA3E0FB1207798A088B09AE08AF09EE86
:103EB0004F70030244037404121659880889097864
:103EC000081218867CFF7DFF790B85148285158387
:103ED000A3A3E0FAA3E0FB12082174021216198AC8
:103EE000088B09A808A9099003B4E8F0A3E9F0E851
:103EF000497022851682851783E0F8A3E0F97408DB
:103F000012164FE0FAA3E0F5838A82E8F0A3E9F005
:103F10007911024424851482851583A3A3A3A3E009
:103F2000F511740412164FE0F50B740612164FE0EB
:103F3000F50EA3E0F50F851482851583A3A3E0F5A4
:103F40000CA3E0F50D750A008E828F83A3A3A3E076
:103F5000A2E450659003AEE0F8A3E0F9E8497003ED
:103F60000243CB88828983A3A3E0650E7004A3E09B
:103F7000650F8882898370DFA3A3A3A3E0F8A3E081
:103F8000F988828983E582458370030243CBA3A32A
:103F9000A3A3E0F8A3E0F988828983E582458370D2
:103FA000030243CB790AEEFCEFFDAA0CAB0D12160F
:103FB00071E9F50A60030243CE8E828F83E06402CA
:103FC000600302434AA3E0F8A3E0F988828983E012
:103FD000FAA3E0F8E4C8F9EA28F512E439F5137811
:103FE00012121910010000280128064307000228B8
:103FF0003541032857420029DB4001299E40022910
:1040000004410329DB4004290C404A438E828F83FC
:10401000A3A3A3A3A3A3E0F8A3E0F99003B37407B9
:10402000F088828983E0850882850983F088828907
:1040300083A3E0850882850983A3F0E82402FAE4DB
:1040400039FB8A828B83E0850882850983A3A3F0EC
:104050008A828B83A3E0850882850983A3A3A3F0CA
:1040600088828983A3A3A3A3E0850882850983A30B
:10407000A3A3A3F0E82405F850010988828983E00E
:10408000850882850983A3A3A3A3A3F088828983DB
:10409000A3E0850882850983A3A3A30242508E82F0
:1040A0008F83A3A3A3A3A3A3E0FAA3E0FB120EB7FD
:1040B000EAF510600AE50BC395105003850B10E577
:1040C000109003B3F0F50C750D00780C1218868E65
:1040D000828F83A3A3A3A3A30243358E828F83A3DE
:1040E000A3A3A3A3A3E0F8A3E0F5838882E0F8A349
:1040F000E0F99003B37402F0E8850882850983F043
:10410000E90242528E828F83A3A3A3A3A3A3E0F864
:10411000A3E0F5838882E0FCA3E0FDAA0CAB0D12BE
:1041200008D59003B37402F0850882850983EAF00C
:10413000A3EB0242538E828F83A3A3A3A3A3A3E086
:10414000F8A3E0F5838882E0F50CA3E0F50D900379
:10415000B37404F0850882850983E50CF0A3E50DAE
:10416000F07402121669AA0CAB0D1207798A0E8B35
:104170000FAE0EAF0FEE4F70030242258E828F837B
:10418000A3A3A3A3A3A3E0F50CA3E0F50DA818A98E
:1041900019880E890F780E121886740412164F12A1
:1041A000189D7CFF7DFF12077F74041216198B0F78
:1041B000EA450F70358E828F83E0F50E750F00781B
:1041C0000E1218868E828F83A312189D7C027D00AA
:1041D0007A1E7B821205397404121619E9700B8558
:1041E000188285198374FFF0A3F0850C82850D83F6
:1041F000E06402703D750E02750F00780E1218868D
:10420000850C82850D83A3E0FCA3E0FDE508240472
:10421000FAE43509FB120EBD74021216199003B3AD
:10422000E02402800C851882851983E50CF0A3E553
:104230000DF0851882851983E0850882850983A39E
:10424000A3F0851882851983A3E0850882850983F8
:10425000A3A3A3F00243CE9003B37401F08E828F28
:1042600083A3A3A3A3A3A3E0F8A3E0F5838882E03C
:10427000850882850983F07C007D008E828F83A370
:10428000A3A3A3E02401FAA3E03400FB120779EA18
:104290004B60558A828B83E02402F89003B3E028B8
:1042A000F0EA2404F8E43BF988828983E0850882F7
:1042B000850983A3F088828983A3E0850882850924
:1042C00083A3A3F08A828B83E0F50C750D00780C34
:1042D0001218868A828B83A3E0FCA3E0FDE5082404
:1042E00003FAE43509FB80579003B3E02404F07C23
:1042F000047D007900850882850983A3AA82AB83A7
:10430000120ED50243CE8E828F83A3A3A3A3A3A3B1
:10431000E0F8A3E0F9E8FAE9FB8A828B83E09003F6
:10432000B3F08A828B83E0F50C750D00780C1218BF
:10433000868A828B83A3E0FCA3E0FDAA08AB091266
:104340000EBD74021216190243CE9003AEE0F8A31C
:10435000E0F9E849607588828983A3A3E0650E705F
:1043600004A3E0650F8882898370E2A3A3A3A3E07E
:10437000F8A3E0F988828983E5824583604DE0F502
:104380000EA3E0F50FE50E450F6040E511F50A7844
:104390000A12188AE4F512F51378121218867512AB
:1043A000B375130378121218867808121886A90BB1
:1043B000EEFCEFFDAA0CAB0D850E82850F83121665
:1043C000717407121619E9F50A8003750A0EAE0A10
:1043D000EE70197CB37D03851482851583A3A3E059
:1043E000FAA3E0FB120479E97009803674166E7046
:1043F000027E009003B4E0FAA3E0FB120F2FEE70F0
:1044000004801F7E01851682851783E0F8A3E0F9FA
:10441000740812164FE0FAA3E0F5838A82E8F0A34D
:10442000E9F0EEF9740A1216197F1002174574E8C4
:1044300012167374F4121603740A12164FECF0A3DA
:10444000EDF08A168B17EA2405F8E43517F97402A3
:1044500012164FE8F0A3E9F07408121669740212FC
:10446000164FE0F8A3E0F5838882E0FAA3E0FB12A0
:1044700007798A0A8B0BEA450B7003024A4D7406D2
:104480001216598808890978081218867CFF7DFF62
:10449000790D851682851783A3A3E0FAA3E0FB12AA
:1044A000082174021216198A088B09A808A9099014
:1044B00003B4E8F0A3E9F0E8497029740212164F3A
:1044C000E0F8A3E0F5838882E0F8A3E0F9740A122B
:1044D000164FE0FAA3E0F5838A82E8F0A3E9F079C9
:1044E00011024A75851682851783A3A3A3A3E0F55D
:1044F0000F740612164FE0F50E740212164FE0F814
:10450000A3E0F5838882A3A3E0FEA3E0FF74081272
:10451000164FE0F514A3E0F515851682851783A3E1
:10452000A3E0F512A3E0F513750C00850A82850B54
:1045300083A3A3A3E0A2E450659003AEE0F8A3E058
:10454000F9E8497003024A1588828983A3A3E065CC
:10455000147004A3E065158882898370DFA3A3A388
:10456000A3E0F8A3E0F988828983E582458370039C
:10457000024A15A3A3A3A3E0F8A3E0F988828983E4
:10458000E58245837003024A15790AAC0AAD0BAA8D
:1045900012AB13121671E9F50C6003024A18850A72
:1045A00082850B83E064026003024995A3E0F8A3CF
:1045B000E0F988828983E0FAA3E0F8E4C8F9EA2800
:1045C000F510E439F51178101219100100002801D6
:1045D000284549070002286B4703288B480029FF1C
:1045E0004601298E46022931470329FF460429F353
:1045F000459549EE4F600302498F850A82850B83FA
:10460000A3A3A3A3A3A3E0F8A3E0F99003B37407C3
:10461000F088828983E0850882850983F088828911
:1046200083A3E0850882850983A3F0E82402FAE4E5
:1046300039FB8A828B83E0850882850983A3A3F0F6
:104640008A828B83A3E0850882850983A3A3A3F0D4
:1046500088828983A3A3A3A3E0850882850983A315
:10466000A3A3A3F0E82405F850010988828983E018
:10467000850882850983A3A3A3A3A3F088828983E5
:10468000A3E0850882850983A3A3A3024884850A41
:1046900082850B83A3A3A3A3A3A3E0FAA3E0FB1249
:1046A0000EB7EAF50DC39EE49F404EEA6E4F7005CB
:1046B000750D00801FA80EEE28FAE43FFBA80DC37D
:1046C000EA98EB94005005850E0D8008EEC50DC3E9
:1046D000950DF50DE50D9003B3F0F50E750F00780F
:1046E0000E121886850A82850B83A3A3A3A3A3A316
:1046F000E02EFCA3E03F02497F750C07024A18EE4A
:104700004F600302498F850A82850B83A3A3A3A36D
:10471000A3A3E0F8A3E0F5838882E0F8A3E0F99092
:1047200003B37402F0E8850882850983F0E9024842
:1047300086EE4F600302498F850A82850B83A3A30F
:10474000A3A3A3A3E0F8A3E0F5838882E0FCA3E0A1
:10475000FDAA12AB131208D59003B37402F08508BA
:1047600082850983EAF0A3EB024887EE4F600302DB
:10477000498F850A82850B83A3A3A3A3A3A3E0F893
:10478000A3E0F5838882E0FEA3E0FF9003B3740406
:10479000F0EE850882850983F0EFA3F07404121609
:1047A00069EEFAEFFB1207798A0A8B0BEA450B7068
:1047B0000302485B8A828B83A3A3A3A3A3A3E0FE87
:1047C000A3E0FFA818A919880E890F780E12188681
:1047D000740612164F12189D7CFF7DFF12077F741E
:1047E000041216198B0FEA450F7039850A82850B62
:1047F00083E0F50E750F00780E121886850A828503
:104800000B83A312189D7C027D007A1E7B82120509
:10481000397404121619E9700B851882851983748E
:10482000FFF0A3F08E828F83E064027039750A0274
:10483000750B00780A1218868E828F83A3E0FCA382
:10484000E0FDE5082404FAE43509FB120EBD74020C
:104850001216199003B3E02402800A851882851984
:1048600083EEF0A3EFF0851882851983E085088236
:10487000850983A3A3F0851882851983A3E08508A1
:1048800082850983A3A3A3F0024A18EE4F600302B6
:10489000498F9003B37401F0850A82850B83A3A32B
:1048A000A3A3A3A3E0F8A3E0F5838882E0850882B0
:1048B000850983F07C007D00850A82850B83A3A394
:1048C000A3A3E02401FAA3E03400FB120779EA4B2A
:1048D00060558A828B83E02402F89003B3E028F0CD
:1048E000EA2404F8E43BF988828983E0850882851C
:1048F0000983A3F088828983A3E0850882850983E0
:10490000A3A3F08A828B83E0F50A750B00780A1264
:1049100018868A828B83A3E0FCA3E0FDE5082403CC
:10492000FAE43509FB805D9003B3E02404F07C04D5
:104930007D007900850882850983A3AA82AB831252
:104940000ED5024A18EE4F7046850A82850B83A366
:10495000A3A3A3A3A3E0F8A3E0F9E8FAE9FB8A8202
:104960008B83E09003B3F08A828B83E0F50A750BAA
:1049700000780A1218868A828B83A3E0FCA3E0FDEC
:10498000AA08AB09120EBD7402121619024A187554
:104990000C0B024A189003AEE0F8A3E0F9E8496076
:1049A0007488828983A3A3E065147004A3E065156D
:1049B0008882898370E2A3A3A3A3E0F8A3E0F98827
:1049C000828983E5824583604CE0F510A3E0F51110
:1049D000E5104511603FE50FF50C780C12188A8E32
:1049E000148F1578141218867514B375150378147E
:1049F0001218867808121886A90EAC0AAD0BAA12F6
:104A0000AB13851082851183121671740712161963
:104A1000E9F50C8003750C0EAE0CEE70197CB37DBD
:104A200003851682851783A3A3E0FAA3E0FB120493
:104A30007FE97009803D74166E70027E009003B4A9
:104A4000E0FAA3E0FB120F2FEE700480267E0174C3
:104A50000212164FE0F8A3E0F5838882E0F8A3E0A5
:104A6000F9740A12164FE0FAA3E0F5838A82E8F09F
:104A7000A3E9F0EEF9740C02442674E9121673747B
:104A8000F4121603851882851983EAF0A3EBF074FB
:104A90000612164FECF0A3EDF0851882851983E01D
:104AA0002405F8A3E03400F9740412164FE8F0A3CB
:104AB000E9F0851882851983E0F8A3E0F583888200
:104AC000A3A3E0FAA3E0FB1205458A088B09AE0810
:104AD000AF097508007C037D0079007AB37B03126F
:104AE0000ED57516008062EE24FFFCEF34FFFD90BA
:104AF00003B3E0FA9003B0E0F8EA28F8E43400F9F0
:104B0000EC98ED99500D9003B3E0F8EE14C3989033
:104B100003B0F0E0F50A750B00780A1218869003CE
:104B2000B1E0FCA3E0FD9003B3E0F8A3E028FAA312
:104B3000E03400FB120EBD74021216199003B0E0AF
:104B4000F89003B3E028F00516740412164FE0F84D
:104B5000A3E0F5838882A3A3E0F8E516C398400399
:104B60000251879003B3E0F8EE24FFFAEF34FFFB25
:104B7000C3E89AE49B4003025187A816E828F8E4AA
:104B800033F9740412164FE0FAA3E0F5838A82E049
:104B900028F8A3E039F988828983740A121669E03B
:104BA000FAA3E0F8E4C8F9EA28E439FB1207798AA5
:104BB0000A8B0BEA450B705A750801A816E828F80D
:104BC000E433F9740412164FE0FAA3E0F5838A8205
:104BD000E028F8A3E039F988828983E0FAA3E0F9B4
:104BE000EAF8740612164FE0FAA3E0F5838A82E829
:104BF000F0A3E9F09003B4E0F8A3E0F9E849600B12
:104C00009003B4E0FAA3E0FB120F2FA908740C0282
:104C1000689A851882851983E0F8A3E0F583888275
:104C2000A3A3A3A3E0F50DEE14F50C9003B1E0F5FA
:104C300008A3E0F509740A12164FE0F514A3E0F595
:104C400015851882851983A3E0F5838882A3A3E0E4
:104C5000F510A3E0F511750E008A828B83A3A3A340
:104C6000E0A2E450659003AEE0F8A3E0F9E84970F3
:104C7000030250EA88828983A3A3E065147004A329
:104C8000E065158882898370DFA3A3A3A3E0F8A35E
:104C9000E0F988828983E582458370030250EAA3A4
:104CA000A3A3A3E0F8A3E0F988828983E582458382
:104CB00070030250EA790AAC0AAD0BAA10AB1112CC
:104CC0001671E9F50E60030250ED850A82850B83AB
:104CD000E06402600302506DA3E0F8A3E0F988826B
:104CE0008983E0FAA3E0F8E4C8F9EA28F512E43988
:104CF000F513781212191001000028012827500717
:104D0000000228524E0328744F0029F44D0129B3A4
:104D10004D02291F4E0329F44D04291F4D6D508566
:104D20000A82850B83A3A3A3A3A3A3E0F8A3E0F9BE
:104D30009003B07407F088828983E0850882850932
:104D400083F088828983A3E0850882850983A3F0A4
:104D5000E82402FAE439FB8A828B83E085088285A5
:104D60000983A3A3F08A828B83A3E0850882850947
:104D700083A3A3A3F088828983A3A3A3A3E08508C8
:104D800082850983A3A3A3A3F0E82405F8500109B1
:104D900088828983E0850882850983A3A3A3A3A3CE
:104DA000F088828983A3E0850882850983A3A3A371
:104DB000024F6D850A82850B83A3A3A3A3A3A3E05F
:104DC000FAA3E0FB120EB7EAF512600AE50CC395F0
:104DD000125003850C12E5129003B0F0F50C750D1E
:104DE00000780C121886850A82850B83A3A3A3A3DF
:104DF000A3025058850A82850B83A3A3A3A3A3A370
:104E0000E0F8A3E0F5838882E0F8A3E0F99003B02E
:104E10007402F0E8850882850983F0E9024F6F8506
:104E20000A82850B83A3A3A3A3A3A3E0F8A3E0F5C1
:104E3000838882E0FCA3E0FDAA10AB111208D59094
:104E400003B07402F0850882850983EAF0A3EB02BF
:104E50004F70850A82850B83A3A3A3A3A3A3E0F8C5
:104E6000A3E0F5838882E0F50CA3E0F50D9003B094
:104E70007404F0850882850983E50CF0A3E50DF044
:104E80007408121669AA0CAB0D1207798A0A8B0BEB
:104E9000EA450B7003024F458A828B83A3A3A3A329
:104EA000A3A3E0F50CA3E0F50D74021216598810C7
:104EB00089117810121886740A12164F12189D7CE8
:104EC000FF7DFF12077F74041216198B11EA45113A
:104ED0007038850A82850B83E0F510751100781013
:104EE000121886850A82850B83A312189D7C027D89
:104EF000007A1E7B821205397404121619E9700AB1
:104F0000740212164F74FFF0A3F0850C82850D8396
:104F1000E06402703C750A02750B00780A1218866C
:104F2000850C82850D83A3E0FCA3E0FDE508240445
:104F3000FAE43509FB120EBD74021216199003B083
:104F4000E02402800B740212164FE50CF0A3E50D6D
:104F5000F0740212164FE0850882850983A3A3F03E
:104F6000740212164FA3E0850882850983A3A3A3C8
:104F7000F00250ED9003B07401F0850A82850B8336
:104F8000A3A3A3A3A3A3E0F8A3E0F5838882E0850D
:104F90000882850983F07C007D00850A82850B8369
:104FA000A3A3A3A3E02401FAA3E03400FB12077932
:104FB000EA4B60558A828B83E02402F89003B0E0CC
:104FC00028F0EA2404F8E43BF988828983E0850824
:104FD00082850983A3F088828983A3E0850882857E
:104FE0000983A3A3F08A828B83E0F50A750B00780E
:104FF0000A1218868A828B83A3E0FCA3E0FDE508F1
:105000002403FAE43509FB80599003B0E02404F04E
:105010007C047D007900850882850983A3AA82AB80
:1050200083120ED50250ED850A82850B83A3A3A3BC
:10503000A3A3A3E0F8A3E0F9E8FAE9FB8A828B8353
:10504000E09003B0F08A828B83E0F50A750B00785C
:105050000A1218868A828B83A3E0FCA3E0FDAA08CB
:10506000AB09120EBD74021216190250ED9003AE78
:10507000E0F8A3E0F9E849607188828983A3A3E09E
:1050800065147004A3E065158882898370E2A3A388
:10509000A3A3E0F8A3E0F988828983E582458360D1
:1050A00049E0F50EA3E0F50FE50E450F603C780DE5
:1050B00012188AE4F514F51578141218867514B0D0
:1050C00075150378141218867808121886A90CAC86
:1050D0000AAD0BAA10AB11850E82850F83121671D3
:1050E0007407121619E9F50E8003750E0E850E0869
:1050F000E5086003024BBB9003B4E0F8A3E0F9E8D5
:10510000496003024AE7E4F50AF50B780A121886AB
:105110007CFF7DFF790F740212164FE0F8A3E0F5D3
:10512000838882A3A3E0FAA3E0FB12082174021291
:1051300016198A0A8B0BA80AA90B9003B4E8F0A3EE
:10514000E9F0E8496003024AE7A816E828F8E433E2
:10515000F9740412164FE0FAA3E0F5838A82E0287E
:10516000F8A3E039F988828983E0FAA3E0F9EAF844
:10517000740612164FE0FAA3E0F5838A82E8F0A3E2
:10518000E9F07911024C0D7CB37D038518828519F5
:1051900083E0F8A3E0F5838882A3A3E0FAA3E0FB11
:1051A000120485E96003024BF47900024C0D74E9A6
:1051B00012167374F2121603851882851983EAF0A9
:1051C000A3EBF0740A12164FECF0A3EDF0851882F1
:1051D000851983E02405F8A3E03400F9740212165F
:1051E0004FE8F0A3E9F0851882851983E0F8A3E081
:1051F000F5838882A3A3E0FAA3E0FB1205458A1297
:105200008B13750A007508007406121659880C89EC
:105210000D780C121886740412164FE0F8A3E0F50E
:10522000838882A3A3A3A3E0F50C750D00780C126C
:105230001886740612164FE02405F50CA3E034001E
:10524000F50D780C121886740812164FE0F8A3E0DA
:10525000F5838882A3A3E0FCA3E0FD740812164F37
:10526000A3E0F5838882E0FAA3E0FB1207737406DB
:105270001216198A0C8B0DAE0CAF0D805CA80A902B
:1052800003B5E028FAA3E034008A82F58374FFF0C6
:10529000050A089003B5E028FAA3E034008A82F5F5
:1052A0008374FFF0050A9003B0E0F50C750D0078EB
:1052B0000C1218869003B1E0FCA3E0FDA80A90034D
:1052C000B5E028FAA3E03400FB120EBD74021216FA
:1052D000199003B0E0250AF50AEE4F700302580654
:1052E000740612164FE0FCA3E0FD8E828F83A3A309
:1052F000A3E0F9851882851983E0F8A3E0F5838897
:1053000082A3A3E0FAA3E0FB120761E9F5086003BA
:105310000257E7851882851983E0F8A3E0F58388B2
:1053200082A3A3A3A3E0F50DE51224FAF50C9003E4
:10533000B1E0F508A3E0F509740612164FE0F51484
:10534000A3E0F515851882851983A3E0F58388828B
:10535000A3A3E0F510A3E0F511750B008E828F83F7
:10536000A3A3A3E0A2E450659003AEE0F8A3E0F9A4
:10537000E84970030257DD88828983A3A3E065149E
:105380007004A3E065158882898370DFA3A3A3A3BB
:10539000E0F8A3E0F988828983E5824583700302FF
:1053A00057DDA3A3A3A3E0F8A3E0F988828983E5EE
:1053B00082458370030257DD790AEEFCEFFDAA10E7
:1053C000AB11121671E9F50B60030257E08E828F64
:1053D00083E06402600302575CA3E0F8A3E0F9886D
:1053E000828983E0FAA3E0F8E4C8F9EA28F50EE43C
:1053F00039F50F780E1219100100002801281857EE
:10540000070002284955032869560029EF5401294D
:10541000B254022918550329EF54042920545C572B
:105420008E828F83A3A3A3A3A3A3E0F8A3E0F990A4
:1054300003B07407F088828983E085088285098338
:10544000F088828983A3E0850882850983A3F0E838
:105450002402FAE439FB8A828B83E085088285097D
:1054600083A3A3F08A828B83A3E0850882850983C6
:10547000A3A3A3F088828983A3A3A3A3E0850882C2
:10548000850983A3A3A3A3F0E82405F850010988A4
:10549000828983E0850882850983A3A3A3A3A3F05F
:1054A00088828983A3E0850882850983A3A3A30258
:1054B00056628E828F83A3A3A3A3A3A3E0FAA3E0E3
:1054C000FB120EB7EAF516600AE50CC395165003F9
:1054D000850C16E5169003B0F0F50C750D00780CF0
:1054E0001218868E828F83A3A3A3A3A30257478E8D
:1054F000828F83A3A3A3A3A3A3E0F8A3E0F58388EB
:1055000082E0F8A3E0F99003B07402F0E885088225
:10551000850983F0E90256648E828F83A3A3A3A337
:10552000A3A3E0F8A3E0F5838882E0FCA3E0FDAA52
:1055300010AB111208D59003B07402F08508828573
:105540000983EAF0A3EB0256658E828F83A3A3A39F
:10555000A3A3A3E0F8A3E0F5838882E0F50CA3E021
:10556000F50D9003B07404F0850882850983E50C7D
:10557000F0A3E50DF0740C121669AA0CAB0D12071E
:10558000798A0E8B0FEA450F700302563A8A828B96
:1055900083A3A3A3A3A3A3E0F50CA3E0F50D7404D8
:1055A000121659881089117810121886740E121666
:1055B0004F12189D7CFF7DFF12077F74041216198D
:1055C0008B11EA45117038850E82850F83E0F51046
:1055D0007511007810121886850E82850F83A3122C
:1055E000189D7C027D007A1E7B821205397404129C
:1055F0001619E9700A740412164F74FFF0A3F085AF
:105600000C82850D83E06402703C750E02750F00FC
:10561000780E121886850C82850D83A3E0FCA3E02A
:10562000FDE5082404FAE43509FB120EBD740212EC
:1056300016199003B0E02402800B740412164FE593
:105640000CF0A3E50DF0740412164FE08508828576
:105650000983A3A3F0740412164FA3E08508828582
:105660000983A3A3A3F00257E09003B07401F08E66
:10567000828F83A3A3A3A3A3A3E0F8A3E0F5838869
:1056800082E0850882850983F07C007D008E828F10
:1056900083A3A3A3A3E02401FAA3E03400FB120731
:1056A00079EA4B60558A828B83E02402F89003B03C
:1056B000E028F0EA2404F8E43BF988828983E08555
:1056C0000882850983A3F088828983A3E085088204
:1056D000850983A3A3F08A828B83E0F50C750D0006
:1056E000780C1218868A828B83A3E0FCA3E0FDE588
:1056F000082403FAE43509FB80579003B0E0240442
:10570000F07C047D007900850882850983A3AA8244
:10571000AB83120ED50257E08E828F83A3A3A3A37F
:10572000A3A3E0F8A3E0F9E8FAE9FB8A828B83E01F
:105730009003B0F08A828B83E0F50C750D00780C35
:105740001218868A828B83A3E0FCA3E0FDAA08AB33
:1057500009120EBD74021216190257E09003AEE052
:10576000F8A3E0F9E849607588828983A3A3E0651E
:10577000147004A3E065158882898370E2A3A3A353
:10578000A3E0F8A3E0F988828983E5824583604D30
:10579000E0F50EA3E0F50FE50E450F6040E50DF5D1
:1057A0000B780B12188AE4F514F515781412188684
:1057B0007514B075150378141218867808121886B7
:1057C000A90CEEFCEFFDAA10AB11850E82850F83AC
:1057D0001216717407121619E9F50B8003750B0E7A
:1057E000850B08E50860628E828F83A3A3A3A3E0E4
:1057F000F8A3E0F9740A12164FE0FAA3E0F5838AE1
:1058000082E8F0A3E9F0E50A70030259B09003B40E
:10581000E0F5F0E50A849003B3F07CB37D038518CE
:1058200082851983E0F8A3E0F5838882A3A3E0FAD8
:10583000A3E0FB12048BE9600B9003B5E0FAA3E050
:10584000FB120F2F79000259DDE50A7070E4F50CA8
:10585000F50D780C1218867CFF7DFF791174021209
:10586000164FE0F8A3E0F5838882A3A3E0FAA3E053
:10587000FB12082174021216198A0C8B0DA80CA9B0
:105880000D9003B5E8F0A3E9F0E84970248E828F0B
:1058900083A3A3A3A3E0F8A3E0F9740A12164FE0D0
:1058A000FAA3E0F5838A82E8F0A3E9F079110259BE
:1058B000DD9003B0E024049003B4F080349003B48E
:1058C000E0FA9003B0E0790024045001096A4960CD
:1058D0000302580DE51224FAFCE51334FFFDE0FA4B
:1058E000E50A2AF8E43400F9EC98ED9950030258DF
:1058F0000DEE2404F8E43FF988828983E0C0E0AA31
:105900000A9003B5E02AFCA3E034008C82F583D032
:10591000E0F0050A88828983A3E0C0E0A80A90032A
:10592000B5E028FAA3E034008A82F583D0E0F005E0
:105930000A7408121659880C890D780C121886748E
:105940000812164F12189D740612164FE0F8A3E0C5
:10595000F5838882A3A3E0FCA3E0FDEEFAEFFB123F
:10596000077F74041216198A0C8B0DAE0CAF0DEE66
:105970004F700302527D740812164FE0C0E0A80A6F
:105980009003B5E028FAA3E034008A82F583D0E0E2
:10599000F0050A740812164FA3E0C0E0089003B5A2
:1059A000E028FAA3E034008A82F583D0E00252A313
:1059B000E508700375080A740212164FE0F8A3E0B8
:1059C000F5838882E0F8A3E0F9740A12164FE0FA32
:1059D000A3E0F5838A82E8F0A3E9F0A908740E0237
:1059E000689A74F212167374FE1216038A088B09F1
:1059F0008C0A8D0BEA2405FEE43509FFAC18AD19BD
:105A00008E828F83E0FAA3E0FB1207798A0C8B0D5C
:105A1000AC0CAD0DEC4D7003025B338C828D83A317
:105A2000A3A3E0A2E5506C851882851983E0FAA350
:105A3000E0FB9003AEE0F8A3E0F9E84960668882F5
:105A40008983A3A3E06A7003A3E06B8882898370D3
:105A5000E4A3A3A3A3E0F8A3E0F988828983E58205
:105A600045836040A3A3A3A3E0F8A3E0F9890DE870
:105A7000450D60307912850882850983A3A3E0FA79
:105A8000A3E0FB8882850D83121671E9F50C600393
:105A9000025B368E828F83A3A3A3A3A3A3E0600A35
:105AA00079528012750C0E025B3685088285098357
:105AB000A3A3A3A3E0F9E4F50CF50D780C12188666
:105AC0008E828F83A3A3E0F50C780C1218868E8249
:105AD0008F83A3A3A312189D8E828F83E0FCA3E083
:105AE000FD850882850983A3A3E0FAA3E0FB1208E1
:105AF000A57406121619E9F50C701F8E828F83A308
:105B0000A3A3A3A3A3E07042850882850983A3A36E
:105B1000E0FAA3E0FB12049180307416650C701655
:105B2000750C00741012164FE0F8A3E0F58388821C
:105B3000E48016750C018E828F83E0F8A3E0F9856E
