:020000040000FA
:06000000020107022A3D87
:03002B00022E356D
:03003300022E6139
:03005300022AB3CB
:10008300022893E5C754F84401F5C779012200001B
:100093000080FB120086B900030200F1E4792178A5
:1000A3000FB800028004F709D8FCE479307802B86D
:1000B30000028004F709D8FCE4900281784D791896
:1000C3008002F0A3D8FCD9FA7ACD7B199001377856
:1000D3006779028015E493A3AD82AE838A828B8312
:1000E300F0A3AA82AB838D828E83D8E9D9E7758288
:1000F300857583F9740412011975829175830074EF
:100103000012011975D00075813F751881751902A8
:10011300759F00020096C09FF59FE473D09F22D085
:1001230083D082C09FE493C0E0740193C0E0740263
:1001330093F59F228F049B04D104CB04FF0000B4EA
:10014300000028002800283075A000A000A000A00F
:100153000000080008E001F000100010001000107B
:10016300001000100050005000500010001000D08C
:10017300070000000000000F0001000500307507B4
:10018300001000010081FF00000000FFFFFF2D06AB
:100193004B0633068D06FF02020208025000A00040
:1001A3000000E803029C910100008D9102A49101DB
:1001B3000000301A029291010000C80202A49101CA
:1001C3000000311A029091010000DE0202A49101A5
:1001D3000000321A02A691010000E00202A491017C
:1001E3000000331A02A091080000E10202A4910169
:1001F3000000341A029691010000351AFFFF010036
:10020300FF20029C910100008A9102A49101000049
:100213009A1A02DA90000000000002949103000091
:1002230011031700971197119711971197119711B0
:1002330097119711971197119711971197111914F6
:10024300371413145D156F155715544920424C4547
:1002530020416C6C00000000000000000000001151
:1002630000FFFF0000033000310032003300340090
:1002730035003600370038003900300031003200D5
:100283003300340035003600370038003900111CC4
:10029300661C661C661C661C6E1C120122CFD404ED
:1002A300120122E2D4041201223CD5041201225D80
:1002B300D504120122C8D50412012209D604120161
:1002C300222AD6041201224BD6041201229BD60401
:1002D300120122DCD60412012274D704120122BCBB
:1002E300D704120122E7D70412012218CA0412010B
:1002F300222BCA041201225CCA0412012296CA04E8
:10030300120122EFCA0412012236CB041201227E0B
:10031300CB04120122ADCB04120122DCCB04120167
:100323002213CC041201225ACC0412012273CC04EE
:10033300120122C8CC04120122E1CC041201222FA3
:10034300CD0412012269CD041201226FB2031201FE
:100353002272B3031201229FB303120122E4B303F7
:10036300120122F0B30312012213B4031201221566
:10037300B4031201224AB4031201224DB403120141
:10038300228BB403120122C1B40312012258B50314
:10039300120122C4B5031201228CB603120122A852
:1003A300B603120122DFB60312012219B7031201A9
:1003B30022B0B70312012202B80312012233B80399
:1003C30012012236B80312012267B8031201227404
:1003D300B8031201228CB803120122F6B8031201EA
:1003E30022F9B80312012206B90312012209B90343
:1003F30012012260B90312012263B903120122869A
:10040300B90312012299B903120122D2B9031201CD
:1004130022D5B903120122EAB903120122EDB9036D
:100423001201224FBA0312012252BA03120122A669
:10043300BA03120122A9BA031201223CBB0312011F
:10044300224CBB031201227FBB031201228CBB038C
:100453001201228FBB03120122F7BB0312012204F4
:10046300BC0312012206BD03120122AABD0312011D
:100473002213BE0312012251BE031201221FE803FD
:1004830012012217E9031201224BE903120122E1AF
:10049300E9031201222CEA0312012290EA0312015A
:1004A300221AEB03120122D3EB03120122F5EE030E
:1004B30012012272F00312012295F003120122BDF0
:1004C300BD0412012262BF0412012282BF04120181
:1004D30022A3C004120122F6C0041201228696044C
:1004E300120122AE9604120122DB9604120122139A
:1004F3009704120122719704120122CF980412016A
:10050300221B9904120122829904120122C2990426
:10051300120122FF99041201222D9A04120122D7FB
:100523009A04120122E19A04120122EE9A041201A2
:1005330022219B041201222D9B04120122459B04BC
:100543001201224F9B0412012238F70412012246A2
:10055300F7041201225EF70412012276F704120156
:10056300228DF70412012275A8021201221FA9028B
:1005730012012232AA02120122AEAA02120122CCD5
:10058300AB0212012208AC021201229DAC0212013D
:100593002238AD021201221CAE02120122DFAE028A
:1005A30012012257AF02120122E5B00212012256B4
:1005B300B10212012210B20212012202B30212018D
:1005C3002242B302120122F6B30212012228B4021C
:1005D3001201221EB60212012265B6021201228303
:1005E300B602120122E9B602120122B8B7021201C1
:1005F300227CB8021201229BBA02120122A5BA027E
:1006030012012287C90312012271CA031201221C9B
:10061300CB0312012266CB0312012203CC03120186
:10062300221CCC0312012236CC03120122E6CC0396
:1006330012012257CD031201223CCE031201227074
:10064300CE0312012269CF03120122A6CF031201A6
:100653002267D003120122CBD00312012235D1032A
:1006630012012267D103120122CFD10312012259B1
:10067300D30312012298D303120122B4D30312012C
:100683002211ED0412012295ED04120122C0ED04A2
:10069300120122DAEE0412012226C6041201223CC0
:1006A300C6041201225AC6041201226BC7041201A6
:1006B3002275C704120122A0C80412012297C9049B
:1006C30012012204CA041201220ECA04120122DDFD
:1006D3009B041201220D9D04120122449D04120168
:1006E300228E9D04120122519F041201229BDE01DE
:1006F3001201224CDF011201225CDF01120122B838
:10070300DF011201224EE0011201220FE101120169
:100713002244E10112012279E10112012290E10157
:1007230012012209E20112012213E2011201222520
:10073300E20112012259E201120122B6E201120181
:100743002209E3011201225EE30112012269E3019E
:1007530012012274E3011201228FE4011201229299
:10076300E40112012295E40112012298E40112012D
:10077300229BE40112012271E5011201224EE601DE
:10078300120122ABE60112012208E70112012283C2
:10079300E70112012291E80112012248E901120145
:1007A3002256EC0112012245EE01120122F7EE015D
:1007B300120122C0EF0112012205F301120122AF3F
:1007C300F301120122D8F40112012294F60112015D
:1007D3002234F70112012287F701120122C6F70121
:1007E30012012299F801120122CDF8011201225AB5
:1007F300F901120122AFBA021201223BBB0212011C
:10080300229FBC02120122ABBC02120122E6BC02EF
:100813001201225DBD0212012266BE021201222DC7
:10082300BF021201228AC002120122A8C0021201D1
:1008330022C5C00212012272C102120122EFC102BB
:1008430012012217C202120122E1C402120122E69E
:10085300C402120122FFC6021201224DC702120175
:1008630022BDC702120122FBC702120122D7C8020E
:1008730012012297C902120122E3C902120122E6E0
:10088300C9021201222ACA0212012272CA021201E9
:1008930022B1CA02120122D3CA0212012207CB02D9
:1008A3001201226ACB021201225EAB0412012267FB
:1008B300AB0412012275AB04120122C8AB0412016E
:1008C30022E7AB041201222CAC0412012270AD0406
:1008D3001201220BAE041201224FAE04120122793F
:1008E300AE04120122E8AE041201222EAF0412015B
:1008F30022A5AF0412012256B00412012203BF0144
:1009030012012213BF01120122B4BF0112012210EE
:10091300C001120122CDC001120122E9C10112015D
:10092300221BC2011201224AC201120122F7C30192
:100933001201226EC601120122DEC801120122D069
:10094300C901120122C9CA01120122D0CC0112012C
:1009530022C4CF01120122F3D001120122F7D201E6
:1009630012012207D40112012296D5011201228716
:10097300D601120122D5D60112012244D701120158
:100983002268D701120122B9D7011201225ADC01D0
:1009930012012269DD011201222FDE01120122421E
:1009A300CC021201224CCC0212012291CC02120180
:1009B30022A5CC02120122DDCC0212012226CD0295
:1009C30012012267CD02120122AACD02120122D402
:1009D300CD021201225DCE0212012208CF021201C2
:1009E3002237CF0212012270CF02120122ABCF02B3
:1009F300120122E0CF021201220AD0021201223395
:100A0300D00212012281D00212012296D0021201D9
:100A130022ABD002120122C0D002120122E8D0027E
:100A23001201222BD10212012240D102120122AB68
:100A3300D102120122BFD102120122DED102120120
:100A430022F2D10212012207D2021201221CD20287
:100A530012012230D20212012274D202120122CADE
:100A6300D20212012204D30212012228D30212015C
:100A73002254D30212012282D302120122ACD302E6
:100A8300120122C1D302120122D6D302120122067D
:100A9300D40212012250D402120122B2D402120152
:100AA30022EDD40212012218D50212012243D502EB
:100AB300120122AED502120122EBD5021201221637
:100AC300D60212012246D6021201227DD60212015B
:100AD30022A7D602120122DFD60212012209D7026F
:100AE30012012246D70212012270D702120122A05C
:100AF300D702120122CAD702120122F4D70212012D
:100B0300221FD80212012248D80212012299D802C8
:100B1300120122DFD8021201220AD9021201226A2B
:100B2300D90212012295D902120122C5D90212015A
:100B33002208DA0212012232DA0212012257DA0201
:100B4300120122DEDA0212012236FA041201222AEB
:100B5300F404120122378D031201221A8E031201AB
:100B630022958E03120122D08E03120122219003BB
:100B7300120122AA9003120122C2920312012254EB
:100B83009503120122069603120122129703120102
:100B930022859803120122DE98031201228799030A
:100BA30012012220A10412012263A104120122E7EF
:100BB300A104120122BAA20412012291A504120176
:100BC30022FFB404120122ACB504120122E0B504E1
:100BD300120122F6B504120122E9B6041201223BE6
:100BE300B70412012272B704120122B1B704120131
:100BF300220BB80412012238B80412012274B8047B
:100C0300120122C6B80412012207B90412012238C4
:100C1300B904120122F3E80412012256E904120175
:100C230022F3E90412012214EA0412012256EA040F
:100C330012012286EA04120122A7EA04120122E227
:100C4300EA0412012202EB0412012231FB03120116
:100C530022BDFB031201227CFC0312012294FD033B
:100C6300120122AEFF0312012238A6031201225DF4
:100C7300A6031201222AA703120122FEA7031201CF
:100C8300226BA803120122C1A8031201225DA9034A
:100C930012012291AA031201226CAB03120122CB8F
:100CA300AB0312012257AC03120122C5AC0312019C
:100CB3002251AD0312012254AD0312012270AD0380
:100CC30012012273AD0312012295AD0312012234E6
:100CD300AE03120122A6AE0312012238AF031201A2
:100CE30022D9AF03120122F9AF0312012241B0034B
:100CF3001201228AB003120122A6B003120122CCF0
:100D0300B00312012246B10312012254B1031201AE
:100D130022E3B1031201224CB20312012271B9047E
:100D2300120122F6B90412012238BA041201221C5C
:100D3300BB0412012289BB04120122CDBB041201A0
:100D43002211BC041201223EBC0412012266BC041F
:100D53001201229EBC04120122DCBC0412012203F4
:100D6300BD041201227DBD04120122A991011201C9
:100D730022A293011201228E9601120122E2960110
:100D83001201220D9701120122E797011201222677
:100D930098011201226D980112012280980112011B
:100DA30022C1980112012203990112012212990111
:100DB3001201223F99011201228D9901120122C6CB
:100DC3009901120122259A01120122459A01120169
:100DD300227E9A01120122A19A01120122379B015C
:100DE3001201226F9B01120122CC9B011201221FCF
:100DF3009C01120122AE9C01120122849F01120167
:100E030022B1A0011201221EA10112012296A10109
:100E1300120122B1A301120122EFA3011201225FE9
:100E2300A5011201228CA501120122D1A5011201F3
:100E330022C5A601120122A9A8011201220BA901B0
:100E43001201225CA90112012277AE01120122C60E
:100E5300AE011201220CAF01120122DEB001120118
:100E630022D9B1011201227AB301120122B0B301D6
:100E7300120122B2B301120122B4B301120122B949
:100E8300B301120122BBB30112012266B4011201A4
:100E93002240B50112012268B50112012293B50166
:100EA300120122BEB501120122F3B501120122186B
:100EB300B60112012237B60112012264B6011201F2
:100EC30022DAB60112012259B701120122A1B70198
:100ED300120122C3B701120122E1B801120122A5B6
:100EE300B901120122D6B90112012235BA01120148
:100EF300225ABA0112012246BB0112012263BB012D
:100F03001201220ABC011201229ABC01120122CF52
:100F1300BC0112012216BD011201224FBD011201B3
:100F23002271BD011201229EBD01120122CEBE011A
:100F3300120122E0BE01120122A3DE0412012215D6
:100F4300DF041201226BDF04120122AFDF0412015E
:100F530022CFDF041201221CE00412012264E00408
:100F6300120122B7E00412012208E1041201226DEA
:100F7300DE03120122ECDE03120122E5E403120177
:100F830022EBE5031201225EE703120122F5E703D8
:100F9300120122E561001201222E62001201225B7E
:100FA30062001201228D6200120122996200120175
:100FB30022A56200120122BC620012012297630083
:100FC300120122F563001201222A64001201225E3B
:100FD30064001201228F6500120122DC65001201F8
:100FE300222266001201228E66001201223267005D
:100FF300120122E86700120122476800120122B899
:101003006800120122166900120122486A001201C7
:1010130022B06B001201227A6C00120122876C004D
:10102300120122C96C00120122D96C00120122FDA7
:101033006C00120122006D00120122EC6D001201FE
:1010430022886E00120122216F00120122B86F0064
:10105300120122E56F001201224370001201228A5D
:101063007000120122DA70001201222A71001201AB
:10107300229C7100120122457200120122F07200BB
:101083001201228F73001201220D740012012254E7
:101093007400120122B87400120122E774001201D5
:1010A30022757500120122C67500120122D3770042
:1010B300120122177800120122627800120122E83D
:1010C30078001201227279001201228B7A00120138
:1010D30022117B00120122367B001201228D7B003C
:1010E300120122A27B00120122EA7B001201225D7F
:1010F3007C00120122A27C00120122AB7D001201AE
:10110300225C7E00120122BA7E00120122167F00A9
:101113001201222F7F00120122B8F1031201220CC7
:10112300F20312012218F203120122E2F203120166
:10113300220FF3031201223DF303120122A9F30349
:10114300120122DFF3031201220FF40312012248DA
:10115300F40312012260F403120122B5F403120115
:1011630022CEF40312012213F50312012226F50302
:1011730012012240F50312012256F50312012274D3
:10118300F6031201229FF70312012289F8031201C9
:101193002278F903120122F77F0012012243A604E9
:1011A300120122C6A90412012213AB04120122BFA9
:1011B30099031201228F9C03120122959C031201B1
:1011C30022259F0312012288A10312012268B00481
:1011D300120122FFB004120122BDB104120122E761
:1011E300B104120122C1B304120122C6B4041201D4
:1011F300220080021201223280021201224F8C024D
:10120300120122A08D02120122A98E0212012228AC
:101213009002120122019102120122509102120145
:10122300226A9102120122AC9102120122B79102A9
:10123300120122009202120122099202120122B526
:1012430092021201228E9302120122D593021201FD
:10125300223D94021201227F9402120122AD9402D4
:10126300120122E894021201221C96021201229F0B
:101273009902120122A59902120122FA9F02120178
:101283002244A4021201222AA8021201226AD104D2
:10129300120122E0D104120122F6D10412012286A6
:1012A300D204120122C3D204120122FDD20412017C
:1012B3002237D304120122AAD304120122EBD3044E
:1012C300120122F4D30412012200D4041201221FBA
:1012D300D40412012249D4041201225ED40412015F
:1012E30022A1D404120122008004120122138004DB
:1012F3001201222D80041201225A8004120122A01D
:101303008004120122D380041201221181041201EC
:10131300227681041201228B810412012296810418
:10132300120122A38104120122BA8104120122C8EC
:101333008104120122D78104120122EC81041201DB
:10134300220182041201220C820412012218820457
:10135300120122258204120122388204120122433F
:1013630082041201226882041201226D8204120196
:10137300220483041201226C83041201227C83045D
:10138300120122918304120122A68304120122C0B6
:101393008304120122DD8304120122FA8304120161
:1013A30022058404120122B18404120122928504CD
:1013B300120122AE8504120122C58504120122D036
:1013C3008504120122E58504120122F98504120124
:1013D300225A8604120122608604120122668604C0
:1013E3001201226C8604120122808604120122A7B4
:1013F3008604120122E28604120122FB86041201F2
:10140300223D870412012270870412012215D4039E
:1014130012012237D403120122FFD403120122B98D
:10142300D703120122CFD803120122F0D9031201EC
:1014330022CADA0312012279DB03120122A2E90292
:1014430012012239EA02120122D1EA02120122C157
:10145300EB02120122F8EB021201220BEC02120141
:101463002279EC0212012214EE021201223BEE0257
:10147300120122DDEE0212012212EF0212012223D7
:10148300EF021201229CEF02120122BDEF021201B0
:1014930022D5EF021201222DF10212012236F302AC
:1014A30012012286F50212012289F602120122D8C4
:1014B300F60212012206DB0212012203DC021201F0
:1014C30022EEDC02120122F8DC0212012202DD020A
:1014D30012012224DD0212012230DD0212012282D6
:1014E300DE02120122B1DE02120122E1DF02120149
:1014F3002223E0021201224FE10212012225E2021D
:1015030012012277E202120122D6E2021201220D17
:10151300E30212012248E302120122E3E60212016E
:1015230022FCE6021201227EE7021201228CE7026C
:10153300120122E1E702120122EFE7021201225C0B
:10154300E802120122CEE80212012214E90212017A
:101553002277BE0312012299BE0312012283C00324
:1015630012012228C4031201226BC5031201224572
:10157300C603120122D6F004120122FBF004120169
:10158300226CF10412012225F7021201222EF70226
:1015930012012237F70212012268F8021201228790
:1015A300FA02120122BDFA02120122F7FA02120113
:1015B300222DFB0212012267FB021201229BFB0276
:1015C300120122C7FB0212012210FC021201224A5D
:1015D300FC0212012292FC02120122E8FC02120117
:1015E300221DFD0212012278FD02120122B2FD0228
:1015F30012012203FE0212012239FE02120122739A
:10160300FE02120122A1FE02120122C4FE021201F5
:101613002200800312012233800312012276800309
:101623001201228180031201228C8003120122976E
:101633008003120122A280031201220C84031201EF
:1016430022EB8403120122648503120122DB85034A
:10165300120122E88503120122F58503120122FFFC
:101663008503120122098603120122138603120144
:10167300222086031201223086031201227686037A
:101683001201229A8603120122A78603120122B7AE
:101693008603120122C18603120122CB86031201A3
:1016A30022D58603120122E28603120122EC86036D
:1016B300120122F686031201220087031201220A75
:1016C30087031201225287031201226F870312013B
:1016D300228C87031201229C8703120122A687030F
:1016E3001201220188031201220E8803120122D063
:1016F3008803120122DA8803120122E4880312010B
:1017030022EE88031201220B890312012228890386
:101713001201229F8903120122A98903120122B611
:101723008903120122C38903120122E489031201EE
:1017330022ED8903120122328A03120122408A0315
:10174300120122628A031201226B8A031201227A96
:101753008A03120122928A031201229B8A03120135
:1017630022298B03120122418B03120122518B0385
:10177300120122618B031201226B8B031201227B64
:101783008B031201228B8B03120122AA8B031201FA
:1017930022B78B03120122C48B03120122D48B03C1
:1017A300120122E18B03120122FE8B031201220E8E
:1017B3008C031201221E8C031201222E8C031201B0
:1017C300225F8C03120122698C03120122798C039C
:1017D300120122898C03120122968C03120122BB6F
:1017E3008C03120122C88C03120122D88C0312012C
:1017F30022E28C03120122EF8C03120122F98C03E3
:10180300120122098D03120122138D031201221DDD
:101813008D031201222D8D0312012297F804120168
:101823002209EF041201226DEF041201221CF004BD
:101833001201223BF0041201228FF004120122E56F
:10184300FF03120122D5FA0412012214FB04120130
:101853002268FB041201221DF8041201222DF80450
:1018630012012245F8041201228EF8041201223ECD
:10187300F504120122C2F50412012228F604120112
:1018830022FA7F0012012249E1041201225EE104DF
:1018930012012262E204120122D6E204120122F0B2
:1018A300E20412012207E3041201221AE3041201E3
:1018B3002232E30412012247E30412012268E30403
:1018C300120122B9E304120122D1CD04120122E54F
:1018D300CD041201225ECE0412012233CF04120181
:1018E3002205D104120122EEE3041201228FE40443
:1018F300120122C8E40412012213E504120122D8C2
:10190300E50412012202E60412012228E604120170
:10191300223CE60412012251E6041201225AE60493
:10192300120122142F00120122AA2F001201226594
:101933003000120122853000120122C03100120151
:1019430022133300120122C33300120122CB3D00C4
:10195300120122C34500120122074F001201227116
:101963005000120122125B00120122B15B0012012E
:1019730022175D00120122896000120122476100D3
:101983001201228261001201229E6100120122DEF5
:10199300F9041201225F7F00120122CA7F001201A3
:1019A30022D57F00120122E57F00120122F07F0081
:1019B300120122D4FF02120122FDFF021201225062
:1019C300FA011201225AFA011201229AFA011201B2
:1019D30022E3FA011201221DFB0112012273FB0112
:1019E30012012292FB011201229BFB01120122EC44
:1019F300FB0112012215FC011201222AFC01120132
:101A03002233FC01120122A3FC0112012231FD0148
:101A130012012275FD011201229DFD011201221CFA
:101A2300FE011201225FFE011201229CFE0112013E
:101A330022BBFE01120122C4FE0112012289FF0111
:101A4300120122D3FF011201228CF204120122DDC2
:101A5300F20412012266F304120122CCF3041201F0
:101A63002230D8041201225AD80412012254D90474
:101A730012012279D9041201221ADA04120122A0D6
:101A8300DA0412012241F604120122E1F9041201DF
:101A93002210EB0412012245EB041201227EEB0417
:101AA300120122D7EC041201220FF904120122259C
:101AB300F9041201222FF904120122F28704120100
:101AC30022AF8804120122EA880412012212890437
:101AD300120122748904120122C0890412012220F6
:101AE3008A04120122B18A04120122AD8B0412016D
:101AF300223A8D04120122BD8D04120122218E048B
:101B0300120122388E041201222E8F0412012203A5
:101B1300C20412012218C204120122CBC204120110
:101B2300220BC30412012224C30412012257C3044B
:101B3300120122A4C304120122D8C3041201221ADF
:101B4300C40412012219C60412012252FF02120117
:101B53002282FF02120122B7FF02120122B9FF0201
:101B6300120122BBFF02120122CCFF02120122CE7C
:101B7300FF02120122D1FF0212012291E604120197
:101B830022FEE60412012220E70412012258E70490
:101B93001201228EE7041201228BDB04120122CDF3
:101BA300DB04120122F0DB0412012228DE041201FD
:101BB3002242DE041201226DDE041201228AFA049B
:101BC3001201227A8F041201225890041201224733
:101BD3009104120122589104120122699104120105
:101BE30022B391041201224F9304120122AF9404F1
:101BF300120122DF9404120122AA95041201220A7F
:101C030096041201221EFB041201224AFB04120154
:101C13000002020000205104AA1609000102030178
:101C230009024300020100801909040000010202B5
:101C3300010005240010010424020205240600010A
:101C43000524010001070582034000400904010047
:101C5300020A000000070584024000010705040290
:101C63004000012C1C00004F1C0000E066701008AF
:101C7300A3E066700A08A3E066700408A3E0662286
:101C8300C3E7960809E7960809E7960809E7962245
:101C9300C3E09608A3E09608A3E09608A3E0962283
:101CA300C008C3E096F50808A3E096420808A3E03D
:101CB30096420808A3E09645087001D3D00822BBDA
:101CC3000102E722C082C08389828A83BB0003E0CA
:101CD3008002E493D083D08222BB000EC082C083F3
:101CE3008A838982F0D083D08222BB0101F7220844
:101CF3000808EAC0E0EBC0E086F0E7A4FA1809861A
:101D0300F0E7A42AFA180986F0E7A42AFA18098644
:101D1300F0E7A42AFA1986F0E7A4FBE5F02AFA19FA
:101D23000886F0E7A42BFBE5F03AFA190886F0E7FA
:101D3300A42BFBE5F03AFA18180986F0E7A4C5F0DE
:101D43002BFBE43AFA1908E7C5F0C6A426F6E5F03A
:101D53003BFBE43AFA1886F0E7A4F6E5F00826F62A
:101D6300E43B08F6E43A08F6D0E0FBD0E0FA22E4DC
:101D7300CFC0E0E4CEC0E0E4CDC0E0E4CCC0E07589
:101D8300F020E626F608E633F608E633F608E633EF
:101D9300F6181818EC33FCED33FDEE33FEEF33FF8A
:101DA300C3EC9709ED9709EE9709EF9719191940B5
:101DB3000FFFEC97FC09ED97FD09EE97FE19190645
:101DC300D5F0BFECF709EDF709EEF709EFF71919AD
:101DD30019D0E0FCD0E0FDD0E0FED0E0FF22601699
:101DE300080808C6C313C618C613C618C613C618F0
:101DF300C613C6D5E0EA227009080808226016183F
:101E03001818C6C333C608C633C608C633C608C6C1
:101E130033C6D5E0EA22E627F60809E637F60809CD
:101E2300E637F60809E637F622E026F608A3E03699
:101E3300F608A3E036F608A3E036F622E026F0081B
:101E4300A3E036F008A3E036F008A3E036F022C39F
:101E5300E697F60809E697F60809E697F60809E60D
:101E630097F622C3E096F008A3E096F008A3E09665
:101E7300F008A3E096F022E657F60809E657F608BD
:101E830009E657F60809E657F622E056F608A3E0F6
:101E930056F608A3E056F608A3E056F622E056F0FD
:101EA30008A3E056F008A3E056F008A3E056F0229A
:101EB300E046F608A3E046F608A3E046F608A3E0EA
:101EC30046F622E066F608A3E066F608A3E066F6A7
:101ED30008A3E066F622E0F608A3E0F608A3E0F61E
:101EE30008A3E0F622E6F008A3E6F008A3E6F0086C
:101EF300A3E6F022E0FAA3E0FBA3E0FCA3E0FD22CB
:101F0300EAF0A3EBF0A3ECF0A3EDF022E0F8A3E0FA
:101F1300F9A3E0FAA3E0FB22E8F0A3E9F0A3EAF0D7
:101F2300A3EBF022CAC0E0E6F0A308DAFAD0E0FAA5
:101F330022CAC0E0E0A3C582CCC582C583CDC583D8
:101F4300F0A3C582CCC582C583CDC583DAE6D0E0D4
:101F5300CA22C3E498F8E499F9121F968026C3E4D1
:101F63009AFAE49BFBE920E7E9121F96E498F8E468
:101F730099F922C3E498F8E499F9121F96E498F8C2
:101F8300E499F9C3E49AFAE49BFB22EB20E7CFE957
:101F930020E7E0B90010BB0008E88AF084F8AAF053
:101FA30022E4FBC8FA22EB70227B10C833C8C93382
:101FB300C9335007C39AC3DBF280069A50012ADB68
:101FC300EAC833F4C8C933F4C9FA2275F008E4C87F
:101FD30033C8C933C933C99AC99B5004C92AC93BF9
:101FE300D5F0ECFBC833F4C8E4C9FA22600D08C687
:101FF300A2E713C618C613C6D5E0F322600C08C6C1
:10200300C313C618C613C6D5E0F422700422600DAC
:1020130018C6C333C608C633C6D5E0F4182225183C
:1020230010AF08F518400C15198008F51840021573
:1020330019D2AF2200C0D0251810AF08F518500CE4
:1020430005198008F51850020519D2AFD0D0222502
:1020530018F58210AF08F518400C15198008F5180B
:1020630040021519D2AF851983222518F582E4356C
:1020730019F583222518F8E43519F9222518FAE40D
:102083003519FB222518FCE43519FD22E4732518C4
:10209300C582C0E0E51934FFC583C0E0E518C395E8
:1020A3008224F810AF0885831985821880088583F8
:1020B30019858218D2AFCEF0A3E520F0A37808E605
:1020C30008F0A3DEFAEFF0A3E58124FAF8E608F0BE
:1020D300A3E608F0A3E608F0A30808E608F0A3E6E1
:1020E30008F0A315811581D0E0FED0E0F815811525
:1020F300811581E8C0E0EEC0E0222518C582C0E06A
:10210300E51934FFC583C0E0E518C3958224F910AF
:10211300AF088583198582188008858319858218FD
:10212300D2AFCEF0A3E520F0A37808E608F0A3DE53
:10213300FAEFF0A3E58124FBF8E608F0A3E608F044
:10214300A30808E608F0A3E608F0A315811581D0DB
:10215300E0FED0E0F815811581E8C0E0EEC0E02292
:10216300851983851882E0A3FEE0A3F5207808E0B3
:10217300A3F608DFFAE0A3FFE0A3C0E0E0A3C0E01A
:10218300E0A3C0E0E0A3C0E0E0A3C0E010AF088597
:1021930082188583198008858218858319D2AFD068
:1021A30083D08202011F851983851882E0A3FEE094
:1021B300A3F5207808E0A3F608DFFAE0A3FFE0A385
:1021C300C0E0E0A3C0E0E0A3C0E0E0A3C0E010AF44
:1021D300088582188583198008858218858319D21A
:1021E300AFD083D08222C0D02518C582C0E0E519C4
:1021F30034FFC583C0E0E518C3958224F310AF080C
:102203008583198582188008858319858218D2AF42
:10221300C8F0A3E9F0A3EAF0A3EBF0A37908E70978
:10222300F0A3D8FAECF0A3EDF0A3EEF0A3EFF0A344
:10223300D0E0F0A3D0E0F0A3D0E0F0A3E520F0A33A
:10224300E5F0F0A322851983851882E0C0E0A3E0BE
:10225300F9A3E0FAA3E0FBA37808E0F608A3DFFA0A
:10226300E0FCA3E0FDA3E0FEA3E0FFA3E0C0E0A346
:10227300E0C0E0A3E0F5D0A3E0F520A3E0A3F5F0F0
:1022830010AF088583198582188008858319858294
:1022930018D2AFD082D083D0E0F8D0E0327404807B
:1022A3000A74038006740280027401C0E0F404120D
:1022B3002052D0E0121F2722740480087403800484
:1022C30074028000CCC0E0EDC0E0E518C39CCCAD47
:1022D3001950011D10AF068C188D1980068C188DAE
:1022E30019D2AF121F34D0E0FDD0E0FC22D083D04E
:1022F30082C5F0E493A3C5F0C395F0F5F0E493A38E
:10230300C395F04005E5F0048001E475F002A425CF
:1023130082F582E5F03583F583E493A3C0E0E4938B
:10232300C0E022D083D082E9C0E0E493A3C386F067
:10233300C5F095F0F908E493A386F0C5F095F07025
:102343000BE493A3C3994005E9048002A3E475F069
:1023530002A42582F582E5F03583F583D0E0F9E424
:1023630093A3C0E0E493C0E022D083D082CCC0E04A
:10237300E493A360061223961470FAE493A3600611
:102383001223B51470FAD0E0FCE493A3C0E0E49305
:10239300C0E022C0E0E493A3D39C5010E493A3C312
:1023A3009C400AD0E0D0E0D0E0022389A3A3A3D0CD
:1023B300E022C0E0E493A36C7009D0E0D0E0D0E069
:1023C300022389A3A3D0E022D083D082ECC0E0ED26
:1023D300C0E0E493A3FCE493A3FDED4C600D122451
:1023E30017EC24FFFCED34FFFD80EFE493A3FCE442
:1023F30093A3FDED4C600D122456EC24FFFCED3449
:10240300FFFD80EFD0E0FDD0E0FCE493A3C0E0E467
:1024130093C0E022C0E0C3E4939608740193961836
:10242300400FE49366700808740193661870007097
:1024330019A3A3C3E49396087401939618A3A34026
:102443000DD0E0D0E0D0E0022407A3A3A3A3A3A36D
:10245300D0E022C0E0C0F088F0E49366700808740E
:10246300019366187000A8F0A3A3700BD0F0D0E01E
:0E247300D0E0D0E0022407A3A3D0F0D0E022F6
:1024840074F61220FDEAFEEBFF8C088D09EE24346D
:10249400F8E43FF9E8FCE9FD1225B7E0FAEE243749
:1024A400F582E43FF583E0F88508F0A4C885F00AD6
:1024B4008509F0A4250AF9EA28F8E439F97A257B94
:1024C40000121F96EA8C828D83F0FA131313541FA3
:1024D400F8EE28F8E43FF9E8245DF582E439F58361
:1024E400E0C0E074075AF8D0E0B800028004C313D7
:1024F400D8FCA2E05003EA8020EE2436F582E43FC3
:10250400F583E0F5F0EA84A8F0EE28F8E43FF9E872
:102514002438F582E439F583E0F97F030221A974B4
:10252400F51220FDEAFEEBFFEE2434F582E43FF5DC
:1025340083E0C0E01225B7D0E0F08E828F83A3A39E
:10254400A3A3A3E0FAA3E0FB8E828F83A3A3A3A398
:10255400A3A3A3E0FCA3E0FDECC39AF50AED9BF56D
:102564000BEE247FF508E43FF509850882F583E046
:102574006401702AEE2480F582E43FF5831222C3BD
:102584001225C17402122037E960137CD57D06EE52
:10259400FAEFFB12109B850882850983E4F0AC0AEC
:1025A400AD0BEEFAEFFB122484E9F9122E277F0417
:1025B4000221A9EE2435F582E43FF58322C082C0CE
:1025C40083851882851983E0F8A3E0F9C3EA9CEBBC
:1025D4009D5010C3EC98ED99401BC3EA98EB9950B9
:1025E40014800EC3EA98EB994007C3EC98ED994028
:1025F40004790180027900D083D08222EAC39CFA54
:10260400EB9DFB2274ED1220FD900381E0640860D1
:1026140005E06407702C9061C8E060269003AFE089
:10262400F874FF68601CE875F00CA4C8AAF02AF9D5
:1026340074B128FE740339FF8E828F83A3A3A3E0B1
:10264400700579000227AAEE2468F50EE43FF50F21
:10265400906060E0850E82850F83F075106F7511B0
:1026640007750800750900E5D914F50AE5D954037E
:10267400F50B601FEE2482F50CE43FF50D74036541
:102684000B6059E50A6017EE2467F582E43FF58391
:10269400E0700B793DEEFAEFFB1210D180A49007A5
:1026A4006AE064016023850C82850D83E060047A0E
:1026B4000480027A00E50AC39AFA95E0FB120D7DC4
:1026C4008A088B09EA450970061213D70226468543
:1026D4000C82850D83E070048A108B117A008014BB
:1026E400E5D9C0E0EAF8E51028F582E43511F58370
:1026F400D0E0F00AEAC3950A40E6850C82850D8392
:10270400E0602874FC250AF50A78101222A8AC0AA5
:10271400A90BEEFAEFFB1211917402122037E97043
:102724000AAA08AB09121A4F0226977403650B60B4
:1027340054850A0C750D00780C1222A8AC10AD114A
:10274400AA08AB091211557402122037850E82852E
:102754000F83E0F87480687005750C7F8002880C24
:10276400E50CF50D780D1222AC780B1222ACA90AF7
:10277400AC08AD099003AFE0FA7B00120B4F740272
:10278400122037801C900381E06408AC10AD1170F6
:1027940009EEFAEFFB1211C18007EEFAEFFB1212F9
:1027A4007B1213E379017F0C0221A974F31220FD3B
:1027B40074FC122021EAFEEBFF8909A2AFE433F591
:1027C40008C2AFEE2463F50AE43FF50B8010AA0AB1
:1027D400AB0B121107121A4F9006DCE004F0850AC5
:1027E40082850B83E0F8A3E0F9E849602DE8240230
:1027F400FAE439FBEA2402F50CE43BF50D780C12FB
:1028040022A88A828B83E0FCA3E0F9EEFAEFFB12A4
:1028140010FB7402122037E960B49006DCE0604DCE
:102824009006DDE0F89006DCE0C398500C74026575
:1028340009703A9006DEE060348E828F83A3A3A3EE
:10284400A3E0851882851983122881740212206DF1
:10285400E81228819006DBE028F07402122087AA8F
:1028640018AB197901120BB59006DCE4F0E508A267
:10287400E092AF74041220377F060221A9F0A3E48A
:10288400F09006DCE0F822008521878522C622C06C
:10289400E074EB1221E9A2AFE433F508C2AF759BF3
:1028A40000906182E0A2E05030E591A2E0502A75E8
:1028B40091FE740165217021122A261212D5122A62
:1028C400141222BB122BD17404122037E964017054
:1028D400057901121323122608906182E0A2E550C3
:1028E4005DE591A2E550577591DF900381E064079F
:1028F4006005E06408702F122A2674016521703E79
:102904001212D5122A141222BB122BD174041220D3
:1029140037E96401700579011213237901EEFAEFA6
:10292400FB1227AF8018E0640D70139003A3E0043A
:10293400F064287002E4F07A00E0F9121401906166
:1029440082E0A2E640030229E9E591A2E6400302FF
:1029540029E97591BF900381E0640570081212BDE6
:102964001212C980031212C3752100121341E99097
:102974000382F07900121323120FB77A017B0090BF
:102984000380E0F9121A1F907803E06442705690B5
:10299400076EE014F0704EC2AF1229A0007831D057
:1029A400E0F618D0E0F6E59F5407F87005750DFFC2
:1029B4008003750D7FC4C0E07830E6F50A08E6555B
:1029C4000DF50B740B780A121FFFD0E0250AF8905E
:1029D4006270E0A2E740F8E8C333906272F090625C
:1029E40070E0D2E0F0906181E0A2E35009E5E9A251
:1029F400E3500375E9F7A3E0A2E75009E591A2E7E4
:102A0400500375917FE508A2E092AF7F0802224847
:102A14008E828F83E0F8A3E0C82416F582E438F5AB
:102A240083229003AFE0F875F00CA4C8AAF02AF949
:102A340074B128FE740339FF22C0E0C0D0C082C044
:102A440083906183E0A2E05009E5BFA2E0500375E2
:102A5400BFFEE0A2E15009E5BFA2E1500375BFFD4E
:102A6400E0A2E25009E5BFA2E2500375BFFBE0A279
:102A7400E35009E5BFA2E3500375BFF7E0A2E450B9
:102A840009E5BFA2E4500375BFEFE0A2E55009E5F4
:102A9400BFA2E5500375BFDFE0A2E65009E5BFA27F
:102AA400E6500375BFBFD083D082D0D0D0E032C00F
:102AB400E074F21221E9E5A7A2E4500FE5A1A2E433
:102AC400500953A7EF75A1EF122B07E5A7A2E55014
:102AD4000CE5A1A2E5500653A7DF75A1DFE5A7A287
:102AE400E15009E5A1A2E1500375A1FDE5A7A2E229
:102AF400500CE5A1A2E2500653A7FB75A1FB7F0190
:102B040002224874F81220FD752101900381E064CB
:102B14000670077A007B001212A5A2AFE433FED23E
:102B2400AF900387E0640170187A207B00900380E3
:102B3400E0F9121B337A207B00900380E0F9121A2B
:102B440025906182E0D2E6F090076BE0602185C6B3
:102B5400228016900386E064017008E5C654F844A8
:102B640005F5C653BEFC12288C7401652160E4EEA1
:102B7400A2E092AF7F010221A90000008E238F24DE
:102B8400858228858327851882851983E0CEA3E072
:102B9400CF852882852783EBC9EAC8EDCBECCA75BB
:102BA400F010C3E833C8E933C9EA33CAEB33CBC303
:102BB400EA9EF526EB9FF525B35004AB25AA26EC37
:102BC40033CCED33CDD5F0DAAE23AF242274F11239
:102BD40020FD8A088B098C0A8D0B9091727808125B
:102BE4001E8D740F12206D780C121ED9909172787C
:102BF4000C121E8D7808790C121C8390913E501093
:102C04007808790C121E527808121CA34014800E06
:102C1400780C7908121E52780C121CA35004790106
:102C2400800279007F080221A974ED1220FD8A0830
:102C34008B098C0A8D0B9091727808121E8D741377
:102C440012206D780C121ED9909172780C121E8D80
:102C5400780C7908121C8340117808790C121E52E2
:102C6400AA08AB09AC0AAD0B8022751000751100DF
:102C74007512007513017810790C121E52781079B0
:102C840008121E19AA10AB11AC12AD137F0C02214D
:102C9400A99091727808121ED98A828B83780812BF
:102CA4001EA07F040221A974F51220FD8C828D835D
:102CB4007808121ED98A828B837808121E66122C19
:102CC400FFC3E098F0A3E099122CF1401E90916AA2
:102CD4007808121ED98A828B837808121E3F8E824E
:102CE4008F83E02420F0A3E0344EF080A4F08E82A1
:102CF4008F83C3E09420A3E0944E22EA2404F8E4F2
:102D04003BF9E8FEE9FF8C828D83A3A3A3A3E0F83B
:102D1400A3E0F98E828F832274F51220FDE9FE90E0
:102D240006F7E0FAA3E0FBEE29F8E433F97483280C
:102D3400F582749039F583E02AF508A3E03BF509A0
:102D440078081222A890915E121EF7122B8074024A
:102D54001220378A088B098C0A8D0B74107808129C
:102D64001DE1AA08AB097F040221A974F11220FD18
:102D74008A0C8B0D8C0E8D0F741112206D1222C3D0
:102D8400741112206DE02401F508A3E03400F50964
:102D9400E4F50AF50B780C7908121CF290914A7844
:102DA40008121ED9780C7908121CF2AA0CAB0DACCF
:102DB4000EAD0F122B8074021220378B09EA4509DD
:102DC40060047A0180027A00EC2AFCE43DFD74136D
:102DD40012206DE0F8A3E0F9E8FEE9FFECF8EDF964
:102DE4007A717B02121F9688088909E4F50AF50BAB
:102DF4008E828F837808121EE8ECF8EDF97A717BE5
:102E040002121F968A088B097405780812200E8E08
:102E1400828F83A3A3A3A3E508F0A3E509F07F08A9
:102E24000221A9C082C083E9906000F0D083D082DF
:102E340022C0E0C0D0E8C0E0E9C0E0A9A8D2AFC297
:102E4400C7E9A2E7E433F8E9A2E792AFD0E0F9D00A
:102E5400E0F8D0D0D0E032C2AF02000022C0E0746B
:102E6400F11221E9E59DA2E650FA906206E0F9A28A
:102E7400E25034AA2EEA90620BF0F508852F09740B
:102E8400047808121FFFE508906207F08A08852F6E
:102E94000974097808121FFFE508543E906209F08E
:102EA400906201E0D2E0F0E9782B46F6906202E00D
:102EB400F5087509007404780812200E782BE508CB
:102EC40046F608E50946F6906204E0F5087509003F
:102ED4007409780812200E782CE50946F6E9A2E078
:102EE4005003752D017406596003752D00E58BA2FE
:102EF400E55006758BDF752D00121B75758B00C2AE
:062F0400E87F02022248F2
:102F0C00FFFFFFFFFFFFFFFF74F6122091E9900D0A
:102F1C0061F012162F900D61E0F91206991206ED70
:102F2C00900D61E0F91206F3900D61E0F91208FDC5
:102F3C0090916A121EF71206D590916A121EF71222
:102F4C00091B7AE37B1A1219BF7CE37D1A790012F4
:102F5C0006CF7CF87D1A7A0279011206CF79017AB4
:102F6C00B17B9012188D79027AA37B9012188D790F
:102F7C00037ABE7B9012188D7CCA7D0D7A10790273
:102F8C00121B097CDA7D0D7A107903121B097C6205
:102F9C007D0D7A047904121B097F0202216374F4FB
:102FAC001220918A088B09EB5480700302304590F3
:102FBC000D61E0F9121A078A0A8B0BAE0AAF0BEE01
:102FCC004F606E8E828F83E0246F600924FE7054F4
:102FDC001219358052A3E0F8740E6870208E828F1F
:102FEC0083A3A3A3A3A31222C3EE24FDF582EF3483
:102FFC00FFF583E024F9125CEA790E801D74FF68FA
:10300C0070288E828F83A3A3A3A3A31222C38E82C4
:10301C008F83A3A3E0125CEA79FF120B6774021290
:10302C0020378006121959E96007EEFAEFFB1219E6
:10303C00EFAA08E50964808016EB544060147C62AA
:10304C007D0D7A047904121B03AA08E5096440FB80
:10305C0080047A007B0002506CE9790024FE600841
:10306C00146005146009800C74106A700780077472
:10307C00046A6002790202011F74F412209174F93F
:10308C00122021EAFEEBFF851882851983E4124E8B
:10309C00B21233AFC0E0740112206DD0E0125D109B
:1030AC00A882A983E0FCA3E0FBECFA740212206D69
:1030BC00EAF0A3EBF0E82402F85001098882898336
:1030CC00E0C0E0740412206DD0E0125D1008A983FA
:1030DC00740512206D124EAC740212206DE0F508CE
:1030EC00A3E085080AF50B7407780A121FFF780A0B
:1030FC001223260100046C310E3121313031433161
:10310C005631AC18AD19740112207FE508547FF9C3
:10311C001219418046740112207FE508547FF91280
:10312C0019478037AC18AD19740112207FE508548B
:10313C007FF912194D8024AC18AD19740112207F3F
:10314C00E508547FF91219538011AC18AD197401AC
:10315C0012207FE508547FF912193BE9F50880032A
:10316C00750801EEFAEFFB1219EF900D92747FF0D7
:10317C00A37406F0E508A3F0740212206DE0900D24
:10318C0095F0740212206DA3E044FC900D96F0852E
:10319C001882851983E0900D97F07C927D0D85182F
:1031AC0082851983E02406FA79FF120B6D7900747D
:1031BC000702506974EB1220918A828B83ECFEED2E
:1031CC00FFA31232EB8E828F83E4F0850A82850B8B
:1031DC0083A3858208858309E914600C146051145B
:1031EC0070030232DB0232E2850A82850B83E0F542
:1031FC000A850882850983E0F50BC39432400302EB
:10320C0032DEAA0BA90A12192FE960030232DE7C06
:10321C00987D0DAA0BA90A121B09E9FA6003023268
:10322C00E4850882850983E08E828F83F00232E484
:10323C00850A82850B83E0F50C850882850983E07D
:10324C00F508FAA90C12192FE960030232DEE50A1F
:10325C002402FEE4350BFFEEFCEFFDAA08A90C12CC
:10326C001B03E9FA7404650C706E8E828F83E0F593
:10327C000CE4F50DF50EF50F850A82850B83A3A3DF
:10328C00123303121DFA780C7910121E19850A825A
:10329C00850B83A3A31232F6121DFA780C79101247
:1032AC001E19850A82850B83A3A3A3A3A3E0F508AB
:1032BC00E4F509F50AF50B74187808121DFA780C68
:1032CC007908121E19900D62780C121EE8800912F2
:1032DC0019B97A0280027A01EAF97F0D022163A3FF
:1032EC00A3A3E0F50AA3E0F50B22A3A3E0F510E4F9
:1032FC00F5117410781022A3E0F510E4F511F51215
:10330C00F513740878102274F412209174EA1220C8
:10331C002189088A828B831233ACFEA3E0FCE4CCB7
:10332C00FDEE2CE43DFFE82402FCE439FDE5082425
:10333C00F6602324F870401233981222A8740212FB
:10334C00207F120CAB7402122037E9F9702B123368
:10335C008A120C2D801D1233981222A8740212208E
:10336C007F120CC37402122037E9F9700C12338AE5
:10337C00120C27E9F9800279017416025069900D3C
:10338C0061E0F9AC18AD19EEFAEFFB228A828B835F
:10339C00A3A3A3E024FEF50AE434FFF50B780A227C
:1033AC00A3A3A31233BDF988828983E022A3A3A32C
:1033BC00A3A3E0F8A3E02274EC12209174EB12208A
:1033CC0021890BEAF8EBF97E007F00750A40E824AE
:1033DC0003F50EE439F50F850E82F583E0FAC394FC
:1033EC0002500579400237F1888289831233ACF59B
:1033FC0008A3E0FDE5082EE43DF50975129C751354
:10340C0091E82403F510E439F511E82402F50CE4F5
:10341C0039F50DE50B1222F0011D5F3D643490343B
:10342C00C234EE34323573351036513619376237B3
:10343C009137FB372C388538D2382639B239F339E5
:10344C00943A5F3D5F3DBC3A6F3BBA3B613C5F3D9C
:10345C00893C5F3DD93C373DA818A919880E890FC6
:10346C00780E1222A8123D821203577402122037D2
:10347C00E960030237ECAC18AD19AA08AB091202CB
:10348C00F1023827A818A919880E890F780E122274
:10349C00A8123D7B1222A8AC0CAD0D7A007900125B
:1034AC0003637404122037E960030237EC123DBD4C
:1034BC001206F9023827A818A919880E890F780E58
:1034CC001222A8123D8212036F7402122037E96097
:1034DC00030237ECAC18AD19AA08AB091202F702BB
:1034EC003827A818A919880E890F780E1222A8124D
:1034FC003D7B1222A8AC0CAD0D7A00790012037B37
:10350C007404122037E960030237EC740212206D48
:10351C001222C3900D61E0F9740212206D1245B9AC
:10352C0012071D023708123D821219898A0C8B0D65
:10353C00AE0CAF0DEE4F70030237ECA818A919882A
:10354C000C890D780C1222A8123DAA120387740262
:10355C00122037E960030237E5AC18AD19AA08ABA5
:10356C00091202FD023757A818A919880E890F787D
:10357C000E1222A8123D7B1222A8AC0CAD0D7A00C3
:10358C0079001203937404122037E960030237ECBC
:10359C00740412206D123DA21222A8740712206D21
:1035AC0085820C85830D780C1222A87C027D00AAE2
:1035BC0012AB131204657404122037E97003023C39
:1035CC005B851882851983E064017002A3E06003B7
:1035DC00023C5B740212206DE0F47003A3E0F46013
:1035EC0003023C5B12457E1222AC740812206DE083
:1035FC00F9740912206D1245B912070574011220D5
:10360C0037023827123D821219898A0C8B0DAE0CA9
:10361C00AF0DEE4F70030237ECA818A919880C896E
:10362C000D780C1222A8123DAA12039F74021220CC
:10363C0037E960030237E5AC18AD19AA08AB0912DB
:10364C000303023757A818A919880E890F780E1290
:10365C0022A8123D7B1222A8AC0CAD0D7A00790089
:10366C001203AB7404122037E960030237EC7404C4
:10367C0012206D123DA21222A8740712206D8582B1
:10368C000C85830D780C1222A87C027D007A987B25
:10369C00911204657404122037E9601A7402122026
:1036AC006D1222C3900D61E0F9740212206D124567
:1036BC00B912070B8046740412206D123DA212221F
:1036CC00A8740712206D85820C85830D780C12224C
:1036DC00A87C027D007AA47B9112046574041220EC
:1036EC0037E96020740212206D1222C3900D61E044
:1036FC00F9740212206D1245B912071174021220CE
:10370C0037023827123DBD120729023827123D8295
:10371C001219898A0C8B0DAE0CAF0DEE4F70030293
:10372C0037ECA818A919880C890D780C1222A8124C
:10373C003DAA1203B77402122037E960030237E581
:10374C00AC18AD19AA08AB09120309E9F50A600314
:10375C000237E50237ECA818A919880E890F780EE4
:10376C001222A8123D7B1222A8AC0CAD0D7A007966
:10377C00001203C37404122037E97064123DBD12A9
:10378C000723023827EAC39403400E123D82121914
:10379C00898A0C8B0DAE0CAF0D850E82850F83E0E4
:1037AC00FA74026A6004EE4F6036A818A919880CE6
:1037BC00890D780C1222A8123D721203CF740212DA
:1037CC002037E97010AC18AD19AA08AB0912030F19
:1037DC00E9F50A600BEE4F6007EEFAEFFB121A4F99
:1037EC00A90A12198374151220377F0C022163A8C1
:1037FC0018A919880E890F780E1222A8123D7B1277
:10380C0022A8AC0CAD0D7A0079001203ED740412F1
:10381C002037E970CB123DBD12072FE9F50A80C0A5
:10382C00EAC39403400E123D821219898A0C8B0D47
:10383C00AE0CAF0D850E82850F83E0FA74026A60C0
:10384C0004EE4F609BA818A919880C890D780C12EE
:10385C0022A8123D721203F97402122037E9600398
:10386C000237E1AC18AD19AA08AB09120315E9F53A
:10387C000A60030237E10237EC123D821219898A81
:10388C000C8B0DAE0CAF0DEE4F70030237ECA8187D
:10389C00A919880C890D780C1222A8850E82850F27
:1038AC00831245A41222A8EEFCEFFD7A00790012D7
:1038BC0004057404122037E960030237E5123DBD9C
:1038CC00120735023757EAC39403400E123D821299
:1038DC0019898A0C8B0DAE0CAF0D850E82850F836A
:1038EC00E0FA74026A6007EE4F70030237ECA81816
:1038FC00A919880C890D780C1222A8123D72120499
:10390C00117402122037E960030237E1AC18AD19CB
:10391C00AA08AB0912031B02387AA818A919880E39
:10392C00890F780E1222A8123D7B1222A8AC0CAD86
:10393C000D7A0079001203AB7404122037E960038E
:10394C000237EC740412206D123DA21222A87407E7
:10395C0012206D85820C85830D780C1222A87C02B6
:10396C007D00AA12AB131204657404122037E9709F
:10397C0003023C5B851882851983E064017002A305
:10398C00E06003023C5B740212206DE0F47003A350
:10399C00E0F46003023C5B900D61E0F9AA08AB090E
:1039AC001206FF023827123D821219898A0C8B0DE0
:1039BC00AE0CAF0DEE4F70030237ECA818A91988A6
:1039CC000C890D780C1222A8123DAA12041D740247
:1039DC00122037E960030237E5AC18AD19AA08AB21
:1039EC0009120321023757EA24FCFCE434FFFDE8FA
:1039FC002404FAE439FB1219898A128B13AE12AF24
:103A0C0013EE4F70030237ECA818A919881289130A
:103A1C0078121222A8850E82850F83E024FC123DB9
:103A2C00981222A8EEFCEFFD851082851183E0FA36
:103A3C00850C82850D83E0F91203D57404122037AE
:103A4C00E960030237E5740612206DE07008123D40
:103A5C00BD1207478018740512206DE0AC18AD1923
:103A6C00AA08AB09700512073B8003120741E9F560
:103A7C000AE50A60030237E5740312206D124597BC
:103A8C0070030237E50237ECA818A919880E890FC4
:103A9C00780E1222A8123D821203E1740212203712
:103AAC00E960030237ECAA08AB0912032702382796
:103ABC00123D821219898A088B09AE08AF09EE4FA4
:103ACC0070030237ECA818A919880889097808121C
:103ADC0022A8850E82850F83E024FEF508E434FFCE
:103AEC00F50978081222A8EEFCEFFD7A0079001295
:103AFC0004297404122037E960030237E5900DEBBA
:103B0C00124597700F7A237B00121A9D900DEBEAE9
:103B1C00F0A3EBF0900DEB1245976041900DEAE0AD
:103B2C00C394054003023C5B12458A29F0750807D3
:103B3C0075090078081222A87402122087E975F022
:103B4C0007A4F8A9F0900DEBE028FAA3E039FB12DA
:103B5C0019C57402122037750A000237EC750A1366
:103B6C000237E5123D821219898A0C8B0DAE0CAF0F
:103B7C000DEE4F70030237ECA818A919880C890DAB
:103B8C00780C1222A8123DAA1204357402122037A6
:103B9C00E960030237E5AC18AD19AA08AB091203AA
:103BAC002DE9F50A60030237E57405023A86A81878
:103BBC00A919880E890F780E1222A8123D7B1222A9
:103BCC00A8AC0CAD0D7A00790012044174041220DB
:103BDC0037E960030237EC900DEB124597607012D9
:103BEC00457E1222AC740112206D1245811222AC5A
:103BFC00900DEAE0F9900DEB1245B91207537402DF
:103C0C00122037E9F50A60397E008022EE75F00744
:103C1C00A4F8A9F0900DEBE028FAA3E0398A82F51C
:103C2C0083A3A3125CEFEA4B6003121A4F0E900DA4
:103C3C00EAE0F8EEC39840D4900DEB125CF2121A45
:103C4C00A3900DEBE4F0A3F0900DEAF00237EC75C5
:103C5C000A020237E1A818A919880E890F780E12EA
:103C6C0022A8123D821204477402122037E9600325
:103C7C000237ECAA08AB09120333023827123D6550
:103C8C001219898A108B11AE10AF11EE4F7003020E
:103C9C0037ECA818A9198810891178101222A812CB
:103CAC003D8B1222A8EEFCEFFD7A00790012045332
:103CBC007404122037E960030237E5850C82850D08
:103CCC0083123DC0120837E9F50A023A7F123D65AE
:103CDC001219898A108B11AE10AF11EE4F700302BE
:103CEC0037ECA818A9198810891178101222A8127B
:103CFC003D8B1222A8EEFCEFFD7A007900120453E2
:103D0C007404122037E960030237E512457E122253
:103D1C00AC850C82850D8312458A122087AA08ABCC
:103D2C00091208317401122037809CA818A919882F
:103D3C000E890F780E1222A8123D821204597402B9
:103D4C00122037E960030237ECAA08AB091202E52E
:103D5C00023827750A010237ECEA24FDFCE434FF33
:103D6C00FDAA10AB1122EA123DB5EEFAEFFB22EAE6
:103D7C0024FE123D9822EA123DB5AA0CAB0D228509
:103D8C000E82850F83E024FD123D9822F50EE4345B
:103D9C00FFF50F780E22E0F50C8E0D780C22850EB7
:103DAC0082850F83E0123DB52224FEFCE434FFFD36
:103DBC0022900D61E0F9AC18AD19AA08AB09227478
:103DCC00E812209174EA122021E985188285198362
:103DDC00F0750E00750F00750A40EA2403F510E427
:103DEC003BF511851082F583E0F9C39402500579F7
:103DFC00400243BD8A828B83A3A3A3A3E0FEA3E06E
:103E0C00FF8E828F83E0FCA3E0FAE4CAFBEC2AF578
:103E1C0008E43BF509EE2402F50CE43FF50DEE2425
:103E2C0003F512E43FF513851882851983E01223FC
:103E3C006C001602833E04913F06CB3E08563F0AA7
:103E4C00DC3F0C52400E8D4010BE3E12794116CE16
:103E5C00411B9F441DFB4430E43E32E43E3417408A
:103E6C0036E240382E413A4F423CCC433E06444069
:103E7C003D4442CE415845740112207F8A0E8B0F6F
:103E8C00780E1222A8E9123D7C1222A8AC0CAD0DC2
:103E9C007A0079001203637404122037E96003027C
:103EAC0043B8124587122087AA08AB091206F902FB
:103EBC004401900D61E0F9AA081206FF02440112B8
:103ECC00457E1222AC1919AC0CAD0DAA08120705CF
:103EDC007401122037024401E924FEF8E434FFF99E
:103EEC007404684960030243B8850C82850D83E035
:103EFC00FA851282851383E0F8E4C8F9EA28FCE419
:103F0C0039FD8E828F83A3A3A3A3E0FA8E828F83C5
:103F1C00A3A3A3A3A3E0F9EAF50AE439F50B8518EA
:103F2C0082851983E06430780A70101222A8900DF3
:103F3C0061E0F9AA0812070B023FD41222A8900DD7
:103F4C0061E0F9AA08120711807E740112207F8AA1
:103F5C000E8B0F780E1222A8E9123D7C1222A8AC0F
:103F6C000CAD0D7A0079001203AB7404122037E902
:103F7C0060030243B8124587122087AA08AB0912C6
:103F8C000717024401740112207F8A0E8B0F780EE2
:103F9C001222A8E9123D7C1222A8AC0CAD0D7A00BD
:103FAC00790012037B7404122037E960030243B8D2
:103FBC00740312206D1222C3900D61E0F974031288
:103FCC00206D1245B912071D7402122037024401EC
:103FDC00740112207F8A0E8B0F780E1222A8E91220
:103FEC003D7C1222A8AC0CAD0D7A0079001203C3F3
:103FFC007404122037E960030243B812458712207B
:10400C0087AA08AB09120723024401740112207F0E
:10401C008A0E8B0F780E1222A8E9123D7C1222A870
:10402C00AC0CAD0D7A0079001203AB74041220377E
:10403C00E960030243B8124587122087AA08AB092E
:10404C00120729024401740112207F8A0E8B0F780B
:10405C000E1222A8E9123D7C1222A8AC0CAD0D7AEE
:10406C000079001203ED7404122037E96003024357
:10407C00B8124587122087AA08AB0912072F0244F1
:10408C0001E9123D831219898A0E8B0FEA450F70D4
:10409C00030243B87401122077880C890D780C1236
:1040AC0022A812459E1222A8AC0EAD0F7A00790000
:1040BC001204057404122037E960030243B112455F
:1040CC0087122087AA08AB09120735E9F50A6003A5
:1040DC000243B10243B8E9123D831219898A0E8B4F
:1040EC000FEA450F70030243B87401122077880C55
:1040FC00890D780C1222A812459E1222A8AC0EAD86
:10410C000F7A0179001203D57404122037E9600389
:10411C000243B17401122087AA08AB0912073B02B3
:10412C0041C3E9123D831219898A0E8B0FEA450FA0
:10413C0070030243B87401122077880C890D780C37
:10414C001222A812459E1222A8AC0EAD0F7A01794C
:10415C00011203D57404122037E960030243B174D1
:10416C0001122087AA08AB09120741804AE9123DC7
:10417C00831219898A0E8B0FEA450F70030243B81C
:10418C007401122077880C890D780C1222A8124524
:10419C009E1222A8AC0EAD0F7A0079001203D574D2
:1041AC0004122037E960030243B1124587122087BD
:1041BC00AA08AB09120747E9F50A60030243B102EA
:1041CC00448FE9123D831219898A0E8B0FEA450F31
:1041DC0070030243B87401122077880C890D780C97
:1041EC001222A812459E1222A8AC0EAD0F7A0079AD
:1041FC00001204297404122037E960030243B185CC
:10420C001882851983E06416900D61700F12458A2F
:10421C00122087AA08AB0912074D800D12458A128D
:10422C002087AA08AB0912076BE9F50AE50A6003B7
:10423C000243B1740612206D12459770030243B10C
:10424C000243B8E924FEF8E434FFF9C3E89401E929
:10425C009400A2D265D03350030243B8850C8285FA
:10426C000D83E0F51070030243C7C39406400302AC
:10427C0043C7E51075F007A4FEAFF0FAEFFB121A76
:10428C009D8A148B15EA451570030243C2EEFCEFB0
:10429C00FD79001219DDAE12AF13750B008034E8F6
:1042AC00FEE9FF85160C85170D780C1222A8750CEB
:1042BC0004750D00780C1222A8EEFCEFFD7A007943
:1042CC00001204297404122037A811EE28FEE43FD2
:1042DC00FF050BE50BC395105066751104E50B75C6
:1042EC00F007A4F8A9F0E51428F516E51539F5172B
:1042FC008E828F83A3A882A9838E828F83E0FA603B
:10430C009E74042AF511E8FEE9FF85110C750D0069
:10431C00AC0CAD0DEEFAEFFB1219898A0E8B0FEA7D
:10432C00450F7005750A1380428516128517137890
:10433C00121222A8780C1222A8AC0EAD0F0242C9A0
:10434C00E510650B702512457E1222AC750A0178BA
:10435C000A1222ACA910AC14AD15AA08AB091207AD
:10436C00537402122037E9F50A6034750B00802172
:10437C00E50B75F007A4F8A9F0E51428F582E5150E
:10438C0039F583A3A3125CEFEA4B6003121A4F05B5
:10439C000BE50BC3951040D8AA14AB15121AA3E564
:1043AC000E450F6007AA0EAB0F121A4FA90A12196D
:1043BC00837416026081750A1380F1750A0280EC11
:1043CC00740112207F8A0E8B0F780E1222A8E9122C
:1043DC003D7C1222A8AC0CAD0D7A0079001203C3FF
:1043EC007404122037E970C4124587122087AA087A
:1043FC00AB09120759E9F50A80B2740112207F8AC1
:10440C000E8B0F780E1222A8E9123D7C1222A8AC5A
:10441C000CAD0D7A0079001203ED7404122037E90B
:10442C00708A124587122087AA08AB0912075F8091
:10443C00C4E9123D831219898A0E8B0FEA450F705D
:10444C00030243B87401122077880C890D780C1282
:10445C0022A812459E1222A8AC0EAD0F7A0079004C
:10446C001203D57404122037E960030243B11245DC
:10447C0087122087AA08AB09120765E9F50A6003C1
:10448C000243B1740412206D12459770030243ABC2
:10449C000243B812455E1219898A0E8B0FEA450F3A
:1044AC0070030243B87401122077881289137812B2
:1044BC001222A812456B1222A8AC0EAD0F7A00790D
:1044CC00001204537404122037E960030243B185CF
:1044DC000C82850D8312458A122087AA08AB09121B
:1044EC000837E9F50A60030243B174040242411231
:1044FC00455E1219898A0E8B0FEA450F7003024331
:10450C00B874011220778812891378121222A8121B
:10451C00456B1222A8AC0EAD0F7A00790012045331
:10452C007404122037E960030243B112457E122253
:10453C00AC850C82850D83E0F97402122087AA08E1
:10454C00AB0912083174011220378096750A0102EA
:10455C0043B8E924FDFCE434FFFDAA12AB13228519
:10456C001082851183E024FDF510E434FFF51178F9
:10457C001022900D61E0F50A780A22900D61E0F9A5
:10458C00740122A3A3A3A3A3A3A3A31233BEF9E88C
:10459C004922851082851183E024FEF50CE434FF5A
:1045AC00F50D780C22A3A3A3A3A3A3A3A3E0FCA3C0
:1045BC00E0FDAA08AB092274EA12209174A512201E
:1045CC00218C0C8D0D8A828B83A3A3A3A3E0FEA365
:1045DC00E0FF750E00EE2402F50AE43FF50B8E8227
:1045EC008F83A3858208858309E970030246902492
:1045FC00FD70030247971470030247E01470030226
:10460C00481F14700302487E1470030248E21470B1
:10461C00030248F914700302482A14700302490477
:10462C0014700302496B147003024CD11470030212
:10463C004D6B147003024C52147003024BD4147063
:10464C0003024BCB14700302491D24E17003024C8E
:10465C00F3147003024D26147003024CE214700321
:10466C00024D74147003024DE5147003024DF714DF
:10467C007003024E0A147003024DFF147003024EB5
:10468C000A024E0F8E828F83E0F5147C107900AAFB
:10469C000AAB0B121A43E9701B750C10750D0078E0
:1046AC000C1222A8AC0AAD0B7ACA7B0D1219C57478
:1046BC0002122037EE2412F50AE43FF50B7C107938
:1046CC0000AA0AFB121A43E9701B750C10750D0039
:1046DC00780C1222A8AC0AAD0B7ADA7B0D1219C534
:1046EC007402122037EE24221258B2F50CE4F50DA8
:1046FC00F50FEE2423F582E43FF583123304121DEB
:10470C00FA780C7910121E19EE2424F582E43FF588
:10471C00831232F8121DFA780C7910121E19EE243D
:10472C0025F582E43FF583124E32121DFA780C798E
:10473C0010121E19E50C450D450E450F6008900D25
:10474C0062780C121EE8750A62750B0D780A12223B
:10475C00A8750ADA750B0D780A1222A87CCA7D0D91
:10476C00850882850983E0FBAA14900D61E0F9129B
:10477C00181B7404122037E9F50E900D61E0FC7DD6
:10478C00007A267B001204DD024E12750A00750BAE
:10479C00009090EA740A1220877406121F34750C6C
:1047AC0006F50D780C1222A8740C122087AA08ABFF
:1047BC00091219D77402122037E9640160068508C2
:1047CC000A85090BAA0AAB0B8E828F83E0F91204BF
:1047DC00F5024DFA900D61E0C0E0741012206DD01E
:1047EC00E0124EBFE0C0E0741112206DD0E0124E0A
:1047FC00DAC0E0741212206DD0E0124EB2E0C0E0CC
:10480C00741312206DD0E0F0741012207F12047D0E
:10481C00024DFA900D61E0F9120483024DFA900DED
:10482C0061E0851882851983124EBFE0C0E07401E7
:10483C0012206DD0E0124EDAC0E0740212206DD05E
:10484C00E0124EFBC0E0740312206DD0E0124EE576
:10485C001222A8EEFCEFFD740612206DAA82AB8327
:10486C001219C57402122037AA18AB191204BF0210
:10487C004DFA8E828F83E0851882851983124EDA69
:10488C00C0E0740112206DD0E0124EE51222A8EEA9
:10489C00FCEFFD740412206DAA82AB831219C5744F
:1048AC0002122037EE2406FE50010F8E828F83E019
:1048BC00C0E0740812206DD0E0124EB2E0C0E0747B
:1048CC000912206DD0E0F0AA18AB19900D61E0F937
:1048DC00120603024DFAAC0AAD0BE0FB8E828F83FD
:1048EC00E0FA900D61E0F9120609024DFA900D61A3
:1048FC00E0F912060F024DFA850A82850B83E0FC63
:10490C00124E4FE439FB900D61E0F9120567024D30
:10491C00FA124E3D851882851983124ECCFAA3E00B
:10492C00F9EAF8740212206D124EF150010F124E7A
:10493C0043740412206D124EF150010F124E437449
:10494C000612206D124EF150010F124E43740812D4
:10495C00206D124EACAA18AB1912056D024DFA75EA
:10496C000C00750D007C187D007900741412207FEA
:10497C001219DD124E3DF8741412206DE8124ECC53
:10498C00C0E0741612206DD0E0124EB2AE82AF832E
:10499C00E0C0E0741712206DD0E0124EB20EAF835F
:1049AC0075081075090078081222A8EEFCEFFD744A
:1049BC001A12206DAA82AB831219C5740212203709
:1049CC00EE2410FE50010F8E828F83E0C0E074281D
:1049DC0012206DD0E0124EFBC0E0742B12206DD073
:1049EC00E0124EC5A30E0EAF83A2E0E433F510E542
:1049FC000EA2E15004D2F08002C2F0A2F0E433F82F
:104A0C00E50EA2E25004D2F08002C2F0A2F0E43330
:104A1C00F50A750B00E50EA2E35004D2F08002C239
:104A2C00F0A2F0E433FCE50EA2E45004D2F08002D4
:104A3C00C2F0A2F0E433FAE50EA2E55004D2F08005
:104A4C0002C2F0A2F0E433F508E50EA2E65004D25F
:104A5C00F08002C2F0751100E828F8E51048F51056
:104A6C007402780A12200EE510450AF50A8C1074AF
:104A7C0003781012200EE50A4510F8EAFBE8FA74E8
:104A8C0009780812200EEB4509FBA2F0E433F50877
:104A9C00750900740A780812200E124E1E12200E90
:104AAC00EAF8EB4509F9742912206D124EAC8E828E
:104ABC008F83E0F50EA30EAF837003024BBCE0C0F6
:104ACC00E0740A12206DD0E0124EFBC0E0740B12A1
:104ADC00206DD0E0124EFBC0E0740C12206DD0E0C3
:104AEC00124EFBC0E0740D12206DD0E0124EC5A228
:104AFC00E0E433FCE50EA2E15004D2F08002C2F0F7
:104B0C00A2F0E433F8E50EA2E25004D2F08002C227
:104B1C00F0A2F0E433F508750900E50EA2E35004A9
:104B2C00D2F08002C2F0A2F0E433F50AE50EA2E462
:104B3C005004D2F08002C2F0A2F0E433FAE50EA2E7
:104B4C00E55004D2F08002C2F0A2F0E433F50CE59B
:104B5C000EA2E65004D2F08002C2F0E828F8EC482D
:104B6C00FC7402780812200EEC4508FC7403780AD9
:104B7C0012200EEC450AF8EAFBE8FA7409780C12DC
:104B8C00200EEB450DFBA2F0E433F508740A78080F
:104B9C0012200E124E1E12200EEAF8EB4509F97483
:104BAC000E12206D124EAC740A122077880C890DEF
:104BBC00AC0CAD0D741412207F120579024DFA1253
:104BCC004E6B12057F024DFA124E841222A8EEFC97
:104BDC00EFFD744212207F1219C57402122037EEB9
:104BEC002410FE50010F124E43745012206D124EC1
:104BFC00F150010F750C08780C1222A8EEFCEFFD99
:104C0C00745412206DAA82AB831219C5740212203F
:104C1C00378E828F83A3A3A3A3A3A3A3A3E0C0E097
:104C2C00745A12206DD0E0F0750B01780B1222AC87
:104C3C007441122087A90AAA08AB091205917401C4
:104C4C00122037024DFA124E841222A8EEFCEFFD10
:104C5C00742E12207F1219C57402122037EE241004
:104C6C00FE50010F8E828F83E0F50CE4F50F1233AA
:104C7C0003121DFA780C7910121E198E828F831272
:104C8C0032F6121DFA780C7910121E198E828F834F
:104C9C00A3A3A3124E32121DFA780C7910121E190E
:104CAC00743C12206DE50CF0A3E50DF0A3E50EF0BD
:104CBC00A3E50FF0742C122087A90AAA08AB0912DD
:104CCC000573024DFA124E4FFCE439FDAA0AAB0BE8
:104CDC00120585024DFAEE2410FCE43FFDEEFAEFCE
:104CEC00FB120549024DFA8E828F83E0FA7B008518
:104CFC000882850983E0FC850A82850B83E0F9EC48
:104D0C002BE439FDEA64267003024E0AEA9427402C
:104D1C0003024E0A1204DD024DFA78FF79FF8E82EF
:104D2C008F83E0FA7B00F46020EA6426601BEAC300
:104D3C00942750151204E38A088B09A808A9097452
:104D4C00FF68700374FF697003750E02850C828511
:104D5C000D837402F0E8900D98F0E9A3024E07124F
:104D6C004E6B120681024DFAE0F50CF50E750F0034
:104D7C002404FAE43400FB121A9D8A088B09EA45D4
:104D8C000960518E828F83E08A828B83F0A3E50CBD
:104D9C00F0EA2402E435090A0AFBE5082404F8E4E5
:104DAC003509F98A828B83124EAC780E1222A8AC8C
:104DBC000AAD0B8A828B83125CF21219C574021233
:104DCC002037AA08AB09120615E9F50E6038AA08B7
:104DDC00AB098012750E13802D8E828F83E0F91231
:104DEC00061BEA4B6018121AA3801B120621E9F568
:104DFC000E8013750E028C828D83E4F08008750E84
:104E0C00028003750E01A90E745B1220377F0E020F
:104E1C002163EB4509FBE50EA2E7E433F5087509C0
:104E2C0000740B780822E0F510E4F5127418781071
:104E3C0022124E5DF9EA228E828F83E0FAA3E0F90A
:104E4C00EAF822124E5322124E5DF8E4C8F9EA2811
:104E5C00228E828F83E0FA850882850983E0228581
:104E6C000A82850B83E0F98E828F83E0FC850882B1
:104E7C00850983E0FBECFA22124E53F508E439F570
:104E8C00090E0EAF0B8E828F83E0F50AA3AE82AFB4
:104E9C0083750C10880D780C22F98518828519837E
:104EAC00E8F0A3E9F022124EB622124EBA22124EAC
:104EBC00BFA322F08E828F8322124EB6E0F50E2213
:104ECC00F0A3E9F00E0EAF0B8E828F83E022F0AED2
:104EDC0008AF098E828F83E022124F007508067589
:104EEC000900780822E8F0A3E9F0EE2402FE221271
:104EFC004F00E022124EBA0EAF832274F4122091AE
:104F0C0074FD122021EAFEEBFF851882851983E4DB
:104F1C00F0F508F5090412206DE4F0740212206D0E
:104F2C007401F07C2C7D0079007A667B0D1219DD02
:104F3C008E828F83E02460606F24FE605124F270B7
:104F4C0003024FDD14700302500B24E16003025086
:104F5C002C74021220778808890978081222A87408
:104F6C00031220778808890978081222A874041281
:104F7C0020778808890978081222A87C667D0DEEB6
:104F8C00FAEFFB12195F7406122037025028A8188A
:104F9C00A9198808890978081222A87C667D0DEE6B
:104FAC00FAEFFB121965806F74011220778808895B
:104FBC000978081222A874021220778808890978C7
:104FCC00081222A87C667D0DEEFAEFFB12196B809D
:104FDC002774011220778808890978081222A8748E
:104FEC00021220778808890978081222A87C667D2D
:104FFC000DEEFAEFFB1219717404122037801DA804
:10500C0018A9198808890978081222A87C667D0DD0
:10501C00EEFAEFFB12197774021220378A088B090B
:10502C00740212206DE06007EEFAEFFB1219EF85A7
:10503C001882851983E0600AAC08AD09FA79FF1271
:10504C000B6DE50845096011740112206DE06401D7
:10505C007007AA08AB09121AA3790074031220373F
:10506C007F0402216374E812209174FE122021EA5D
:10507C00FEEBFF8C088D09751000750A00750B008E
:10508C00741E12206D12607AEC2406F8E43509F9CE
:10509C00EC240BF50CE43509F50DEC2405FAE4359C
:1050AC0009FB8C828D83A3858214858315EE2403E2
:1050BC00F50EE43FF50F8E828F83A38582128583D4
:1050CC00138E828F83A3A3E0605D1470030251C31F
:1050DC001470030252C11470030252D914700302EB
:1050EC0052E41470030252FE1470030253B814708D
:1050FC00030253DE14700302543A14700302545A20
:10510C0014700302550A1470030254D31470030272
:10511C0057B91470030257EE1470030256F9147049
:10512C000302570C0258758C828D83E4125A22129A
:10513C0022A8AC0EAD0FE5082403FAE43509FB12E6
:10514C0019C57402122037125A7F750A10780A1288
:10515C0022A87CCA7D0DE508240CFAE43509FB1263
:10516C0019C57402122037780A1222A87CDA7D0D38
:10517C00E508241CFAE43509FB1219C57402122047
:10518C0037851282851383E070217CCA7D0D7A10DD
:10519C007902121B037CDA7D0D7A107903121B0342
:1051AC007C627D0D7A047904121B0385080A85093B
:1051BC000B75102C025875851282851383E06003E1
:1051CC00025293850E82850F83E070030252A8333E
:1051DC00333354F82404F510FA7B00121A9D8A0A12
:1051EC008B0BEA450B700302528A8A828B83740103
:1051FC00F0A374061259FF8512828513831259F895
:10520C00850E82850F831259F88E828F831233BAE2
:10521C00124EA57E00804E125CF81259F8125CF802
:10522C00A31259F875160675170078161222A87471
:10523C000212206DE02402FCA3E03400FDAA0CABAA
:10524C000D1219C57402122037E50C2406F50C500A
:10525C0002050D0E851882851983E02408F8A3E059
:10526C003400124EA5850E82850F83E0F8EEC398AC
:10527C0040A5741C12206D125CFE7401800885120E
:10528C00828513837413F0851282851383E0700C6E
:10529C00850E82850F83E060030258758508828530
:1052AC000983740112598F1258CB12613EA3A3E4E7
:1052BC001259F080128C828D837402125934740648
:1052CC00125A308C0A8D0B7510040258758C828D15
:1052DC0083740312598F800E8C828D83740412593F
:1052EC003C8E828F83A31258DE12591D7510030257
:1052FC0058758C828D83740512593404125AC3125A
:10530C0022A81258BA1219C574021220378E828F35
:10531C0083A3125A6EA31259B4850C82850D83F0A7
:10532C001258AFC0E01258A3D0E0125925E0C0E0EB
:10533C00125897D0E0125925A3E0C0E0E508240EDE
:10534C0012589BD0E0F0EE240FF8E43FF9888289E4
:10535C0083E0C0E0E508240F12589BD0E0125D0BEF
:10536C00C0E0E508241012589BD0E0F0EE2411F8B0
:10537C00E43FF988828983E0C0E0E50824111258E3
:10538C009BD0E0125D0BC0E0E508241212589BD0B4
:10539C00E0F0EE24131258B2C0E0E50824131258C2
:1053AC009BD0E01259F07510140258758C828D83C5
:1053BC007406125934125A30850E82850F83125896
:1053CC00DDA31259418A828B8312591F7510060274
:1053DC0058758C828D8374071259341412599A1291
:1053EC0058DEA3A3124EB2A3A31258DD1259418C5E
:1053FC00828D83A3A3A3A31259658A828B8312592E
:10540C007688828983125A081259898C828D83A3DB
:10541C00A3A3A3A3A3A3A31259851258DE1259B4B4
:10542C008C828D83A312591675100B0258758C82C1
:10543C008D837408125AC01222A81258BA1219C5B8
:10544C00740212203785080A85090B0257B38C8227
:10545C008D837409125AC01222A81258BA1219C597
:10546C0074021220378E828F83A3A3A3A3A3A3A3BA
:10547C00A3A3A37810121ED9850882850983A3A340
:10548C00A3A3A3A3A3A3A3A3E51012598578101279
:10549C001ED9E511850C82850D831259AE121ED9C9
:1054AC007410780C121DE11258A3E50C1259AE12AF
:1054BC001ED97418780C121DE1125897E50C12596C
:1054CC00F075100E0258758C828D83740B125A2253
:1054DC001222A8AC0EAD0FE5082403FAE43509FB43
:1054EC001219C57402122037125A7F1258AFC0E03D
:1054FC001258A3D0E01259F075100D0258757510A2
:10550C006A7A6A7B00121A9D8A0A8B0BEA450B7029
:10551C00030256D2741C12206D12607A7C6A7D00D4
:10552C0079001219DD850A82850B83740A125AA63A
:10553C00850E82850F83A31259A21259E6F9E84908
:10554C00604712594D125A521222A88E828F831222
:10555C0045B31219C57402122037E5082410F5085A
:10556C00500205098E828F831258FA1259E612598D
:10557C006A1222A88E828F831258E41219C5740203
:10558C00122037E50824088004E508241CF508508F
:10559C000205098E828F83A3A312458F6056125980
:1055AC004DA3A3A3A3125A521222A88E828F83A3B7
:1055BC00A31245B11219C57402122037E508241044
:1055CC00F508500205098E828F83A3A31258F81296
:1055DC0059A21233B912596A1222A88E828F83A350
:1055EC00A3A3A31258E41219C57402122037E508BC
:1055FC0024088004E508241CF508500205091258FB
:10560C008912459760448508828509837401125A72
:10561C00621222A81258891245B91219C5740212C5
:10562C002037E5082410F50850020509750C06789A
:10563C000C1222A81258AF24101258ED1219C5746E
:10564C0002122037E50824068004E5082417F50823
:10565C00500205098E828F8312458F700302587594
:10566C008508828509837401125A621222A88E82DF
:10567C008F831245B11219C57402122037E5082424
:10568C0010F508500205098E828F831258F8780C99
:10569C00121ED9125ADA121ED9E50D850882850917
:1056AC0083125AE2121ED97410780C121DE1125A90
:1056BC00DA121ED97418780C121DE185088285093E
:1056CC0083E50C025874850882850983740A125983
:1056DC003C850882850983A3A37413125A4A125875
:1056EC00CB125A49A3125CD71259F0800D8C828DC3
:1056FC0083740E125AF58C0A8D0B751005025875B1
:10570C008C828D83740F125AF58E828F83A3A3A380
:10571C00A3A3E08A828B83125965888289831259EC
:10572C00768C828D83A3A3A3A3A3A3A3125A08A34D
:10573C00125989F8A3E0F9E8A2E0E433F50AE85439
:10574C000260047A0280027A00EA420AE854046099
:10575C00047A0480027A00EA420AE8540860047A67
:10576C000880027A00EA420AE9540160047A108047
:10577C00027A00EA420AE9540260047A2080027A32
:10578C0000EA420AE9540460047A4080027A00EA92
:10579C00420AE954086004788080027800E8450ADF
:1057AC008C828D8312591675100A0258758C828D55
:1057BC0083740C125AF5750A06780A1222A8EE2484
:1057CC0005FCE43FFD1219C57402122037EE240BC0
:1057DC001258B2850C82850D831259F075100C028B
:1057EC0058751258AF240DF510FA7B00121A9D8AC9
:1057FC000A8B0BEA450B60688A828B83740D125AF4
:10580C00A68E828F83A3A3A31259D1750C06750D96
:10581C0000780C1222A8EE2405FCE43FFDAA08AB8C
:10582C00091219C57402122037E5082406F5085030
:10583C00020509EE240B1258B21259C91259C9F5B6
:10584C000C780C1222A812592A1245B91219C574D7
:10585C0002122037741C12206D125CFE7401800839
:10586C008512828513837413F0741A12206D125CE6
:10587C00FEE510F0AA0AAB0B740202608112588D7F
:10588C0022EE240CF582E43FF58322E508240DF585
:10589C0082E43509F58322E508240CF582E4350908
:1058AC00F58322EE240CF582E43FF583E022EE240E
:1058BC0004FCE43FFDE50824041AE43509FB22123C
:1058CC0058CF221258D322E0850882850983A3A3DE
:1058DC0022A3E08C828D8322A3A3A3A3A3A3E02401
:1058EC0012FCA3E03400FDAA08AB0922A3A3A3A3D6
:1058FC00A3A312590222A3A3E0F8A3E012590C228D
:10590C00C82410F582E438F58322A3A3A3A3A3A390
:10591C00A3A3A3F08C0A8D0B22F012592A22EE2499
:10592C000DF582E43FF58322F085148285158322E0
:10593C00125ACCF022A3A3A3124EB6A3A3A3A3E0A6
:10594C002285088285098374011259592212595DE6
:10595C00221259DD8E828F832212597CE022125939
:10596C000C1259D1750C08780C2212597CA3E02228
:10597C00124EBAA3A3A3A3A3221259C322125A12E2
:10598C00A3E02212599322125AD012599A22F0856E
:10599C00128285138322125A77125959A3A3A3A3F7
:1059AC00A3221259C3780C221259BAA3E022A3A342
:1059BC00A3A3A3A3A3A3A3125A16A3A3221259D33E
:1059CC0012588DE022A3E08508828509831259DDE7
:1059DC0022F0A385820885830922125A77125AEB8A
:1059EC001233BE22F085080A85090B22E0850C8251
:1059FC00850D83F0A385820C85830D22125A121219
:105A0C005B07A3A3A322125A1622124EBFA3A3A371
:105A1C00A3A3A3A3A322125993125A42A3F0750A6B
:105A2C0006780A22125A342212599A125A42125ADF
:105A3C0049125B0CF022E08C828D83A322A3F085AB
:105A4C000E82850F8322A31233B9C8241AF582E47F
:105A5C0038F583125A771259D9750C10750D0078D8
:105A6C000C22A3A3A3A3A3A3A3A3A3E085088285CD
:105A7C000983228E828F83125A6E1259BA125CE1FC
:105A8C00A3A3A3F0EE240BF582E43FF583125A9DF9
:105A9C0022E0850C82850D83F022F0A37406125946
:105AAC00D98512828513831259D2850E82850F8374
:105ABC001259D222125ACC125A34750A06780A227A
:105ACC00125AD022F085148285158374062285081B
:105ADC0082850983E50C125AEB125902780C2212BA
:105AEC00595DA3A3A3A3A3A322125ACC125A3485A3
:105AFC000E82850F83A3125B07F022125B0CA3228C
:105B0C00125A42A3A32274F1122091EAFEEBFF8CED
:105B1C00088D09EE2405F50CE43FF50D8E828F837C
:105B2C00A385820A85830B8E828F83A3A31222C343
